:040000000DEF00F010
:040008007EEF85F012
:06001800FF003FEF85F040
:10FDAE0000D41301000000BA05010000000000009D
:10FDBE000000000000002E120100000000000000F4
:10FDCE0000000000000000000000005A120158154B
:10FDDE00015215010000004E140100000002C00087
:10FDEE00FF0002C000FF000240000000526E8C6255
:10FDFE003232556E8C643232556E8C643232556EA0
:10FE0E008C64323255AD6B5A32325830213F262B2C
:10FE1E005335263A2B304E3A2B353035493F30305C
:10FE2E00353A4444352B3A3F0000000000000000F4
:10FE3E0000000000000000000000000000000000B4
:10FE4E0000000000000000000000000000000000A4
:10FE5E000000000000000000000000000000000094
:10FE6E000000000000000000000000000000000084
:10FE7E000000000000000000000000000000000074
:10FE8E00000044697361626C656400003820626929
:10FE9E007473000000003136206269747300000034
:10FEAE00165A192955322337503728324B3C2D2DEF
:10FEBE005354415455530909203D20307825303292
:10FECE00782052585F44523D25782054585F445351
:10FEDE003D2578204D41585F52543D25782052588B
:10FEEE005F505F4E4F3D25782054585F46554C4C21
:10FEFE003D25780D0A003D3D3D3D3D3D3D3D3D3DA1
:10FF0E003D3D3D3D3D3D204E524620436F6E666960
:10FF1E006775726174696F6E203D3D3D3D3D3D3D9F
:10FF2E003D3D3D3D3D3D3D3D3D0A00526574726196
:10FF3E006E736D697409203D2025642075730A0067
:10FF4E00435243204C656E67746809203D2025732B
:10FF5E000A0044617461205261746509203D2025B8
:10FF6E00730A00504120506F77657209203D20259D
:10FF7E00730A0044594E50442F464541545552453C
:10FF8E000052585F414444525F50302D3100525858
:10FF9E005F414444525F50322D350052585F5057E6
:10FFAE005F50302D3600454E5F525841444452004A
:10FFBE0054585F41444452090052465F53455455CC
:10FFCE005000434F4E4649470900203078253032C5
:10FFDE007800454E5F4141090052465F4348090093
:10FFEE00257309203D0032524543560020307800DB
:01FFFE000002
:020000040001F9
:10000000000E0C6E000E0B6E700E036E050E046E6D
:10001000020E0326000E0422D8900B34D96E0C3445
:10002000DA6ED890D936DA360350D9260450DA225F
:10003000700E076E050E086ED8900B34E16E0C340E
:10004000E26ED890E136E2360750E1260850E2220F
:10005000DE50E65CDE50E658D8B031EF80F033EF8A
:1000600080F048EF80F0700E036E050E046ED8909D
:100070000B34D96E0C34DA6ED890D936DA36035098
:10008000D9260450DA22DE2A000EDD228AEF80F023
:10009000700E036E050E046ED8900B34D96E0C34BE
:1000A000DA6ED890D936DA360350D9260450DA22DF
:1000B000700E076E050E086E020E0726000E08224F
:1000C000D8900B34E16E0C34E26ED890E136E23613
:1000D0000750E1260850E222DE50E65CDE50E6588A
:1000E000D8B075EF80F077EF80F08AEF80F0700E77
:1000F000036E050E046ED8900B34D96E0C34DA6E94
:10010000D890D936DA360350D9260450DA22DE06E2
:10011000000EDD5A0B500C10D8A491EF80F093EF35
:1001200080F0ABEF80F0700E036E050E046ED89079
:100130000B34D96E0C34DA6ED890D936DA360350D7
:10014000D9260450DA22DEC401F5DDC402F59EECA6
:100150008AF010EF81F00B040C10D8A4B2EF80F0FD
:10016000B4EF80F0CCEF80F0700E036E050E046EDD
:10017000D8900B34D96E0C34DA6ED890D936DA3682
:100180000350D9260450DA22DEC401F5DDC402F59D
:1001900099EC8AF010EF81F0020E0B180C10D8A425
:1001A000D4EF80F0D6EF80F0EEEF80F0700E036EAB
:1001B000050E046ED8900B34D96E0C34DA6ED890DC
:1001C000D936DA360350D9260450DA22DEC401F5D6
:1001D000DDC402F594EC8AF010EF81F0030E0B18E9
:1001E0000C10D8A4F6EF80F0F8EF80F010EF81F05B
:1001F000700E036E050E046ED8900B34D96E0C345D
:10020000DA6ED890D936DA360350D9260450DA227D
:10021000DEC401F5DDC402F58FEC8AF010EF81F049
:100220000B4A0C2A0CBE1EEF81F00C5009E1040EA3
:100230000B5CD8A01EEF81F020EF81F004EF80F07E
:10024000BDEC8AF0BBEC8AF012004450D8B42BEF1E
:1002500081F02DEF81F02FEF82F0F6EC84F00009B1
:10026000D8B435EF81F037EF81F0F8EF81F02FEF60
:1002700082F048500CEC8AF00FC532F510C533F50A
:1002800032C517F533C518F5FBEC85F04950D8B4E5
:100290004CEF81F04EEF81F052EF81F0070E4A6E85
:1002A0002DEF82F0020E4A6E2DEF82F0A3EC8AF061
:1002B0004950D8B45EEF81F060EF81F064EF81F0D7
:1002C000040E4A6E2DEF82F0030E4A6E2DEF82F07F
:1002D000ACC522F5ADC523F5AEC524F5AFC525F5F2
:1002E000220E176E050E186EFBEC85F04950D8B43F
:1002F0007CEF81F07EEF81F060EF81F0010E4A6EBD
:100300002DEF82F0A8C526F5A9C527F5AAC528F5C1
:10031000ABC529F5260E176E050E186EFBEC85F0A1
:100320004950D8B496EF81F098EF81F09AEF81F0C0
:1003300064EF81F0060E4A6E2DEF82F047C51CF582
:1003400046C51DF545C51EF54850AAEC84F0495038
:10035000D8B4ADEF81F0AFEF81F04EEF81F052EF06
:1003600081F0A6EC8AF04904D8A4B9EF81F0BBEF84
:1003700081F0BEEF81F0485056EC89F04950D8B476
:10038000C4EF81F0C6EF81F0CAEF81F0090E4A6E2A
:100390002DEF82F0080E4A6E2DEF82F0A4C52AF5EB
:1003A000A5C52BF5A6C52CF5A7C52DF52A0E176EEC
:1003B000050E186EFBEC85F04950D8B4E2EF81F0E1
:1003C000E4EF81F0C6EF81F09AEF81F0A0C52EF541
:1003D000A1C52FF5A2C530F5A3C531F52E0E176EB8
:1003E000050E186EFBEC85F04A6A446A2DEF82F028
:1003F0004B50206E216A2150000AD8B402EF82F0DF
:100400002DEF82F02050000AD8B42DEF82F0010ABF
:10041000D8B439EF81F0030AD8B456EF81F0010A5D
:10042000D8B468EF81F0070AD8B482EF81F0010AEE
:10043000D8B42DEF82F0030AD8B49EEF81F0010A00
:10044000D8B4B1EF81F00F0AD8B4CEEF81F0010A31
:10045000D8B4E6EF81F02DEF82F04AC54BF51200DB
:10046000F70E106E050E116EEBEC88F0F70E1C6E99
:10047000050E1D6E700E1E6E200E1F6EBDEC85F0FB
:10048000F70E196E050E1A6EF40E1B6EFF0E1C6E23
:100490005DEC84F019C5E9F51AC5EAF55EEF82F066
:1004A000F70E196E050E1A6EF40E1B6EFF0E1C6E03
:1004B0005DEC84F019C5E9F51AC5EAF50501E951C5
:1004C000EA11D8A466EF82F068EF82F050EF82F074
:1004D000F70E196E050E1A6EF40E1B6EFF0E1C6ED3
:1004E00007EC84F019C5E9F51AC5EAF586EF82F044
:1004F000F70E196E050E1A6EF40E1B6EFF0E1C6EB3
:1005000007EC84F019C5E9F51AC5EAF50501E951CA
:10051000EA11D8A48EEF82F090EF82F078EF82F0AB
:10052000F70E1D6E050E1E6EA2EC89F0700E116E98
:10053000070EDEEC89F025EC81F04D50D8B4A3EF26
:1005400082F0A5EF82F0D4EF82F0F70E1C6E050E5C
:100550001D6E6AEC89F00009D8B4B1EF82F0B3EFF8
:1005600082F0D3EF82F0F70E156E050E166E800E38
:10057000176E050E186EA2EC88F0800E1A6E050E2E
:100580001B6EEB0E1C6E050E1D6E42EC83F0F4C567
:100590000FF5F5C510F5F6C511F5000E126E050143
:1005A000F3517EEC87F04D6A000E106E010E0F6E57
:1005B000BBEC88F09BEF82F012000F6E000184BF4D
:1005C000E4EF82F0E6EF82F041EF83F00F50050D8B
:1005D000EB0EF324F66EFD0EF420F76EF86A000EB3
:1005E000F8220800F5C484F00F50050D010EF32623
:1005F000000EF422EB0EF324F66EFD0EF420F76EDF
:10060000F86A000EF8220800F5C485F00F50050DB9
:10061000020EF326000EF422EB0EF324F66EFD0E0E
:10062000F420F76EF86A000EF8220800F550FC0B73
:10063000866F0F50050D030EF326000EF422EB0E0D
:10064000F324F66EFD0EF420F76EF86A000EF82221
:100650000800F5C489F00F50050D040EF326000EB6
:10066000F422EB0EF324F66EFD0EF420F76EF86A1A
:10067000000EF8220800F5C48CF0C896848F41EF74
:1006800083F012001A501B10D8B449EF83F04BEFDF
:1006900083F0A5EF83F01C501D10D8A452EF83F017
:1006A00054EF83F056EF83F0A5EF83F01CC50FF5F0
:1006B0001DC510F51AC511F51BC512F5000E146EF7
:1006C000080E136E30EC87F020EE08F01A50D92691
:1006D0001B50DA2210EE08F01C50E1261D50E222D9
:1006E000DFC4E7F420EE09F01A50D9261B50DA22B5
:1006F00010EE09F01C50E1261D50E222DFC4E7F4A1
:1007000020EE0AF01A50D9261B50DA2210EE0AF019
:100710001C50E1261D50E222DFC4E7F420EE0BF06E
:100720001C50D9261D50DA2210EE0BF01A50E1268B
:100730001B50E222E750D8A4A0EF83F0A3EF83F090
:10074000010EA4EF83F0000EDF6E1200BE6ABF6AD6
:10075000C06AC16AC26AC36A0401026B0A6B126B87
:100760001A6B226B2A6BC668F00EC76E8E0EC86EAF
:10077000C9680F0ECA6ECB6800690869810E106FD8
:100780001869070E206F2869016B096B116B196BD3
:10079000216B296B03690B6913691B69070E236FB2
:1007A0002B6904690C6914691C690F0E246F2C698C
:1007B0000201896B886B876B866B120E6B6F320E32
:1007C000156F1C0E0C6F1D0E0B6F1A0E0A6F1B0E91
:1007D000096F180E116F130E6A6F310E146F04013A
:1007E000056B066B076B0D6B0E6B0F6B156B020EBB
:1007F000166F176B256B266B276B820E0F6E150E0F
:10080000106E010E116E6DEC8AF09E8E1200000EBD
:10081000266E000E256E1BC515F51CC516F5050EBA
:10082000176E0A0E89EC88F01BC515F51CC516F568
:10083000050E176E100E89EC88F0200E156E050E51
:10084000166E050E176E0A0ED3EC88F0000E286E99
:10085000000E276E200E2724D96E050E2820DA6E92
:1008600027501B241E6E28501C201F6E1EC5F6F438
:100870001FC5F7F4000EF86EDE500900F518D8B465
:1008800044EF84F046EF84F048EF84F02568266852
:10089000274A282A28BE56EF84F0285009E1050E81
:1008A000275CD8A056EF84F058EF84F02AEF84F04C
:1008B00025C519F526C51AF51200000E266E000E84
:1008C000256E1BC515F51CC516F5050E176E0B0E0E
:1008D00089EC88F0200E156E050E166E050E176E4B
:1008E0000B0ED3EC88F0000E286E000E276E200E43
:1008F0002724D96E050E2820DA6E27501B241E6E81
:1009000028501C201F6E1EC5F6F41FC5F7F4000EFC
:10091000F86EDE500900F518D8B491EF84F093EF2B
:1009200084F095EF84F025682668274A282A28BE97
:10093000A3EF84F0285009E1050E275CD8A0A3EFAF
:1009400084F0A5EF84F077EF84F025C519F526C56E
:100950001AF512001F6E040E1F60B1EF84F0B3EFA2
:1009600084F0F5EF84F0050E1C60B9EF84F0BBEF66
:1009700084F0F5EF84F0050E1D60C1EF84F0C3EF45
:1009800084F0F5EF84F01F50040D600EF324D96E4F
:10099000050EF420DA6E1CC5DFF41F50040D610E45
:1009A000F324D96E050EF420DA6E1DC5DFF41F5056
:1009B000040D620EF324D96E050EF420DA6E1EC506
:1009C000DFF41DC50FF51C5058EC87F00FC517F567
:1009D00010C518F5FBEC85F01F50040D630EF324D1
:1009E000D96E050EF420DA6EDF6A1200000E186E62
:1009F000000E176E700E0F6E050E106E020E0F2693
:100A0000000E1022D8901734D96E1834DA6ED890B0
:100A1000D936DA360F50D9261050DA22700E136EFE
:100A2000050E146ED8901734E16E1834E26ED8902B
:100A3000E136E2361350E1261450E222DE50E61889
:100A400009E1DE50E618D8B428EF85F02AEF85F0EA
:100A50002DEF85F0010E3EEF85F0174A182A18BEDB
:100A60003BEF85F0185009E1040E175CD8A03BEF6E
:100A700085F03DEF85F0FAEF84F0000E1200660E6F
:100A8000F66E130EF76E010EF86E01EE00F210EE28
:100A900020F00900F5C4EEF4E550E150FAE1840ECF
:100AA000F66E120EF76E010EF86E01EEA0F110EE6A
:100AB00028F00900F5C4EEF4E550E150FAE1840EA7
:100AC000F66E150EF76E010EF86E0900F5C44EF5C0
:100AD00001EE60F1400EEE6AE806FDE101EE42F142
:100AE0000C0EEE6AE806FDE10401080E5D6F000ED3
:100AF0005E6F000E5F6F000103EF88F0FAC40DF522
:100B0000FBC40EF59EAE87EF85F089EF85F094EF7C
:100B100085F0AEAE8EEF85F090EF85F094EF85F026
:100B200001EC8AF0B8EF85F0A1AE99EF85F09BEF6C
:100B300085F0A6EF85F0B1AEA0EF85F0A2EF85F0CD
:100B4000A6EF85F0E4EC87F0B8EF85F0A1A6ABEF57
:100B500085F0ADEF85F0B8EF85F0B1A6B2EF85F086
:100B6000B4EF85F0B8EF85F06FEC88F0B8EF85F062
:100B70000EC5FBF40DC5FAF4110020EE01F01C5077
:100B8000D9261D50DA221EC5DFF420EE02F01C50DB
:100B9000D9261D50DA221FC5DFF41CC519F51DC565
:100BA0001AF5F6EC89F01EC511F5050EDEEC89F09C
:100BB00020EE02F01C50D9261D50DA22DF50116EB3
:100BC000110EDEEC89F020EE02F01C50D9261D50EB
:100BD000DA22DF50116E120EDEEC89F01CC513F51F
:100BE0001DC514F590EC89F01CC511F51DC512F555
:100BF00089EC8AF0120017501810D8B402EF86F072
:100C000004EF86F033EF86F01B6A1B501724196E31
:100C1000000E18201A6E19C5F6F41AC5F7F4000E66
:100C2000F86E250EF76403D00800F55005D0F6C421
:100C3000E9F4F7C4EAF4EF50C3EC89F01B50040D5B
:100C4000720EF324D96E050EF420DA6E0FC5DEF4B1
:100C500010C5DDF41B2A030E1B6431EF86F033EF61
:100C600086F005EF86F01200020E1B643AEF86F064
:100C70003CEF86F03EEF86F06AEF86F01C0E156EB4
:100C8000050E166E010E176E060ED3EC88F0020EDE
:100C90001B18D8A44EEF86F050EF86F05DEF86F07B
:100CA0001C5020091C6E1C50F70B1C6E1CC511F546
:100CB000060EDEEC89F06AEF86F01C50D70B1C6E36
:100CC0001B38E842F80B1C101C6E1CC511F5060EF3
:100CD000DEEC89F012007E6A020E7F6E806A816807
:100CE000F90E826E130E836E846A856A866A886A3C
:100CF000896A7D0E8A6E8B6A7D0E8C6EB59CB59E60
:100D000085908592A59EA59C000E0F6E000E106E1C
:100D1000000E116E35EC8AF0000E0F6E000E106E94
:100D2000000E116E2EEC8AF0000E0F6E000E106E8B
:100D3000000E116E3CEC8AF0800E876E12006F6A16
:100D4000020E706E716A7268F90E736E130E746E15
:100D5000756A766A776A796A7A6A7D0E7B6E7C6AD2
:100D60007D0E7D6EB39CB39E76907692A39EA39CDF
:100D7000000E0F6E000E106E000E116E4AEC8AF01F
:100D8000000E0F6E000E106E000E116E43EC8AF016
:100D9000000E0F6E000E106E000E116E51EC8AF0F8
:100DA000800E786E1200606A020E616E626A63687D
:100DB000F90E646E130E656E666A676A686A6A6A1F
:100DC0006B6A7D0E6C6E6D6A7D0E6E6EB29CB29E0D
:100DD00067906792A29EA29C000E0F6E000E106E8E
:100DE000000E116E5FEC8AF0000E0F6E000E106E9A
:100DF000000E116E58EC8AF0000E0F6E000E106E91
:100E0000000E116E66EC8AF0800E696E120011EF12
:100E100087F0AA0EE82EFED700D0200E0F5E000E3F
:100E2000105A105007E1200E0F5CD8B01AEF87F06F
:100E30001CEF87F009EF87F022EF87F0050EE82E10
:100E4000FED700000F06D8A010060F2806E11028D4
:100E5000D8A42DEF87F02FEF87F01EEF87F0120058
:100E600011C518F512C519F50FC516F510C517F5FA
:100E70004AEF87F018C5D9F419C5DAF4DF50156EBA
:100E8000184A192A16C5D9F417C5DAF415C5DFF4BE
:100E9000164A172A1306D8A01406132806E11428A8
:100EA000D8A455EF87F057EF87F03AEF87F012009C
:100EB000166E050E16605FEF87F061EF87F07DEF2D
:100EC00087F0050E0F6067EF87F069EF87F07DEF21
:100ED00087F00F50060DF3C412F5F4C413F5165045
:100EE0001E0DFA0EF324146EFD0EF420156E125032
:100EF00014240F6E13501520106E1200136E4B50F9
:100F0000D8A485EF87F087EF87F0A1EF87F013C5AE
:100F100048F50FC547F510C546F511C545F512C58D
:100F200049F51250D8B497EF87F099EF87F09DEF0D
:100F300087F0080E4B6E9FEF87F0010E4B6E010E8F
:100F4000446E1200C09C146AB9EF87F011C5F6F424
:100F500012C5F7F4000EF86E0800F55017EC89F092
:100F6000114A122A000E106E0A0E0F6E07EC87F05F
:100F7000142A1350145CD8A0C0EF87F0C2EF87F09A
:100F8000A6EF87F0C08C1200D69AAF90D680000EE4
:100F90000F6E000E106E000E116E82EC8AF0B4908F
:100FA000D682000E0F6E000E106E000E116E7BECDE
:100FB0008AF0B890D684000E0F6E000E106E000EF0
:100FC000116E74EC8AF0120043500301196F42C590
:100FD00018F30501CB51CC11CD11D8B4F2EF87F045
:100FE000F4EF87F001EF88F002D801EF88F00500F8
:100FF000FA6ECB51FD6ECC51FE6ECD51FF6EFA50A4
:101000001200B19E12007DEC89F0D68EACEC8AF015
:10101000640E0F6E150E106E010E116E6DEC8AF0DF
:10102000AFEC8AF0A9EC8AF0D1EC89F0B5EC8AF04B
:10103000000E346E000E356E30EC82F00DEF00F0D5
:101040000501D751D811D911D8B429EF88F02BEF69
:1010500088F038EF88F002D838EF88F00500FA6E93
:10106000D751FD6ED851FE6ED951FF6EFA50120065
:10107000040117931200C09C146A4AEF88F0FF0E17
:1010800017EC89F011C5D9F412C5DAF4DF6E114AF4
:10109000122A142A1350145CD8A051EF88F053EF91
:1010A00088F03FEF88F0C08C1200850E0301196FA5
:1010B000EE0E186F7B0E1B6F19510F6E1851426E9A
:1010C0000FC543F5800E0501CB6F150ECC6F010ED9
:1010D000CD6FB19EA18E900E03011A6F1200B196D2
:1010E0000501C851C911CA11D8B479EF88F07BEF56
:1010F00088F088EF88F002D888EF88F00500FA6E53
:10110000C851FD6EC951FE6ECA51FF6EFA501200F1
:101110001200186E1750D8B490EF88F092EF88F054
:10112000A1EF88F0C09C18501F0B200917EC89F024
:1011300015C511F516C512F517C513F5A2EC87F004
:10114000C08C1200C09C610E17EC89F017C511F518
:1011500018C512F520EE02F01550D9261650DA22E5
:10116000DF50136E3BEC88F0C08C400E116E070E02
:10117000DEEC89F01200C5EF88F0150E116EC60E78
:10118000E82EFED7112EFCD700D00F06D8A01006EF
:101190000F2806E11028D8A4D0EF88F0D2EF88F00D
:1011A000BDEF88F01200186E1750D8B4DAEF88F04F
:1011B000DCEF88F0EAEF88F0C09C18501F0B17ECAA
:1011C00089F015C511F516C512F517C513F53BECD9
:1011D00088F0C08C1200000EDDEC82F020EE01F0F1
:1011E0001050D9261150DA22730EDF6E20EE02F075
:1011F0001050D9261150DA22200EDF6EC89CC89AF2
:1012000012001C0E156E050E166E010E176E040EE2
:10121000D3EC88F01C500F0B1C6E1B38F00B1C100D
:101220001C6E1CC511F5040EDEEC89F012000F6E69
:101230000001878586510309866F836B010E826FDB
:101240000FC581F0B1A027EF89F029EF89F022EFD7
:1012500089F080C010F510501200030E0301266FB4
:10126000256B276B0F0E236F226B7E0E0F6E150EF4
:10127000106E010E116E27EC8AF0B196A186030163
:10128000246912002B5A192D2B5A732D2B5A732DAA
:101290002B5A192D314D627073000000324D62706F
:1012A000730000003235304B627073000F6E040E15
:1012B0000F605DEF89F05FEF89F069EF89F00F5003
:1012C000040D630EF324D96E050EF420DA6E010EC0
:1012D000DF6E12001CC519F51DC51AF5F6EC89F074
:1012E0001E6E1EAC76EF89F078EF89F07BEF89F007
:1012F000010E7CEF89F0000E120016EC8AF0A6ECCD
:1013000083F055EC88F0D3EC86F09FEC86F06BEC24
:1013100086F0EAEC89F02DEC89F0C4EC87F012003D
:1013200013C5D9F414C5DAF4DF6AC09A2B0E116E16
:10133000000EDEEC89F0C08A300E116E070EDEEC76
:1013400089F012001DC519F51EC51AF5000E1B6E99
:1013500034EC86F01DC519F51EC51AF5640E1B6E1A
:1013600001EC89F0120050415F4D494E00005041A0
:101370005F4C4F57000050415F484947480050417B
:101380005F4D41580000136E1350210DF3C411F549
:10139000F4C412F5E00E11240F6E060E1220106E2A
:1013A0001200B9EC8AF0B7EC8AF0000E0F6E000E56
:1013B000106E010E116E20EC8AF01200126EC09CAD
:1013C00012501F0B200917EC89F0115017EC89F00F
:1013D000C08C1200A194A192A1900001846B040E14
:1013E000856F866B896B8C6B878512001B0E156E63
:1013F000050E166E010E176E070ED3EC88F01B500B
:101400001200040117A307EF8AF009EF8AF00BEF2F
:101410008AF020EC88F01200126E1250040DAE0E0D
:10142000F3240F6EFE0EF420106E1200600E000109
:10143000AD6FAF6BB36B080EB16FB06BAC6B1200DE
:101440000FC5CBF510C5CCF511C5CDF512000FC5F4
:10145000C8F510C5C9F511C5CAF512000FC5DDF5EF
:1014600010C5DEF511C5DFF512000FC5E0F510C59A
:10147000E1F511C5E2F512000FC5DAF510C5DBF58F
:1014800011C5DCF512000FC5E6F510C5E7F511C56D
:10149000E8F512000FC536F510C537F511C538F55A
:1014A00012000FC5E3F510C5E4F511C5E5F512000E
:1014B0000FC53CF510C53DF511C53EF512000FC531
:1014C0003FF510C540F511C541F512000FC539F5BE
:1014D00010C53AF511C53BF512000FC5D7F510C57B
:1014E000D8F511C5D9F512000FC5CEF510C5CFF549
:1014F00011C5D0F512000FC5D1F510C5D2F511C533
:10150000D3F512000FC5D4F510C5D5F511C5D6F524
:101510001200C09CE20E17EC89F0C08C120001C5CD
:101520008BF402508C6E120001C589F402508A6E51
:10153000120001C57CF402507D6E120001C57AF4E0
:1015400002507B6E1200B9EC8AF01200B5EC8AF002
:1015500012000301249F12000301248F12000301D3
:101560001A9F1200010E4D6E1200699E1200788EB5
:101570001200698E12008784120078841200120013
:05158000120012000141
:020000040030CA
:080000008FFFF7FF9FFFFFFFD8
:01000900FFF7
:00000001FF
