:040000000DEF00F010
:0400080065EF85F02B
:06001800FF0020EF85F05F
:10FDB40000B410010000000000000000000000007A
:10FDC400000000000000000000000000000000002F
:10FDD40000000000000000000000008E0F0142122D
:10FDE400013C120100000028110100000002C000C3
:10FDF400FF0002C000FF000240000000176EA125B2
:10FE04006E6E1E6E99306E6E2C6E94416E6E3B6EED
:10FE1400914F6E6E4A3C8E5B963C126E901D6E6ED8
:10FE24001C6E8C2E6E6E286E8A3C6E6E386E874CFD
:10FE34006E6E4822875A8C22126E7D1E6E6E1A6E6A
:10FE44007D2B6E6E266E7E3A6E6E376E7E4B6E6EB8
:10FE5400471C7F5B841C156E68236E6E1E6E6E30AD
:10FE64006E6E286E723C6E6E386E744D6E6E49AD59
:10FE7400745B84171A6E572B6E6E226E60376E6E2B
:10FE84002E6E66436E6E3C6E6B506E6E50AD6D5E44
:10FE94006E6E44697361626C656400003820626947
:10FEA400747300000000313620626974730000002E
:10FEB400172D282A2A2D1643402D0E543D2D20514E
:10FEC4005354415455530909203D2030782530328C
:10FED400782052585F44523D25782054585F44534B
:10FEE4003D2578204D41585F52543D257820525885
:10FEF4005F505F4E4F3D25782054585F46554C4C1B
:10FF04003D25780D0A003D3D3D3D3D3D3D3D3D3D9A
:10FF14003D3D3D3D3D3D204E524620436F6E66695A
:10FF24006775726174696F6E203D3D3D3D3D3D3D99
:10FF34003D3D3D3D3D3D3D3D3D0A00526574726190
:10FF44006E736D697409203D2025642075730A0061
:10FF5400435243204C656E67746809203D20257325
:10FF64000A0044617461205261746509203D2025B2
:10FF7400730A00504120506F77657209203D202597
:10FF8400730A0044594E50442F4645415455524536
:10FF94000052585F414444525F50302D3100525852
:10FFA4005F414444525F50322D350052585F5057E0
:10FFB4005F50302D3600454E5F5258414444520044
:10FFC40054585F41444452090052465F53455455C6
:10FFD4005000434F4E4649470900203078253032BF
:10FFE4007800454E5F4141090052465F434809008D
:0BFFF400257309203D0020307800003C
:020000040001F9
:1000000005019151D8B407EF80F009EF80F054EF6B
:1000100082F0D6EC84F00009D8B411EF80F013EF31
:1000200080F00CEF82F054EF82F0955171EC88F083
:100030004CC50CF64DC50DF60CC6BAF50DC6BBF594
:10004000A4EC85F005019651D8B429EF80F02BEF90
:1000500080F02FEF80F0090E976F52EF82F0020EC2
:10006000976F52EF82F018EC89F005019651D8B4E1
:100070003CEF80F03EEF80F042EF80F00B0E976F88
:1000800052EF82F0030E976F52EF82F021EE0EF2E4
:10009000070EDE6AE806FDE2320E3FEC88F04CC542
:1000A0000EF64DC50FF6010E31EC88F04CC510F67A
:1000B0004DC511F6020E31EC88F04CC512F64DC557
:1000C00013F6290E3FEC88F04CC514F64DC515F615
:1000D0000E0E4C6E060E4D6EB4EC86F0040E05014D
:1000E000976F52EF82F021EE16F2070EDE6AE806F5
:1000F000FDE2320E3FEC88F04CC516F64DC517F602
:10010000010E31EC88F04CC518F64DC519F6020EFB
:1001100031EC88F04CC51AF64DC51BF6370E3FEC96
:1001200088F04CC51CF64DC51DF6160E4C6E060E1D
:100130004D6EB4EC86F005019651D8B4A2EF80F074
:10014000A4EF80F0A8EF80F0010E976F52EF82F0DD
:10015000060E976F52EF82F09DC500F69EC501F620
:100160009FC502F6A0C503F6000EBA6F060EBB6F60
:10017000A4EC85F005019651D8B4C1EF80F0C3EF2F
:1001800080F0C5EF80F06EEF80F0080E0501976FEC
:1001900052EF82F021EE1EF2070EDE6AE806FDE263
:1001A000000E31EC88F04CC51EF64DC51FF6010E51
:1001B00031EC88F04CC520F64DC521F693C54CF5C1
:1001C000050194510BEC87F0020E4C26000E4D22D7
:1001D0004CC5F6F44DC5F7F4000EF86E0800F55066
:1001E0003FEC88F04CC522F64DC523F6030E31ECEA
:1001F00088F04CC524F64DC525F61E0E4C6E060E35
:100200004D6EB4EC86F005019651D8B40AEF81F03A
:100210000CEF81F00EEF81F0C5EF80F0070E976FC5
:1002200052EF82F021EE26F2070EDE6AE806FDE2CA
:10023000000E31EC88F04CC526F64DC527F693C567
:100240004CF592C54DF5050194510FEC84F03FEC4F
:1002500088F04CC528F64DC529F6020E31EC88F021
:100260004CC52AF64DC52BF6030E31EC88F04CC573
:100270002CF64DC52DF6260E4C6E060E4D6EB4ECCA
:1002800086F0C5EF80F093C54CF592C54DF5080E8C
:100290004E6E060E4F6E94517AEC83F0080E0501F7
:1002A000BA6F060EBB6FA4EC85F005019651D8B469
:1002B0005CEF81F05EEF81F02BEF80F02FEF80F0AC
:1002C0001BEC89F005019651D8B469EF81F06BEF12
:1002D00081F070EF81F00D0E06013E6F73EF81F03B
:1002E0000B0E06013E6F3E5185EC88F00A0E0501AB
:1002F000976F52EF82F0A151D8A481EF81F083EF84
:1003000081F085EF81F054EF82F090C597F552EFC0
:1003100082F021EE2EF2070EDE6AE806FDE2320ED2
:100320003FEC88F04CC52EF64DC52FF6010E31EC92
:1003300088F04CC530F64DC531F6020E31EC88F030
:100340004CC532F64DC533F6370E3FEC88F04CC540
:1003500034F64DC535F62E0E4C6E060E4D6EB4ECD1
:1003600086F005019651D8B4B8EF81F0BAEF81F06C
:10037000BCEF81F06EEF80F00D0E976F52EF82F0C0
:1003800021EE36F2070EDE6AE806FDE2000E31ECE1
:1003900088F04CC536F64DC537F6010E31EC88F0C5
:1003A0004CC538F64DC539F60501955171EC88F00C
:1003B000020E4C26000E4D224CC5F6F44DC5F7F446
:1003C000000EF86E0800F5503FEC88F04CC53AF688
:1003D0004DC53BF6030E31EC88F04CC53CF64DC5DF
:1003E0003DF6360E4C6E060E4D6EB4EC86F0C5EF43
:1003F00080F099C504F69AC505F69BC506F69CC51E
:1004000007F6040EBA6F060EBB6FA4EC85F005016B
:10041000976B916B52EF82F005019851C56FC66BD7
:10042000C651000AD8B417EF82F052EF82F0C551DE
:10043000000AD8B452EF82F0010AD8B415EF80F068
:10044000030AD8B433EF80F0010AD8B446EF80F045
:10045000070AD8B473EF80F0010AD8B4ACEF80F08B
:10046000030AD8B4CAEF80F0010AD8B412EF81F0C1
:100470000F0AD8B443EF81F0010AD8B460EF81F0DD
:10048000030AD8B47BEF81F0010AD8B489EF81F078
:10049000070AD8B4C0EF81F0010AD8B4F9EF81F0AF
:1004A00052EF82F097C598F51200000E496E000ECB
:1004B000486E2B0E406E050E416E020E4026000E59
:1004C0004122D8904834D96E4934DA6ED890D93662
:1004D000DA364050D9264150DA222B0E446E050EF2
:1004E000456ED8904834E16E4934E26ED890E136DA
:1004F000E2364450E1264550E222DE50E65CDE5012
:10050000E658D8B086EF82F088EF82F09DEF82F057
:100510002B0E406E050E416ED8904834D96E49348A
:10052000DA6ED890D936DA364050D9264150DA22E0
:10053000DE2A000EDD22DFEF82F02B0E406E050E6C
:10054000416ED8904834D96E4934DA6ED890D93695
:10055000DA364050D9264150DA222B0E446E050E71
:10056000456E020E4426000E4522D8904834E16EB6
:100570004934E26ED890E136E2364450E1264550E7
:10058000E222DE50E65CDE50E658D8B0CAEF82F0D8
:10059000CCEF82F0DFEF82F02B0E406E050E416E45
:1005A000D8904834D96E4934DA6ED890D936DA36D4
:1005B0004050D9264150DA22DE06000EDD5A48505E
:1005C0004910D8A4E6EF82F0E8EF82F000EF83F064
:1005D0002B0E406E050E416ED8904834D96E4934CA
:1005E000DA6ED890D936DA364050D9264150DA2220
:1005F000DEC43EF5DDC43FF510EC89F065EF83F015
:1006000048044910D8A407EF83F009EF83F021EFE5
:1006100083F02B0E406E050E416ED8904834D96E93
:100620004934DA6ED890D936DA364050D92641505E
:10063000DA22DEC43EF5DDC43FF50BEC89F065EF50
:1006400083F0020E48184910D8A429EF83F02BEF4D
:1006500083F043EF83F02B0E406E050E416ED89071
:100660004834D96E4934DA6ED890D936DA364050EB
:10067000D9264150DA22DEC43EF5DDC43FF506EC52
:1006800089F065EF83F0030E48184910D8A44BEFAA
:1006900083F04DEF83F065EF83F02B0E406E050E77
:1006A000416ED8904834D96E4934DA6ED890D93634
:1006B000DA364050D9264150DA22DEC43EF5DDC498
:1006C0003FF501EC89F065EF83F0484A492A49BEBD
:1006D00073EF83F0495009E1040E485CD8A073EF32
:1006E00083F075EF83F059EF82F037EC89F035EC49
:1006F00089F012000501C26F000E0501C46F000EE3
:10070000C36F4C50060DF3C4BAF5F4C4BBF5C25127
:100710001E0D000EF324BC6FFE0EF420BD6FBA5107
:10072000BC25BE6FBB51BD21BF6FC351BE27C45195
:10073000BF23BEC5F6F4BFC5F7F4000EF86EC35173
:100740004E24D96EC4514F20DA6E0800F5C4DFF490
:10075000C34BC42BC4BFB6EF83F0C45109E1040EF0
:10076000C35DD8A0B6EF83F0B8EF83F081EF83F0DC
:100770004D50D8A4BEEF83F0C0EF83F0E4EF83F0D8
:100780004C50060DF3C4BAF5F4C4BBF5C2511E0DAE
:10079000000EF324BC6FFE0EF420BD6FBA51BC25D1
:1007A000BE6FBB51BD21BF6F040EBE27000EBF231D
:1007B000BEC5F6F4BFC5F7F4000EF86E0800F5509C
:1007C000C06FC16B06EF84F04C50060DF3C4BAF550
:1007D000F4C4BBF5C2511E0D000EF324BC6FFE0E17
:1007E000F420BD6FBA51BC25BE6FBB51BD21BF6F98
:1007F000050EBE27000EBF23BEC5F6F4BFC5F7F435
:10080000000EF86E0800F550C06FC16B20EE01F0CD
:100810004E50D9264F50DA22C0C5DFF41200506E78
:10082000050E506016EF84F018EF84F073EF84F03B
:10083000050E4C601EEF84F020EF84F073EF84F01F
:100840004D50D8A426EF84F028EF84F04DEF84F0CB
:100850004C50060DF3C4BAF5F4C4BBF550501E0D50
:10086000000EF3240501BC6FFE0EF420BD6FBA51DB
:10087000BC25BE6FBB51BD21BF6F040EBE27000E4D
:10088000BF23BEC5F6F4BFC5F7F4000EF86E08002E
:10089000F5504E6E4F6A70EF84F04C50060DF3C465
:1008A000BAF5F4C4BBF550501E0D000EF32405013B
:1008B000BC6FFE0EF420BD6FBA51BC25BE6FBB519C
:1008C000BD21BF6F050EBE27000EBF23BEC5F6F4C7
:1008D000BFC5F7F4000EF86E0800F5504E6E4F6A73
:1008E0004E5074EF84F0000E1200BE6ABF6AC06AF8
:1008F000C16AC26AC36A0401026B0A6B126B1A6B8B
:10090000226B2A6BC668F00EC76E8E0EC86EC96861
:100910000F0ECA6ECB6800690869810E106F1869E6
:10092000070E206F2869016B096B116B196B216B26
:10093000296B03690B6913691B69070E236F2B6908
:1009400004690C6914691C690F0E246F2C6902017B
:10095000896B886B876B866B120E6B6F320E156F0F
:100960001C0E0C6F1D0E0B6F1A0E0A6F1B0E096FFB
:10097000180E116F130E6A6F310E146F0401056BA0
:10098000066B076B0D6B0E6B0F6B156B020E166F04
:10099000176B256B266B276B760E4C6E120E4D6E09
:1009A000010E4E6EDAEC88F09E8E1200000E4D6E37
:1009B000000E4C6E2B0E0501BA6F050EBB6F020EBA
:1009C000BA27000EBB23D8904C34D96E4D34DA6E62
:1009D000D890D936DA36BA51D926BB51DA222B0E45
:1009E000BE6F050EBF6FD8904C34E16E4D34E26E91
:1009F000D890E136E236BE51E126BF51E222DE5008
:100A0000E61809E1DE50E618D8B409EF85F00BEFDF
:100A100085F00EEF85F0010E1FEF85F04C4A4D2A50
:100A20004DBE1CEF85F04D5009E1040E4C5CD8A082
:100A30001CEF85F01EEF85F0DAEF84F0000E120057
:100A4000210EF66E100EF76E010EF86E01EE5FF2DB
:100A500010EE20F00900F5C4EEF4E550E150FAE1A3
:100A6000000EF66E100EF76E010EF86E01EE99F1A3
:100A700010EE21F00900F5C4EEF4E550E150FAE182
:100A8000780EF66E120EF76E010EF86E0900F5C4C0
:100A900051F501EE3FF2200EEE6AE806FDE101EEAF
:100AA00060F1390EEE6AE806FDE101EE2BF1130E5E
:100AB000EE6AE806FDE10401080E5D6F000E5E6F50
:100AC000000E5F6F0001E0EF86F0FAC44AF5FBC448
:100AD0004BF59EAE6EEF85F070EF85F07BEF85F005
:100AE000AEAE75EF85F077EF85F07BEF85F066ECC5
:100AF00088F09FEF85F0A1AE80EF85F082EF85F062
:100B00008DEF85F0B1AE87EF85F089EF85F08DEF41
:100B100085F077EC87F09FEF85F0A1A692EF85F046
:100B200094EF85F09FEF85F0B1A699EF85F09BEFEC
:100B300085F09FEF85F021EC88F09FEF85F04BC5A5
:100B4000FBF44AC5FAF411000501BA51BB11D8B43F
:100B5000ACEF85F0AEEF85F0DEEF85F0BE6BBE51F9
:100B6000BA25BC6F000EBB21BD6FBCC5F6F4BDC578
:100B7000F7F4000EF86E250EF76403D00800F55068
:100B800005D0F6C4E9F4F7C4EAF4EF503FEC88F07E
:100B90000501BE51040D2D0EF324D96E050EF4206F
:100BA000DA6E4CC5DEF44DC5DDF4BE2B030EBE651A
:100BB000DCEF85F0DEEF85F0AFEF85F012002B0E55
:100BC0003FEC88F04CC52BF54DC52CF52B0E3FECBA
:100BD00088F04CC52DF54DC52EF52D0E3FEC88F057
:100BE0004CC52FF54DC530F52D0E3FEC88F04CC5AA
:100BF00031F54DC532F5190E3FEC88F04CC533F593
:100C00004DC534F5190E3FEC88F04CC535F54DC592
:100C100036F52D0E3FEC88F04CC537F54DC538F54F
:100C20002D0E3FEC88F04CC539F54DC53AF5120054
:100C30007E6A020E7F6E806A8168F90E826E130EE4
:100C4000836E846A856A866A886A896A7D0E8A6E7E
:100C50008B6A7D0E8C6EB59CB59E85908592A59E07
:100C6000A59C000E4C6E000E4D6E000E4E6EA2EC5A
:100C700088F0000E4C6E000E4D6E000E4E6E9BEC1A
:100C800088F0000E4C6E000E4D6E000E4E6EA9ECFC
:100C900088F0800E876E12006F6A020E706E716AA5
:100CA0007268F90E736E130E746E756A766A776ADF
:100CB000796A7A6A7D0E7B6E7C6A7D0E7D6EB39C4E
:100CC000B39E76907692A39EA39C000E4C6E000E6F
:100CD0004D6E000E4E6EB7EC88F0000E4C6E000E9E
:100CE0004D6E000E4E6EB0EC88F0000E4C6E000E95
:100CF0004D6E000E4E6EBEEC88F0800E786E1200C7
:100D0000606A020E616E626A7F0E636E646A130E21
:100D1000656E666A676A686A6A6A2C0E6B6E6C6AD0
:100D20002C0E6D6E6E6AB29CB29E67906792A29E08
:100D3000A29C000E4C6E000E4D6E000E4E6ECCEC62
:100D400088F0000E4C6E000E4D6E000E4E6EC5EC1F
:100D500088F0000E4C6E000E4D6E000E4E6ED3EC01
:100D600088F0800E696E12004C504D10D8B4BBEF65
:100D700086F0BDEF86F0DFEF86F0506A5050020D2E
:100D8000F3C44EF5F4C44FF54E504C24D96E4F5079
:100D90004D20DA6E5050040D2D0EF324E16E050E39
:100DA000F420E26EDEC4E6F4DDC4E5F4502A030E5E
:100DB0005064DDEF86F0DFEF86F0BEEF86F01200C4
:100DC000DCEC87F0540E4C6E120E4D6E010E4E6E22
:100DD000DAEC88F0D68E24EC89F01EEC89F04DEC2C
:100DE00088F02FEC89F021EC89F0EFEC87F0020E0F
:100DF0004C6E040E4D6E010E4E6E000E4F6E000EC8
:100E000032EC87F0000E0501C76F000EC86FFCECD6
:100E100088F00DEF00F04F6E050E4F6012EF87F077
:100E200014EF87F031EF87F0050E4C601AEF87F072
:100E30001CEF87F031EF87F04C50060DF3C4BAF584
:100E4000F4C4BBF54F501E0D000EF3240501BC6F1A
:100E5000FE0EF420BD6FBA51BC254C6EBB51BD21B6
:100E60004D6E1200506E05019851D8A43AEF87F0EC
:100E70003CEF87F056EF87F050C595F54CC594F5DB
:100E80004DC593F54EC592F54FC596F54F50D8B464
:100E90004CEF87F04EEF87F052EF87F0060E986F19
:100EA00054EF87F0010E986F010E916F1200D69AE1
:100EB000AF90D680000E4C6E000E4D6E000E4E6E42
:100EC000EFEC88F0B490D682000E4C6E000E4D6EA2
:100ED000000E4E6EE8EC88F0B890D684000E4C6E92
:100EE000000E4D6E000E4E6EE1EC88F012003C508C
:100EF0000301196F3BC518F3015002100310D8B459
:100F000084EF87F086EF87F093EF87F002D893EFB6
:100F100087F00500FA6E0150FD6E0250FE6E035020
:100F2000FF6EFA501200B19E12000D500E100F10FD
:100F3000D8B49DEF87F09FEF87F0ACEF87F002D831
:100F4000ACEF87F00500FA6E0D50FD6E0E50FE6E90
:100F50000F50FF6EFA501200040117931200C20ED8
:100F60000301196FF70E186F7C0E1B6F19514C6E31
:100F700018513B6E4CC53CF5740E016E120E026E9C
:100F8000010E036EB19EA18E900E1A6F1200030E19
:100F90000301266F256B276B0C0E236F226B720EDD
:100FA0004C6E120E4D6E010E4E6E94EC88F0B196A2
:100FB000A1860301246912007BEC88F075EC84F0B3
:100FC000AFEC87F080EC86F04CEC86F018EC86F005
:100FD0005AEC88F0C7EC87F057EC87F01200DFEC92
:100FE00085F00501976B986B916B010E516EEC0EBD
:100FF0004C6E110E4D6E010E4E6E8DEC88F012008F
:101000002B2D192D2F5A733201314D627073000050
:1010100000324D6270730000003235304B627073E5
:101020000050415F4D494E000050415F4C4F57000A
:101030000050415F484947480050415F4D415800CA
:0110400000AF
:10104200B19602D830EF88F00500FA6E0501C95159
:10105200FD6ECA51FE6ECB51FF6EFA5012001200A5
:101062004E6E4E50040D2D0EF324D96E050EF42053
:10107200DA6EDEC44CF5DDC44DF51200506E5050F0
:10108200210DF3C44EF5F4C44FF5E00E4E244C6E20
:10109200060E4F204D6E120033EC89F031EC89F0D0
:1010A200AA0E4C6E040E4D6E010E4E6E94EC88F03C
:1010B2001200A194A192A1900001846B040E856F8D
:1010C200866B896B8C6B87851200040117A36CEF0A
:1010D20088F06EEF88F070EF88F095EC87F01200E0
:1010E2004F6E4F50040DB40EF3244C6EFE0EF420DE
:1010F2004D6E1200600E0001AD6FAF6BB36B080E48
:10110200B16FB06BAC6B12004C6E0501A16B4CC59C
:1011120090F515EC89F012004CC501F54DC502F5AC
:101122004EC503F512004CC5C9F54DC5CAF54EC5ED
:10113200CBF512004CC513F54DC514F54EC515F58A
:1011420012004CC516F54DC517F54EC518F512001F
:101152004CC510F54DC511F54EC512F512004CC522
:101162001CF54DC51DF54EC51EF512004CC51FF5EB
:101172004DC520F54EC521F512004CC519F54DC5DA
:101182001AF54EC51BF512004CC525F54DC526F5C1
:101192004EC527F512004CC528F54DC529F54EC59B
:1011A2002AF512004CC522F54DC523F54EC524F58E
:1011B20012004CC50DF54DC50EF54EC50FF51200CA
:1011C2004CC504F54DC505F54EC506F512004CC5D6
:1011D20007F54DC508F54EC509F512004CC50AF5CF
:1011E2004DC50BF54EC50CF51200010E0501A16FA0
:1011F20027EC89F0120000EC80F0FCEF88F012007E
:101202003EC58BF43F508C6E12003EC589F43F50B0
:101212008A6E12003EC57CF43F507D6E12003EC5C0
:101222007AF43F507B6E120003011A8F12002DECEC
:1012320089F012002FEC89F012000301249F1200A2
:101242000301248F120003011A9F120003011A9F47
:101252001200010E3D6E1200698E1200699E12008C
:10126200878E1200788E1200878412007884120012
:07127200120012001200013E
:020000040030CA
:080000008FFFF7FF9FFFFFFFD8
:01000900FFF7
:00000001FF
