:040000000DEF00F010
:0400080054EF88F039
:06001800FF000CEF88F070
:10FD0800001E6EA11E6E6E286E99286E6E326E945D
:10FD18003C6E6E3C6E91466E6E503C8E50963C1416
:10FD28006E90146E6E1E6E8C286E6E326E8A326EF7
:10FD38006E3C6E87466E6E502287508C221E6E7DFA
:10FD4800146E6E1E6E7D1E6E6E286E7E326E6E3C5A
:10FD58006E7E466E6E501C7F3C841C1E6E681E6E46
:10FD68006E286E6E286E6E326E72326E6E3C6E74D7
:10FD7800466E6E50AD745084171E6E571E6E6E28F8
:10FD88006E60326E6E326E663C6E6E466E6B466E9E
:10FD98006E5AAD6D5A6E6E381A01000000EC0B01F8
:10FDA80000000000000000000000000068180100CA
:10FDB800000000000000000000000000000000003B
:10FDC80000941801F01B01F61B01EA1B01C61A0179
:10FDD80000000002C000FF0002C000FF0002400057
:10FDE8000000176EA1256E6E1E6E99306E6E2C6E19
:10FDF80094416E6E3B6E914F6E6E4A3C8E5B963CA4
:10FE0800126E901D6E6E1C6E8C2E6E6E286E8A3C65
:10FE18006E6E386E874C6E6E4822875A8C22126E30
:10FE28007D1E6E6E1A6E7D2B6E6E266E7E3A6E6E1F
:10FE3800376E7E4B6E6E471C7F5B841C156E682385
:10FE48006E6E1E6E6E306E6E286E723C6E6E386E02
:10FE5800744D6E6E49AD745B84171A6E572B6E6EB7
:10FE6800226E60376E6E2E6E66436E6E3C6E6B5001
:10FE78006E6E50AD6D5E6E6E44697361626C6564E2
:10FE88000000382062697473000000003136206277
:10FE98006974730000001E2D281E462D0E463C2D49
:10FEA800163C462D2046172D282A402D0E542A2D63
:10FEB80016433D2D20515354415455530909203DB3
:10FEC800203078253032782052585F44523D2578CA
:10FED8002054585F44533D2578204D41585F525473
:10FEE8003D25782052585F505F4E4F3D257820546D
:10FEF800585F46554C4C3D25780D0A003D3D3D3D2B
:10FF08003D3D3D3D3D3D3D3D3D3D3D3D204E524607
:10FF180020436F6E66696775726174696F6E203D04
:10FF28003D3D3D3D3D3D3D3D3D3D3D3D3D3D3D0A2C
:10FF38000052657472616E736D697409203D2025E5
:10FF4800642075730A00435243204C656E677468D9
:10FF580009203D2025730A004461746120526174B0
:10FF68006509203D2025730A00504120506F7765B0
:10FF78007209203D2025730A0044594E50442F46EB
:10FF88004541545552450052585F414444525F50D0
:10FF9800302D310052585F414444525F50322D3564
:10FFA8000052585F50575F50302D3600454E5F5213
:10FFB80058414444520054585F4144445209005245
:10FFC800465F534554555000434F4E464947090034
:10FFD8002030782530327800454E5F414109005283
:10FFE800465F43480900257309203D0034524543C4
:07FFF80056002030780000E4
:020000040001F9
:100000003F50D8B406EF80F008EF80F072EF82F036
:10001000C3EC87F00009D8B410EF80F012EF80F045
:1000200014EF80F072EF82F0000E106E0F0E0F6E64
:10003000F5EC8DF02DEF82F0000E106E020E0F6EBB
:10004000F5EC8DF021EE10F2070EDE6AE806FDE217
:10005000000EE7EC8CF00FC510F610C511F6010E7E
:10006000E7EC8CF00FC512F610C513F6435048ECC0
:100070008DF0020E0F26000E10220FC5F6F410C5EB
:10008000F7F4000EF86E0800F550F5EC8CF00FC593
:1000900014F610C515F6030EE7EC8CF00FC516F636
:1000A00010C517F6100E0F6E060E106E16EC8AF0C5
:1000B0006EEF80F04450D8B460EF80F062EF80F0D3
:1000C00066EF80F0040E466E6EEF82F00C0E466E08
:1000D0006EEF82F0020E466E6EEF82F045501E6E9D
:1000E0001F6A1F50000AD8B478EF80F06AEF80F0E2
:1000F0001E50050AD8B45AEF80F06AEF80F04350E2
:1001000048EC8DF00FC50CF610C50DF60CC614F5B5
:100110000DC615F5D1EC88F04450D8B492EF80F0BC
:1001200094EF80F098EF80F00A0E466E6EEF82F04A
:10013000030E466E6EEF82F0EFEC8DF04450D8B4B3
:10014000A4EF80F0A6EF80F062EF80F0080E466E1C
:100150006EEF82F043503EEC8DF00FC50EF610C5E9
:100160000FF60EC614F50FC615F5D1EC88F0BDEFED
:1001700080F0050E466E6EEF82F045501E6E1F6ACF
:100180001F50000AD8B4C7EF80F06EEF82F01E5007
:10019000010AD8B46AEF80F0020AD8B4B9EF80F04F
:1001A000080AD8B4B9EF80F06EEF82F021EE18F2B1
:1001B000070EDE6AE806FDE22B0EF5EC8CF00FC5AB
:1001C00018F610C519F6010EE7EC8CF00FC51AF6FB
:1001D00010C51BF6020EE7EC8CF00FC51CF610C51F
:1001E0001DF62D0EF5EC8CF00FC51EF610C51FF692
:1001F000180E0F6E060E106E16EC8AF012EF81F0DC
:100200004450D8B406EF81F008EF81F00AEF81F096
:1002100066EF80F0060E466E6EEF82F0010E466EBF
:100220006EEF82F045501E6E1F6A1F50000AD8B450
:100230001CEF81F06EEF82F01E50040AD8B400EF7C
:1002400081F00C0AD8B40EEF81F06EEF82F0000E50
:10025000106E020E0F6EF5EC8DF021EE20F2070EFF
:10026000DE6AE806FDE2000EE7EC8CF00FC520F632
:1002700010C521F6010EE7EC8CF00FC522F610C573
:1002800023F641C50FF5425093EC8AF0020E0F267B
:10029000000E10220FC5F6F410C5F7F4000EF86E2C
:1002A0000800F550F5EC8CF00FC524F610C525F6C6
:1002B000030EE7EC8CF00FC526F610C527F6200ECE
:1002C0000F6E060E106E16EC8AF0070E466E6EEF7D
:1002D00082F0000E106E070E0F6EF5EC8DF021EE21
:1002E00028F2070EDE6AE806FDE2000EE7EC8CF06D
:1002F0000FC528F610C529F641C50FF540C510F504
:1003000042505BEC86F0F5EC8CF00FC52AF610C578
:100310002BF6020EE7EC8CF00FC52CF610C52DF66F
:10032000030EE7EC8CF00FC52EF610C52FF6280E45
:100330000F6E060E106E16EC8AF0A6EF80F041C527
:100340000FF540C510F5040E116E060E126E4250E8
:1003500055EC84F0040E146E060E156ED1EC88F088
:10036000B6EF81F0090E466E6EEF82F045501E6EBC
:100370001F6A1F50000AD8B4C0EF81F06EEF82F000
:100380001E50030AD8B4B9EF80F0040AD8B4B2EF13
:1003900081F00C0AD8B4B9EF80F06EEF82F041C55D
:1003A0000FF540C510F5080E116E060E126E425084
:1003B000E8EC84F0080E146E060E156ED1EC88F091
:1003C0004450D8B4E6EF81F0E8EF81F094EF80F08C
:1003D00098EF80F0F2EC8DF0E4EC8DF00B0E466EB1
:1003E0006EEF82F04850D8A4F8EF81F0FAEF81F078
:1003F00006EF82F072EF82F04450D8B402EF82F040
:1004000004EF82F0A6EF80F062EF80F045501E6EA0
:100410001F6A1F50000AD8B410EF82F06EEF82F00E
:100420001E50050AD8B46EEF82F00F0AD8B4FCEF64
:1004300081F06EEF82F0BEC500F6BFC501F6C0C503
:1004400002F6C1C503F6000E146E060E156ED1EC51
:1004500088F0466A3F6A6EEF82F047501E6E1F6A50
:100460001F50000AD8B437EF82F06EEF82F01E50B2
:10047000000AD8B46EEF82F0010AD8B41CEF80F005
:10048000030AD8B47FEF80F0010AD8B49CEF80F063
:10049000070AD8B4AAEF80F0010AD8B4D6EF80F0EA
:1004A000030AD8B427EF81F0010AD8B469EF81F0CC
:1004B0000F0AD8B49FEF81F0010AD8B4CFEF81F0D2
:1004C000030AD8B4EAEF81F0010AD8B4F2EF81F060
:1004D000070AD8B41BEF82F06EEF82F047C545F5EE
:1004E00046C547F51200000E0C6E000E0B6E600E36
:1004F000036E050E046E020E0326000E0422D89031
:100500000B34D96E0C34DA6ED890D936DA36035003
:10051000D9260450DA22600E076E050E086ED890B8
:100520000B34E16E0C34E26ED890E136E2360750BF
:10053000E1260850E222DE50E65CDE50E658D8B0F4
:10054000A4EF82F0A6EF82F0BBEF82F0600E036EA4
:10055000050E046ED8900B34D96E0C34DA6ED89038
:10056000D936DA360350D9260450DA22DE2A000EB4
:10057000DD22FDEF82F0600E036E050E046ED89052
:100580000B34D96E0C34DA6ED890D936DA36035083
:10059000D9260450DA22600E076E050E086E020E90
:1005A0000726000E0822D8900B34E16E0C34E26E60
:1005B000D890E136E2360750E1260850E222DE50BC
:1005C000E65CDE50E658D8B0E8EF82F0EAEF82F061
:1005D000FDEF82F0600E036E050E046ED8900B34B2
:1005E000D96E0C34DA6ED890D936DA360350D92663
:1005F0000450DA22DE06000EDD5A0B500C10D8A48F
:1006000004EF83F006EF83F01EEF83F0600E036EBD
:10061000050E046ED8900B34D96E0C34DA6ED89077
:10062000D936DA360350D9260450DA22DEC401F571
:10063000DDC402F5DAEC8DF083EF83F00B040C10CF
:10064000D8A425EF83F027EF83F03FEF83F0600E0F
:10065000036E050E046ED8900B34D96E0C34DA6E2E
:10066000D890D936DA360350D9260450DA22DEC4BF
:1006700001F5DDC402F5D5EC8DF083EF83F0020EB9
:100680000B180C10D8A447EF83F049EF83F061EF0B
:1006900083F0600E036E050E046ED8900B34D96E95
:1006A0000C34DA6ED890D936DA360350D926045095
:1006B000DA22DEC401F5DDC402F5D0EC8DF083EF63
:1006C00083F0030E0B180C10D8A469EF83F06BEFC6
:1006D00083F083EF83F0600E036E050E046ED890F6
:1006E0000B34D96E0C34DA6ED890D936DA36035022
:1006F000D9260450DA22DEC401F5DDC402F5CBECC4
:100700008DF083EF83F00B4A0C2A0CBE91EF83F03F
:100710000C5009E1040E0B5CD8A091EF83F093EF2D
:1007200083F077EF82F00EEC8EF00CEC8EF012007E
:100730003A0E106E050E116E08EC8CF03A0E1C6E1F
:10074000050E1D6E700E1E6E200E1F6E93EC88F04F
:100750003A0E196E050E1A6EF40E1B6EFF0E1C6E0D
:1007600076EC87F019C52BF51AC52CF5C6EF83F08A
:100770003A0E196E050E1A6EF40E1B6EFF0E1C6EED
:1007800076EC87F019C52BF51AC52CF52B502C10DB
:10079000D8A4CDEF83F0CFEF83F0B8EF83F03A0E1B
:1007A000196E050E1A6EF40E1B6EFF0E1C6E20ECF9
:1007B00087F019C52BF51AC52CF5EDEF83F03A0E2D
:1007C000196E050E1A6EF40E1B6EFF0E1C6E20ECD9
:1007D00087F019C52BF51AC52CF52B502C10D8A471
:1007E000F4EF83F0F6EF83F0DFEF83F03A0E1D6E47
:1007F000050E1E6EA8EC8CF0700E116E070E10EC3C
:100800008DF003EC8DF0F8EC8DF097EC8CF0020E8F
:100810000F6E040E106E010E116E000E126E000EA1
:10082000B9EC8AF000EC80F005019051D8B41BEFD0
:1008300084F01DEF84F04CEF84F03A0E1C6E050E30
:100840001D6E5FEC8CF00009D8B429EF84F02BEF1B
:1008500084F04AEF84F03A0E156E050E166E300ED7
:10086000176E060E186EBFEC8BF0300E1A6E060E69
:100870001B6E2D0E1C6E050E1D6E7BEC85F036C5B5
:100880000FF537C510F538C511F539C512F53550D6
:10089000B9EC8AF00501906B000E106E010E0F6E20
:1008A000D8EC8BF012EF84F012001B6E000E1D6E60
:1008B000000E1C6E0F50060DF3C413F5F4C414F5AE
:1008C0001B501E0D090EF324156EFD0EF420166E3E
:1008D00013501524176E14501620186E1C5017262E
:1008E0001D50182217C5F6F418C5F7F4000EF86E5F
:1008F0001C501124D96E1D501220DA6E0800F5C468
:10090000DFF41C4A1D2A1DBE8FEF84F01D5009E143
:10091000040E1C5CD8A08FEF84F091EF84F05AEFA6
:1009200084F01050D8A497EF84F099EF84F0BDEFD5
:1009300084F00F50060DF3C413F5F4C414F51B50E6
:100940001E0D090EF324156EFD0EF420166E1350C5
:100950001524176E14501620186E040E1726000E5C
:10096000182217C5F6F418C5F7F4000EF86E080043
:10097000F550196E1A6ADFEF84F00F50060DF3C4BC
:1009800013F5F4C414F51B501E0D090EF324156E57
:10099000FD0EF420166E13501524176E14501620F9
:1009A000186E050E1726000E182217C5F6F418C586
:1009B000F7F4000EF86E0800F550196E1A6A20EE72
:1009C00001F01150D9261250DA2219C5DFF41200B5
:1009D0001B6E000E1D6E000E1C6E0F50060DF3C434
:1009E00013F5F4C414F51B501E0DEA0EF324156E16
:1009F000FD0EF420166E13501524176E1450162099
:100A0000186E1C5017261D50182217C5F6F418C56D
:100A1000F7F4000EF86E1C501124D96E1D501220F0
:100A2000DA6E0800F5C4DFF41C4A1D2A1DBE22EF51
:100A300085F01D5009E1040E1C5CD8A022EF85F062
:100A400024EF85F0EDEF84F01050D8A42AEF85F064
:100A50002CEF85F050EF85F00F50060DF3C413F521
:100A6000F4C414F51B501E0DEA0EF324156EFD0E92
:100A7000F420166E13501524176E14501620186E9D
:100A8000040E1726000E182217C5F6F418C5F7F441
:100A9000000EF86E0800F550196E1A6A72EF85F0B4
:100AA0000F50060DF3C413F5F4C414F51B501E0DBE
:100AB000EA0EF324156EFD0EF420166E1350152465
:100AC000176E14501620186E050E1726000E1822E9
:100AD00017C5F6F418C5F7F4000EF86E0800F550C7
:100AE000196E1A6A20EE01F01150D9261250DA223E
:100AF00019C5DFF412001A501B10D8B482EF85F02C
:100B000084EF85F0F5EF85F01C501D10D8A48BEF15
:100B100085F08DEF85F08FEF85F0F5EF85F01CC542
:100B20000FF51DC510F51AC511F51BC512F5000E00
:100B3000146E080E136E6BEC8AF020EE08F01A505B
:100B4000D9261B50DA2210EE08F01C50E1261D5069
:100B5000E222DFC4E7F420EE09F01A50D9261B5038
:100B6000DA2210EE09F01C50E1261D50E222DFC40B
:100B7000E7F420EE0AF01A50D9261B50DA2210EEC4
:100B80000AF01C50E1261D50E222DFC4E7F420EEFB
:100B90000BF01C50D9261D50DA2210EE0BF01A5023
:100BA000E1261B50E222E750D8A4D9EF85F0DCEF14
:100BB00085F0010EDDEF85F0000EDF6E20EE0CF00B
:100BC0001C50D9261D50DA2210EE0CF01A50E126E6
:100BD0001B50E222E750D8A4F0EF85F0F3EF85F048
:100BE000010EF4EF85F0000EDF6E12000F6E0001B3
:100BF00084BFFDEF85F0FFEF85F05AEF86F00F50D0
:100C0000050DDB0EF324F66EFD0EF420F76EF86A88
:100C1000000EF8220800F5C484F00F50050D010EF7
:100C2000F326000EF422DB0EF324F66EFD0EF42004
:100C3000F76EF86A000EF8220800F5C485F00F5030
:100C4000050D020EF326000EF422DB0EF324F66EE1
:100C5000FD0EF420F76EF86A000EF8220800F55039
:100C6000FC0B866F0F50050D030EF326000EF422C9
:100C7000DB0EF324F66EFD0EF420F76EF86A000E1C
:100C8000F8220800F5C489F00F50050D040EF32674
:100C9000000EF422DB0EF324F66EFD0EF420F76E48
:100CA000F86A000EF8220800F5C48CF0C896848F0C
:100CB0005AEF86F01200196E050E196062EF86F089
:100CC00064EF86F0BDEF86F0050E0F606AEF86F0E8
:100CD0006CEF86F0BDEF86F01050D8A472EF86F06E
:100CE00074EF86F098EF86F00F50060DF3C411F5FF
:100CF000F4C412F519501E0DEA0EF324136EFD0E06
:100D0000F420146E11501324156E12501420166E18
:100D1000040E1526000E162215C5F6F416C5F7F4B6
:100D2000000EF86E0800F550176E186ABAEF86F0DC
:100D30000F50060DF3C411F5F4C412F519501E0D31
:100D4000EA0EF324136EFD0EF420146E11501324DA
:100D5000156E12501420166E050E1526000E162262
:100D600015C5F6F416C5F7F4000EF86E0800F55038
:100D7000176E186A1750BEEF86F0000E1200BE6A9A
:100D8000BF6AC06AC16AC26AC36A0401026B0A6BA5
:100D9000126B1A6B226B2A6BC668F00EC76E8E0E32
:100DA000C86EC9680F0ECA6ECB6800690869810EEB
:100DB000106F1869070E206F2869016B096B116BA2
:100DC000196B216B296B03690B6913691B69070E8A
:100DD000236F2B6904690C6914691C690F0E246F59
:100DE0002C690201896B886B876B866B120E6B6FA7
:100DF000320E156F1C0E0C6F1D0E0B6F1A0E0A6F44
:100E00001B0E096F180E116F130E6A6F310E146FDF
:100E10000401056B066B076B0D6B0E6B0F6B156B8F
:100E2000020E166F176B256B266B276B260E0F6E47
:100E30001C0E106E010E116EA9EC8DF09E8E12002C
:100E4000000E266E000E256E1BC515F51CC516F589
:100E5000050E176E0A0EA6EC8BF01BC515F51CC50A
:100E600016F5050E176E100EA6EC8BF0200E156E03
:100E7000050E166E050E176E0A0EF0EC8BF0000EC6
:100E8000286E000E276E200E2724D96E050E28200E
:100E9000DA6E27501B241E6E28501C201F6E1EC5A4
:100EA000F6F41FC5F7F4000EF86EDE500900F518D1
:100EB000D8B45DEF87F05FEF87F061EF87F02568CA
:100EC0002668274A282A28BE6FEF87F0285009E1B4
:100ED000050E275CD8A06FEF87F071EF87F043EF26
:100EE00087F025C519F526C51AF51200000E266EE5
:100EF000000E256E1BC515F51CC516F5050E176EE3
:100F00000B0EA6EC8BF0200E156E050E166E050E60
:100F1000176E0B0EF0EC8BF0000E286E000E276E95
:100F2000200E2724D96E050E2820DA6E27501B24A8
:100F30001E6E28501C201F6E1EC5F6F41FC5F7F448
:100F4000000EF86EDE500900F518D8B4AAEF87F04D
:100F5000ACEF87F0AEEF87F025682668274A282A8D
:100F600028BEBCEF87F0285009E1050E275CD8A009
:100F7000BCEF87F0BEEF87F090EF87F025C519F53D
:100F800026C51AF51200000E186E000E176E600EC0
:100F90000F6E050E106E020E0F26000E1022D89056
:100FA0001734D96E1834DA6ED890D936DA360F5035
:100FB000D9261050DA22600E136E050E146ED890EA
:100FC0001734E16E1834E26ED890E136E2361350F1
:100FD000E1261450E222DE50E61809E1DE50E61860
:100FE000D8B4F5EF87F0F7EF87F0FAEF87F0010E4E
:100FF0000BEF88F0174A182A18BE08EF88F018502F
:1010000009E1040E175CD8A008EF88F00AEF88F019
:10101000C7EF87F0000E1200720EF66E190EF76E13
:10102000010EF86E01EE50F210EE20F00900F5C44A
:10103000EEF4E550E150FAE1B20EF66E190EF76EDD
:10104000010EF86E01EEBEF110EE1CF00900F5C4C1
:10105000EEF4E550E150FAE1200EF66E1C0EF76E4C
:10106000010EF86E0900F5C448F50900F5C449F50C
:1010700001EE30F2200EEE6AE806FDE101EE60F1CD
:10108000310EEE6AE806FDE101EE3DF10B0EEE6A6F
:10109000E806FDE10401080E5D6F000E5E6F000EB4
:1010A0005F6F00018DEF8BF0FAC40DF5FBC40EF5F8
:1010B0009EAE5DEF88F05FEF88F06AEF88F0AEAE2D
:1010C00064EF88F066EF88F06AEF88F033EC8DF01B
:1010D0008EEF88F0A1AE6FEF88F071EF88F07CEFB3
:1010E00088F0B1AE76EF88F078EF88F07CEF88F08A
:1010F0001FEC8BF08EEF88F0A1A681EF88F083EFD4
:1011000088F08EEF88F0B1A688EF88F08AEF88F03B
:101110008EEF88F0C9EC8CF08EEF88F00EC5FBF4F2
:101120000DC5FAF4110020EE01F01C50D9261D5017
:10113000DA221EC5DFF420EE02F01C50D9261D5025
:10114000DA221FC5DFF41CC519F51DC51AF528ECF8
:101150008DF01EC511F5050E10EC8DF020EE02F09D
:101160001C50D9261D50DA22DF50116E110E10ECE2
:101170008DF020EE02F01C50D9261D50DA22DF50EF
:10118000116E120E10EC8DF01CC513F51DC514F573
:1011900085EC8CF01CC511F51DC512F5C5EC8DF064
:1011A000120014501510D8B4D8EF88F0DAEF88F098
:1011B00009EF89F0186A18501424166E000E1520D5
:1011C000176E16C5F6F417C5F7F4000EF86E250E67
:1011D000F76403D00800F55005D0F6C4E9F4F7C46D
:1011E000EAF4EF50F5EC8CF01850040D620EF32485
:1011F000D96E050EF420DA6E0FC5DEF410C5DDF4ED
:10120000182A030E186407EF89F009EF89F0DBEF65
:1012100088F012002B0EF5EC8CF00FC560F510C5B0
:1012200061F52B0EF5EC8CF00FC562F510C563F57A
:101230002D0EF5EC8CF00FC564F510C565F52D0E7F
:10124000F5EC8CF00FC566F510C567F5190EF5ECD9
:101250008CF00FC568F510C569F5190EF5EC8CF02A
:101260000FC56AF510C56BF52D0EF5EC8CF00FC5AA
:101270006CF510C56DF52D0EF5EC8CF00FC56EF507
:1012800010C56FF51200020E1B6449EF89F04BEF99
:1012900089F04DEF89F079EF89F01C0E156E050E7F
:1012A000166E010E176E060EF0EC8BF0020E1B1878
:1012B000D8A45DEF89F05FEF89F06CEF89F01C50E6
:1012C00020091C6E1C50F70B1C6E1CC511F5060E78
:1012D00010EC8DF079EF89F01C50D70B1C6E1B3889
:1012E000E842F80B1C101C6E1CC511F5060E10EC24
:1012F0008DF012007E6A020E7F6E806A8168F90EA0
:10130000826E130E836E846A856A866A886A896A29
:101310007D0E8A6E8B6A7D0E8C6EB59CB59E859017
:101320008592A59EA59C000E0F6E000E106E000EFD
:10133000116E71EC8DF0000E0F6E000E106E000E2F
:10134000116E6AEC8DF0000E0F6E000E106E000E26
:10135000116E78EC8DF0800E876E12006F6A020EAF
:10136000706E716A7268F90E736E130E746E756A20
:10137000766A776A796A7A6A7D0E7B6E7C6A7D0E00
:101380007D6EB39CB39E76907692A39EA39C000E36
:101390000F6E000E106E000E116E86EC8DF0000EBA
:1013A0000F6E000E106E000E116E7FEC8DF0000EB1
:1013B0000F6E000E106E000E116E8DEC8DF0800E13
:1013C000786E1200606A020E616E626A7F0E636E52
:1013D000646A130E656E666A676A686A6A6A330EC3
:1013E0006B6E6C6A330E6D6E6E6AB29CB29E6790C5
:1013F0006792A29EA29C000E0F6E000E106E000E51
:10140000116E9BEC8DF0000E0F6E000E106E000E34
:10141000116E94EC8DF0000E0F6E000E106E000E2B
:10142000116EA2EC8DF0800E696E12000F5010103C
:10143000D8B41DEF8AF01FEF8AF041EF8AF0136AEB
:101440001350020DF3C411F5F4C412F511500F241A
:10145000D96E12501020DA6E1350040D620EF32470
:10146000E16E050EF420E26EDEC4E6F4DDC4E5F4C0
:10147000132A030E13643FEF8AF041EF8AF020EF46
:101480008AF012004CEF8AF0AA0EE82EFED700D0A8
:10149000200E0F5E000E105A105007E1200E0F5C58
:1014A000D8B055EF8AF057EF8AF044EF8AF05DEF3D
:1014B0008AF0050EE82EFED700000F06D8A0100611
:1014C0000F2806E11028D8A468EF8AF06AEF8AF0A6
:1014D00059EF8AF0120011C518F512C519F50FC59C
:1014E00016F510C517F585EF8AF018C5D9F419C59A
:1014F000DAF4DF50156E184A192A16C5D9F417C543
:10150000DAF415C5DFF4164A172A1306D8A0140614
:10151000132806E11428D8A490EF8AF092EF8AF0FD
:1015200075EF8AF01200166E050E16609AEF8AF0BB
:101530009CEF8AF0B8EF8AF0050E0F60A2EF8AF0F8
:10154000A4EF8AF0B8EF8AF00F50060DF3C412F53D
:10155000F4C413F516501E0DEA0EF324146EFD0E9E
:10156000F420156E125014240F6E13501520106EB7
:101570001200136E4750D8A4C0EF8AF0C2EF8AF071
:10158000DCEF8AF013C543F50FC542F510C541F5F0
:1015900011C540F512C544F51250D8B4D2EF8AF007
:1015A000D4EF8AF0D8EF8AF0060E476EDAEF8AF0B1
:1015B000010E476E010E3F6E1200C09C146AF4EFDC
:1015C0008AF011C5F6F412C5F7F4000EF86E0800A3
:1015D000F55034EC8CF0114A122A000E106E0A0EEF
:1015E0000F6E42EC8AF0142A1350145CD8A0FBEF63
:1015F0008AF0FDEF8AF0E1EF8AF0C08C1200D69AF3
:10160000AF90D680000E0F6E000E106E000E116EA1
:10161000BEEC8DF0B490D682000E0F6E000E106EF0
:10162000000E116EB7EC8DF0B890D684000E0F6EE0
:10163000000E106E000E116EB0EC8DF012003E50D8
:101640000301196F3DC518F30501945195119611C9
:10165000D8B42DEF8BF02FEF8BF03CEF8BF002D84E
:101660003CEF8BF00500FA6E9451FD6E9551FE6EC5
:101670009651FF6EFA501200B19E12000501A05162
:10168000A111A211D8B447EF8BF049EF8BF056EFC0
:101690008BF002D856EF8BF00500FA6EA051FD6E6C
:1016A000A151FE6EA251FF6EFA5012000401179371
:1016B0001200C09C146A68EF8BF0FF0E34EC8CF0C3
:1016C00011C5D9F412C5DAF4DF6E114A122A142AB0
:1016D0001350145CD8A06FEF8BF071EF8BF05DEFBF
:1016E0008BF0C08C1200C20E0301196FF70E186F39
:1016F0007C0E1B6F19510F6E18513D6E0FC53EF5D4
:10170000240E0501946F1C0E956F010E966FB19E0D
:10171000A18E900E03011A6F120072EC8CF0D00EA5
:101720000F6E1B0E106E010E116EA9EC8DF0D68E91
:10173000FEEC8DF0FBEC8DF00AEC8EF0000E296EC5
:10174000000E2A6E98EC83F00DEF00F0186E175023
:10175000D8B4ADEF8BF0AFEF8BF0BEEF8BF0C09C49
:1017600018501F0B200934EC8CF015C511F516C567
:1017700012F517C513F5DDEC8AF0C08C1200C09C81
:10178000610E34EC8CF017C511F518C512F520EE7A
:1017900002F01550D9261650DA22DF50136E59EC9C
:1017A0008BF0C08C400E116E070E10EC8DF0120005
:1017B000E2EF8BF0150E116EC60EE82EFED7112E3D
:1017C000FCD700D00F06D8A010060F2806E110287D
:1017D000D8A4EDEF8BF0EFEF8BF0DAEF8BF0120087
:1017E000186E1750D8B4F7EF8BF0F9EF8BF007EFC6
:1017F0008CF0C09C18501F0B34EC8CF015C511F503
:1018000016C512F517C513F559EC8BF0C08C1200F4
:10181000000EF6EC85F020EE01F01050D9261150A4
:10182000DA22730EDF6E20EE02F01050D92611502E
:10183000DA22200EDF6EC89CC89A12001C0E156EAC
:10184000050E166E010E176E040EF0EC8BF01C5098
:101850000F0B1C6E1B38F00B1C101C6E1CC511F5F9
:10186000040E10EC8DF012000F6E0001878586517A
:101870000309866F836B010E826F0FC581F0B1A0E3
:1018800044EF8CF046EF8CF03FEF8CF080C010F509
:1018900010501200030E0301266F256B276B0F0EED
:1018A000236F226B220E0F6E1C0E106E010E116E36
:1018B00063EC8DF0B196A1860301246912001CC56A
:1018C00019F51DC51AF528EC8DF01E6E1EAC6BEFD8
:1018D0008CF06DEF8CF070EF8CF0010E71EF8CF0EE
:1018E000000E120052EC8DF0BFEC86F073EC8BF022
:1018F000E2EC89F0AEEC89F07AEC89F01CEC8DF02A
:101900004AEC8CF0FFEC8AF0120013C5D9F414C530
:10191000DAF4DF6AC09A2B0E116E000E10EC8DF017
:10192000C08A300E116E070E10EC8DF012000AEC1A
:1019300089F0456A466A476A3F6A010E496EBE0EE3
:101940000F6E1B0E106E010E116E5CEC8DF012000E
:101950001DC519F51EC51AF5000E1B6E43EC89F066
:101960001DC519F51EC51AF5640E1B6E1EEC8CF014
:10197000120050415F4D494E000050415F4C4F579F
:10198000000050415F484947480050415F4D415871
:101990000000B19602D8D8EF8CF00500FA6E050170
:1019A0009151FD6E9251FE6E9351FF6EFA501200EE
:1019B00012002B2D192D314D627073000000324D35
:1019C0006270730000003235304B62707300116E2C
:1019D0001150040D620EF324D96E050EF420DA6E58
:1019E000DEC40FF5DDC410F51200136E1350210D87
:1019F000F3C411F5F4C412F5E00E11240F6E060EB7
:101A00001220106E120006EC8EF004EC8EF0E60E42
:101A10000F6E040E106E010E116E63EC8DF012004D
:101A2000126EC09C12501F0B200934EC8CF0115028
:101A300034EC8CF0C08C1200A194A192A190000112
:101A4000846B040E856F866B896B8C6B87851200A7
:101A50001B0E156E050E166E010E176E070EF0ECBE
:101A60008BF01B501200040117A339EF8DF03BEFF0
:101A70008DF03DEF8DF03EEC8BF01200126E1250A7
:101A8000040D9E0EF3240F6EFE0EF420106E120055
:101A9000126E1250040DAE0EF3240F6EFE0EF420E3
:101AA000106E1200600E0001AD6FAF6BB36B080ECD
:101AB000B16FB06BAC6B12000FC594F510C595F506
:101AC00011C596F512000FC591F510C592F511C517
:101AD00093F512000FC5A6F510C5A7F511C5A8F519
:101AE00012000FC5A9F510C5AAF511C5ABF5120076
:101AF0000FC5A3F510C5A4F511C5A5F512000FC5B6
:101B0000AFF510C5B0F511C5B1F512000FC5B2F5AE
:101B100010C5B3F511C5B4F512000FC5ACF510C56D
:101B2000ADF511C5AEF512000FC5B8F510C5B9F584
:101B300011C5BAF512000FC5BBF510C5BCF511C52E
:101B4000BDF512000FC5B5F510C5B6F511C5B7F551
:101B500012000FC5A0F510C5A1F511C5A2F5120020
:101B60000FC597F510C598F511C599F512000FC569
:101B70009AF510C59BF511C59CF512000FC59DF592
:101B800010C59EF511C59FF51200C09CE20E34EC05
:101B90008CF0C08C120001C58BF402508C6E1200C8
:101BA00001C589F402508A6E120001C57CF402500E
:101BB0007D6E120001C57AF402507B6E1200010E98
:101BC000486E01EC8EF01200486AECEC8DF01200C9
:101BD000010E0501906F120003011A8F120008EC2C
:101BE0008EF012000AEC8EF012000FC523F31200E3
:101BF0000301248F12000301249F120003011A9F86
:101C0000120003011A9F1200878E1200788E1200B4
:101C1000698E1200699E1200878412007884120077
:081C2000010112001200120084
:020000040030CA
:080000008FFFF7FF9FFFFFFFD8
:01000900FFF7
:00000001FF
