:040000000DEF00F010
:0400080036EF88F057
:06001800FF00EEEF87F08F
:10FD0800001E6EA11E6E6E286E99286E6E326E945D
:10FD18003C6E6E3C6E91466E6E503C8E50963C1416
:10FD28006E90146E6E1E6E8C286E6E326E8A326EF7
:10FD38006E3C6E87466E6E502287508C221E6E7DFA
:10FD4800146E6E1E6E7D1E6E6E286E7E326E6E3C5A
:10FD58006E7E466E6E501C7F3C841C1E6E681E6E46
:10FD68006E286E6E286E6E326E72326E6E3C6E74D7
:10FD7800466E6E50AD745084171E6E571E6E6E28F8
:10FD88006E60326E6E326E663C6E6E466E6B466E9E
:10FD98006E5AAD6D5A6E6EFC1901000000B00B0171
:10FDA8000000000000000000000000002C18010006
:10FDB800000000000000000000000000000000003B
:10FDC80000581801AE1B01B41B010000008A1A017B
:10FDD80000000002C000FF0002C000FF0002400057
:10FDE8000000176EA1256E6E1E6E99306E6E2C6E19
:10FDF80094416E6E3B6E914F6E6E4A3C8E5B963CA4
:10FE0800126E901D6E6E1C6E8C2E6E6E286E8A3C65
:10FE18006E6E386E874C6E6E4822875A8C22126E30
:10FE28007D1E6E6E1A6E7D2B6E6E266E7E3A6E6E1F
:10FE3800376E7E4B6E6E471C7F5B841C156E682385
:10FE48006E6E1E6E6E306E6E286E723C6E6E386E02
:10FE5800744D6E6E49AD745B84171A6E572B6E6EB7
:10FE6800226E60376E6E2E6E66436E6E3C6E6B5001
:10FE78006E6E50AD6D5E6E6E44697361626C6564E2
:10FE88000000382062697473000000003136206277
:10FE98006974730000001E2D281E462D0E463C2D49
:10FEA800163C462D2046172D282A402D0E542A2D63
:10FEB80016433D2D20515354415455530909203DB3
:10FEC800203078253032782052585F44523D2578CA
:10FED8002054585F44533D2578204D41585F525473
:10FEE8003D25782052585F505F4E4F3D257820546D
:10FEF800585F46554C4C3D25780D0A003D3D3D3D2B
:10FF08003D3D3D3D3D3D3D3D3D3D3D3D204E524607
:10FF180020436F6E66696775726174696F6E203D04
:10FF28003D3D3D3D3D3D3D3D3D3D3D3D3D3D3D0A2C
:10FF38000052657472616E736D697409203D2025E5
:10FF4800642075730A00435243204C656E677468D9
:10FF580009203D2025730A004461746120526174B0
:10FF68006509203D2025730A00504120506F7765B0
:10FF78007209203D2025730A0044594E50442F46EB
:10FF88004541545552450052585F414444525F50D0
:10FF9800302D310052585F414444525F50322D3564
:10FFA8000052585F50575F50302D3600454E5F5213
:10FFB80058414444520054585F4144445209005245
:10FFC800465F534554555000434F4E464947090034
:10FFD8002030782530327800454E5F414109005283
:10FFE800465F43480900257309203D0034524543C4
:07FFF80056002030780000E4
:020000040001F9
:100000003F50D8B406EF80F008EF80F054EF82F054
:10001000A5EC87F00009D8B410EF80F012EF80F063
:100020000FEF82F054EF82F021EE10F2070EDE6A3D
:10003000E806FDE2000EC9EC8CF00FC510F610C505
:1000400011F6010EC9EC8CF00FC512F610C513F6AF
:1000500043502AEC8DF0020E0F26000E10220FC521
:10006000F6F410C5F7F4000EF86E0800F550D7EC62
:100070008CF00FC514F610C515F6030EC9EC8CF004
:100080000FC516F610C517F6100E0F6E060E106E81
:10009000F8EC89F060EF80F04450D8B452EF80F073
:1000A00054EF80F058EF80F0040E466E50EF82F06F
:1000B0000C0E466E50EF82F0020E466E50EF82F04C
:1000C00045501E6E1F6A1F50000AD8B46AEF80F0B8
:1000D0005CEF80F01E50050AD8B44CEF80F05CEF66
:1000E00080F043502AEC8DF00FC50CF610C50DF6CC
:1000F0000CC614F50DC615F5B3EC88F04450D8B411
:1001000084EF80F086EF80F08AEF80F00A0E466E72
:1001100050EF82F0030E466E50EF82F0D1EC8DF07E
:100120004450D8B496EF80F098EF80F054EF80F010
:10013000080E466E50EF82F0435020EC8DF00FC554
:100140000EF610C50FF60EC614F50FC615F5B3EC76
:1001500088F0AFEF80F0050E466E50EF82F045500C
:100160001E6E1F6A1F50000AD8B4B9EF80F050EF1E
:1001700082F01E50010AD8B45CEF80F0020AD8B4B5
:10018000ABEF80F0080AD8B4ABEF80F050EF82F00C
:1001900021EE18F2070EDE6AE806FDE22B0ED7EC20
:1001A0008CF00FC518F610C519F6010EC9EC8CF0CD
:1001B0000FC51AF610C51BF6020EC9EC8CF00FC560
:1001C0001CF610C51DF62D0ED7EC8CF00FC51EF6D3
:1001D00010C51FF6180E0F6E060E106EF8EC89F0A3
:1001E00004EF81F04450D8B4F8EF80F0FAEF80F0DB
:1001F000FCEF80F058EF80F0060E466E50EF82F074
:10020000010E466E50EF82F045501E6E1F6A1F5061
:10021000000AD8B40EEF81F050EF82F01E50040AAD
:10022000D8B4F2EF80F00C0AD8B400EF81F050EFB0
:1002300082F021EE20F2070EDE6AE806FDE2000EF3
:10024000C9EC8CF00FC520F610C521F6010EC9ECE3
:100250008CF00FC522F610C523F641C50FF54250AC
:1002600075EC8AF0020E0F26000E10220FC5F6F470
:1002700010C5F7F4000EF86E0800F550D7EC8CF0BE
:100280000FC524F610C525F6030EC9EC8CF00FC57A
:1002900026F610C527F6200E0F6E060E106EF8EC2F
:1002A00089F0070E466E50EF82F021EE28F2070E1D
:1002B000DE6AE806FDE2000EC9EC8CF00FC528F6F8
:1002C00010C529F641C50FF540C510F542503DEC6B
:1002D00086F0D7EC8CF00FC52AF610C52BF6020E6F
:1002E000C9EC8CF00FC52CF610C52DF6030EC9EC29
:1002F0008CF00FC52EF610C52FF6280E0F6E060EC9
:10030000106EF8EC89F098EF80F041C50FF540C50C
:1003100010F5040E116E060E126E425037EC84F08A
:10032000040E146E060E156EB3EC88F09CEF81F08F
:10033000090E466E50EF82F045501E6E1F6A1F5028
:10034000000AD8B4A6EF81F050EF82F01E50030AE5
:10035000D8B4ABEF80F0040AD8B498EF81F00C0A5F
:10036000D8B4ABEF80F050EF82F041C50FF540C537
:1003700010F5080E116E060E126E4250CAEC84F093
:10038000080E146E060E156EB3EC88F04450D8B407
:10039000CCEF81F0CEEF81F086EF80F08AEF80F035
:1003A000D4EC8DF0C6EC8DF00B0E466E50EF82F063
:1003B0004850D8A4DEEF81F0E0EF81F0ECEF81F05F
:1003C00054EF82F04450D8B4E8EF81F0EAEF81F0C6
:1003D00098EF80F054EF80F045501E6E1F6A1F505A
:1003E000000AD8B4F6EF81F050EF82F01E500A0AEE
:1003F000D8B4E2EF81F050EF82F0BEC500F6BFC581
:1004000001F6C0C502F6C1C503F6000E146E060E55
:10041000156EB3EC88F0466A3F6A50EF82F04750A1
:100420001E6E1F6A1F50000AD8B419EF82F050EFF9
:1004300082F01E50000AD8B450EF82F0010AD8B4FE
:1004400014EF80F0030AD8B471EF80F0010AD8B439
:100450008EEF80F0070AD8B49CEF80F0010AD8B480
:10046000C8EF80F0030AD8B419EF81F0010AD8B4BC
:1004700055EF81F00F0AD8B485EF81F0010AD8B4A6
:10048000B5EF81F0030AD8B4D0EF81F0010AD8B4F7
:10049000D8EF81F0070AD8B4FDEF81F050EF82F079
:1004A00047C545F546C547F51200000E0C6E000E17
:1004B0000B6E600E036E050E046E020E0326000E18
:1004C0000422D8900B34D96E0C34DA6ED890D93619
:1004D000DA360350D9260450DA22600E076E050E74
:1004E000086ED8900B34E16E0C34E26ED890E13691
:1004F000E2360750E1260850E222DE50E65CDE508C
:10050000E658D8B086EF82F088EF82F09DEF82F057
:10051000600E036E050E046ED8900B34D96E0C3449
:10052000DA6ED890D936DA360350D9260450DA225A
:10053000DE2A000EDD22DFEF82F0600E036E050E74
:10054000046ED8900B34D96E0C34DA6ED890D9364C
:10055000DA360350D9260450DA22600E076E050EF3
:10056000086E020E0726000E0822D8900B34E16EAA
:100570000C34E26ED890E136E2360750E12608509E
:10058000E222DE50E65CDE50E658D8B0CAEF82F0D8
:10059000CCEF82F0DFEF82F0600E036E050E046E8A
:1005A000D8900B34D96E0C34DA6ED890D936DA364E
:1005B0000350D9260450DA22DE06000EDD5A0B5015
:1005C0000C10D8A4E6EF82F0E8EF82F000EF83F0A1
:1005D000600E036E050E046ED8900B34D96E0C3489
:1005E000DA6ED890D936DA360350D9260450DA229A
:1005F000DEC401F5DDC402F5BCEC8DF065EF83F0DF
:100600000B040C10D8A407EF83F009EF83F021EF5F
:1006100083F0600E036E050E046ED8900B34D96E15
:100620000C34DA6ED890D936DA360350D926045015
:10063000DA22DEC401F5DDC402F5B7EC8DF065EF1A
:1006400083F0020E0B180C10D8A429EF83F02BEFC7
:1006500083F043EF83F0600E036E050E046ED890B6
:100660000B34D96E0C34DA6ED890D936DA360350A2
:10067000D9260450DA22DEC401F5DDC402F5B2EC5D
:100680008DF065EF83F0030E0B180C10D8A44BEF20
:1006900083F04DEF83F065EF83F0600E036E050E7F
:1006A000046ED8900B34D96E0C34DA6ED890D936EB
:1006B000DA360350D9260450DA22DEC401F5DDC44F
:1006C00002F5ADEC8DF065EF83F00B4A0C2A0CBE01
:1006D00073EF83F00C5009E1040E0B5CD8A073EFAC
:1006E00083F075EF83F059EF82F0EDEC8DF0EBECD9
:1006F0008DF012003A0E106E050E116EEAEC8BF0C2
:100700003A0E1C6E050E1D6E700E1E6E200E1F6EB4
:1007100075EC88F03A0E196E050E1A6EF40E1B6E0B
:10072000FF0E1C6E58EC87F019C52BF51AC52CF579
:10073000A8EF83F03A0E196E050E1A6EF40E1B6EBA
:10074000FF0E1C6E58EC87F019C52BF51AC52CF559
:100750002B502C10D8A4AFEF83F0B1EF83F09AEFB9
:1007600083F03A0E196E050E1A6EF40E1B6EFF0E14
:100770001C6E02EC87F019C52BF51AC52CF5CFEFCE
:1007800083F03A0E196E050E1A6EF40E1B6EFF0EF4
:100790001C6E02EC87F019C52BF51AC52CF52B50F1
:1007A0002C10D8A4D6EF83F0D8EF83F0C1EF83F0FC
:1007B0003A0E1D6E050E1E6E8AEC8CF0700E116ED8
:1007C000070EF2EC8CF0E5EC8CF0D7EC8DF079ECC8
:1007D0008CF0020E0F6E040E106E010E116E000EE4
:1007E000126E000E9BEC8AF000EC80F00501905137
:1007F000D8B4FDEF83F0FFEF83F02EEF84F03A0ED4
:100800001C6E050E1D6E41EC8CF00009D8B40BEF88
:1008100084F00DEF84F02CEF84F03A0E156E050E87
:10082000166E300E176E060E186EA1EC8BF0300EA1
:100830001A6E060E1B6E2D0E1C6E050E1D6E5DECE7
:1008400085F036C50FF537C510F538C511F539C532
:1008500012F535509BEC8AF00501906B000E106E7E
:10086000010E0F6EBAEC8BF0F4EF83F012001B6EEA
:10087000000E1D6E000E1C6E0F50060DF3C413F516
:10088000F4C414F51B501E0D090EF324156EFD0E55
:10089000F420166E13501524176E14501620186E7F
:1008A0001C5017261D50182217C5F6F418C5F7F46A
:1008B000000EF86E1C501124D96E1D501220DA6EF5
:1008C0000800F5C4DFF41C4A1D2A1DBE71EF84F038
:1008D0001D5009E1040E1C5CD8A071EF84F073EF89
:1008E00084F03CEF84F01050D8A479EF84F07BEFD3
:1008F00084F09FEF84F00F50060DF3C413F5F4C499
:1009000014F51B501E0D090EF324156EFD0EF42078
:10091000166E13501524176E14501620186E040E00
:100920001726000E182217C5F6F418C5F7F4000EA6
:10093000F86E0800F550196E1A6AC1EF84F00F5076
:10094000060DF3C413F5F4C414F51B501E0D090E67
:10095000F324156EFD0EF420166E13501524176E39
:1009600014501620186E050E1726000E182217C5F3
:10097000F6F418C5F7F4000EF86E0800F550196E7D
:100980001A6A20EE01F01150D9261250DA2219C548
:10099000DFF412001B6E000E1D6E000E1C6E0F5059
:1009A000060DF3C413F5F4C414F51B501E0DEA0E26
:1009B000F324156EFD0EF420166E13501524176ED9
:1009C00014501620186E1C5017261D50182217C5DB
:1009D000F6F418C5F7F4000EF86E1C501124D96E09
:1009E0001D501220DA6E0800F5C4DFF41C4A1D2ADF
:1009F0001DBE04EF85F01D5009E1040E1C5CD8A05B
:100A000004EF85F006EF85F0CFEF84F01050D8A406
:100A10000CEF85F00EEF85F032EF85F00F50060DEC
:100A2000F3C413F5F4C414F51B501E0DEA0EF324A1
:100A3000156EFD0EF420166E13501524176E14500B
:100A40001620186E040E1726000E182217C5F6F48D
:100A500018C5F7F4000EF86E0800F550196E1A6A02
:100A600054EF85F00F50060DF3C413F5F4C414F5DC
:100A70001B501E0DEA0EF324156EFD0EF420166EAB
:100A800013501524176E14501620186E050E1726D5
:100A9000000E182217C5F6F418C5F7F4000EF86E0C
:100AA0000800F550196E1A6A20EE01F01150D9268F
:100AB0001250DA2219C5DFF412001A501B10D8B4F4
:100AC00064EF85F066EF85F0D7EF85F01C501D10C0
:100AD000D8A46DEF85F06FEF85F071EF85F0D7EF5B
:100AE00085F01CC50FF51DC510F51AC511F51BC500
:100AF00012F5000E146E080E136E4DEC8AF020EE07
:100B000008F01A50D9261B50DA2210EE08F01C50BB
:100B1000E1261D50E222DFC4E7F420EE09F01A506E
:100B2000D9261B50DA2210EE09F01C50E1261D5088
:100B3000E222DFC4E7F420EE0AF01A50D9261B5057
:100B4000DA2210EE0AF01C50E1261D50E222DFC42A
:100B5000E7F420EE0BF01C50D9261D50DA2210EEDF
:100B60000BF01A50E1261B50E222E750D8A4BBEF4D
:100B700085F0BEEF85F0010EBFEF85F0000EDF6E51
:100B800020EE0CF01C50D9261D50DA2210EE0CF08D
:100B90001A50E1261B50E222E750D8A4D2EF85F08C
:100BA000D5EF85F0010ED6EF85F0000EDF6E120056
:100BB0000F6E000184BFDFEF85F0E1EF85F03CEFC1
:100BC00086F00F50050DDB0EF324F66EFD0EF420BB
:100BD000F76EF86A000EF8220800F5C484F00F5092
:100BE000050D010EF326000EF422DB0EF324F66E43
:100BF000FD0EF420F76EF86A000EF8220800F5C426
:100C000085F00F50050D020EF326000EF422DB0EC8
:100C1000F324F66EFD0EF420F76EF86A000EF8224B
:100C20000800F550FC0B866F0F50050D030EF326E0
:100C3000000EF422DB0EF324F66EFD0EF420F76EA8
:100C4000F86A000EF8220800F5C489F00F50050D6F
:100C5000040EF326000EF422DB0EF324F66EFD0ED6
:100C6000F420F76EF86A000EF8220800F5C48CF044
:100C7000C896848F3CEF86F01200196E050E19603D
:100C800044EF86F046EF86F09FEF86F0050E0F608A
:100C90004CEF86F04EEF86F09FEF86F01050D8A410
:100CA00054EF86F056EF86F07AEF86F00F50060D7F
:100CB000F3C411F5F4C412F519501E0DEA0EF32415
:100CC000136EFD0EF420146E11501324156E125085
:100CD0001420166E040E1526000E162215C5F6F405
:100CE00016C5F7F4000EF86E0800F550176E186A76
:100CF0009CEF86F00F50060DF3C411F5F4C412F505
:100D000019501E0DEA0EF324136EFD0EF420146E1E
:100D100011501324156E12501420166E050E152650
:100D2000000E162215C5F6F416C5F7F4000EF86E7F
:100D30000800F550176E186A1750A0EF86F0000EE5
:100D40001200BE6ABF6AC06AC16AC26AC36A04018D
:100D5000026B0A6B126B1A6B226B2A6BC668F00E61
:100D6000C76E8E0EC86EC9680F0ECA6ECB6800695A
:100D70000869810E106F1869070E206F2869016BD2
:100D8000096B116B196B216B296B03690B69136973
:100D90001B69070E236F2B6904690C6914691C69B0
:100DA0000F0E246F2C690201896B886B876B866B31
:100DB000120E6B6F320E156F1C0E0C6F1D0E0B6F2B
:100DC0001A0E0A6F1B0E096F180E116F130E6A6F41
:100DD000310E146F0401056B066B076B0D6B0E6B08
:100DE0000F6B156B020E166F176B256B266B276B3F
:100DF000E40E0F6E1B0E106E010E116E8BEC8DF05B
:100E00009E8E1200000E266E000E256E1BC515F577
:100E10001CC516F5050E176E0A0E88EC8BF01BC567
:100E200015F51CC516F5050E176E100E88EC8BF027
:100E3000200E156E050E166E050E176E0A0ED2ECFC
:100E40008BF0000E286E000E276E200E2724D96E20
:100E5000050E2820DA6E27501B241E6E28501C20F9
:100E60001F6E1EC5F6F41FC5F7F4000EF86EDE50B7
:100E70000900F518D8B43FEF87F041EF87F043EF52
:100E800087F025682668274A282A28BE51EF87F070
:100E9000285009E1050E275CD8A051EF87F053EFE9
:100EA00087F025EF87F025C519F526C51AF512003C
:100EB000000E266E000E256E1BC515F51CC516F519
:100EC000050E176E0B0E88EC8BF0200E156E050EBE
:100ED000166E050E176E0B0ED2EC8BF0000E286E00
:100EE000000E276E200E2724D96E050E2820DA6EFC
:100EF00027501B241E6E28501C201F6E1EC5F6F4A2
:100F00001FC5F7F4000EF86EDE500900F518D8B4CE
:100F10008CEF87F08EEF87F090EF87F025682668DA
:100F2000274A282A28BE9EEF87F0285009E1050E9F
:100F3000275CD8A09EEF87F0A0EF87F072EF87F0D4
:100F400025C519F526C51AF51200000E186E000EFB
:100F5000176E600E0F6E050E106E020E0F26000E3D
:100F60001022D8901734D96E1834DA6ED890D9364A
:100F7000DA360F50D9261050DA22600E136E050EA5
:100F8000146ED8901734E16E1834E26ED890E136C2
:100F9000E2361350E1261450E222DE50E61809E151
:100FA000DE50E618D8B4D7EF87F0D9EF87F0DCEF42
:100FB00087F0010EEDEF87F0174A182A18BEEAEF06
:100FC00087F0185009E1040E175CD8A0EAEF87F00B
:100FD000ECEF87F0A9EF87F0000E1200360EF66EE8
:100FE000190EF76E010EF86E01EE50F210EE20F0C1
:100FF0000900F5C4EEF4E550E150FAE1760EF66E24
:10100000190EF76E010EF86E01EEBEF110EE1CF037
:101010000900F5C4EEF4E550E150FAE1DE0EF66E9B
:101020001B0EF76E010EF86E0900F5C448F50900B5
:10103000F5C449F501EE30F2200EEE6AE806FDE156
:1010400001EE60F1310EEE6AE806FDE101EE3DF1E0
:101050000B0EEE6AE806FDE10401080E5D6F000E5E
:101060005E6F000E5F6F00016FEF8BF0FAC40DF53D
:10107000FBC40EF59EAE3FEF88F041EF88F04CEFD9
:1010800088F0AEAE46EF88F048EF88F04CEF88F07D
:1010900015EC8DF070EF88F0A1AE51EF88F053EFB2
:1010A00088F05EEF88F0B1AE58EF88F05AEF88F024
:1010B0005EEF88F001EC8BF070EF88F0A1A663EF93
:1010C00088F065EF88F070EF88F0B1A66AEF88F0DD
:1010D0006CEF88F070EF88F0ABEC8CF070EF88F07C
:1010E0000EC5FBF40DC5FAF4110020EE01F01C5002
:1010F000D9261D50DA221EC5DFF420EE02F01C5066
:10110000D9261D50DA221FC5DFF41CC519F51DC5EF
:101110001AF50AEC8DF01EC511F5050EF2EC8CF0F7
:1011200020EE02F01C50D9261D50DA22DF50116E3D
:10113000110EF2EC8CF020EE02F01C50D9261D505E
:10114000DA22DF50116E120EF2EC8CF01CC513F592
:101150001DC514F567EC8CF01CC511F51DC512F505
:10116000A7EC8DF0120014501510D8B4BAEF88F027
:10117000BCEF88F0EBEF88F0186A18501424166E54
:10118000000E1520176E16C5F6F417C5F7F4000EFD
:10119000F86E250EF76403D00800F55005D0F6C4AC
:1011A000E9F4F7C4EAF4EF50D7EC8CF01850040DD2
:1011B000620EF324D96E050EF420DA6E0FC5DEF44C
:1011C00010C5DDF4182A030E1864E9EF88F0EBEF80
:1011D00088F0BDEF88F012002B0ED7EC8CF00FC515
:1011E00060F510C561F52B0ED7EC8CF00FC562F5DC
:1011F00010C563F52D0ED7EC8CF00FC564F510C546
:1012000065F52D0ED7EC8CF00FC566F510C567F5AA
:10121000190ED7EC8CF00FC568F510C569F5190EDD
:10122000D7EC8CF00FC56AF510C56BF52D0ED7EC19
:101230008CF00FC56CF510C56DF52D0ED7EC8CF04C
:101240000FC56EF510C56FF51200020E1B642BEF73
:1012500089F02DEF89F02FEF89F05BEF89F01C0EFC
:10126000156E050E166E010E176E060ED2EC8BF083
:10127000020E1B18D8A43FEF89F041EF89F04EEF22
:1012800089F01C5020091C6E1C50F70B1C6E1CC5ED
:1012900011F5060EF2EC8CF05BEF89F01C50D70BC9
:1012A0001C6E1B38E842F80B1C101C6E1CC511F597
:1012B000060EF2EC8CF012007E6A020E7F6E806ADF
:1012C0008168F90E826E130E836E846A856A866A5F
:1012D000886A896A7D0E8A6E8B6A7D0E8C6EB59CDB
:1012E000B59E85908592A59EA59C000E0F6E000E62
:1012F000106E000E116E53EC8DF0000E0F6E000E8E
:10130000106E000E116E4CEC8DF0000E0F6E000E84
:10131000106E000E116E5AEC8DF0800E876E12006A
:101320006F6A020E706E716A7268F90E736E130E38
:10133000746E756A766A776A796A7A6A7D0E7B6EF0
:101340007C6A7D0E7D6EB39CB39E76907692A39E52
:10135000A39C000E0F6E000E106E000E116E68EC56
:101360008DF0000E0F6E000E106E000E116E61EC0F
:101370008DF0000E0F6E000E106E000E116E6FECF1
:101380008DF0800E786E1200606A020E616E626AE5
:101390007F0E636E646A130E656E666A676A686ABA
:1013A0006A6A330E6B6E6C6A330E6D6E6E6AB29C37
:1013B000B29E67906792A29EA29C000E0F6E000ED6
:1013C000106E000E116E7DEC8DF0000E0F6E000E93
:1013D000106E000E116E76EC8DF0000E0F6E000E8A
:1013E000106E000E116E84EC8DF0800E696E12008E
:1013F0000F501010D8B4FFEF89F001EF8AF023EFFF
:101400008AF0136A1350020DF3C411F5F4C412F5F7
:1014100011500F24D96E12501020DA6E1350040DA3
:10142000620EF324E16E050EF420E26EDEC4E6F4F3
:10143000DDC4E5F4132A030E136421EF8AF023EFD1
:101440008AF002EF8AF012002EEF8AF0AA0EE82E40
:10145000FED700D0200E0F5E000E105A105007E18C
:10146000200E0F5CD8B037EF8AF039EF8AF026EF04
:101470008AF03FEF8AF0050EE82EFED700000F0637
:10148000D8A010060F2806E11028D8A44AEF8AF049
:101490004CEF8AF03BEF8AF0120011C518F512C527
:1014A00019F50FC516F510C517F567EF8AF018C5C1
:1014B000D9F419C5DAF4DF50156E184A192A16C581
:1014C000D9F417C5DAF415C5DFF4164A172A13063E
:1014D000D8A01406132806E11428D8A472EF8AF0C5
:1014E00074EF8AF057EF8AF01200166E050E166040
:1014F0007CEF8AF07EEF8AF09AEF8AF0050E0F609B
:1015000084EF8AF086EF8AF09AEF8AF00F50060D8A
:10151000F3C412F5F4C413F516501E0DEA0EF324AD
:10152000146EFD0EF420156E125014240F6E13501D
:101530001520106E1200136E4750D8A4A2EF8AF047
:10154000A4EF8AF0BEEF8AF013C543F50FC542F54C
:1015500010C541F511C540F512C544F51250D8B477
:10156000B4EF8AF0B6EF8AF0BAEF8AF0060E476E53
:10157000BCEF8AF0010E476E010E3F6E1200C09C58
:10158000146AD6EF8AF011C5F6F412C5F7F4000E0E
:10159000F86E0800F55016EC8CF0114A122A000E75
:1015A000106E0A0E0F6E24EC8AF0142A1350145C8D
:1015B000D8A0DDEF8AF0DFEF8AF0C3EF8AF0C08CAD
:1015C0001200D69AAF90D680000E0F6E000E106EED
:1015D000000E116EA0EC8DF0B490D682000E0F6E4E
:1015E000000E106E000E116E99EC8DF0B890D6843E
:1015F000000E0F6E000E106E000E116E92EC8DF04C
:1016000012003E500301196F3DC518F305019451B6
:1016100095119611D8B40FEF8BF011EF8BF01EEFF0
:101620008BF002D81EEF8BF00500FA6E9451FD6E20
:101630009551FE6E9651FF6EFA501200B19E120047
:101640000501A051A111A211D8B429EF8BF02BEF05
:101650008BF038EF8BF002D838EF8BF00500FA6E84
:10166000A051FD6EA151FE6EA251FF6EFA50120004
:10167000040117931200C09C146A4AEF8BF0FF0E0E
:1016800016EC8CF011C5D9F412C5DAF4DF6E114AEC
:10169000122A142A1350145CD8A051EF8BF053EF88
:1016A0008BF03FEF8BF0C08C1200C20E0301196F5C
:1016B000F70E186F7C0E1B6F19510F6E18513D6E8F
:1016C0000FC53EF5E20E0501946F1B0E956F010EDE
:1016D000966FB19EA18E900E03011A6F120054EC0A
:1016E0008CF0940E0F6E1B0E106E010E116E8BECB3
:1016F0008DF0D68EDDEC8DF0DAEC8DF0E9EC8DF02E
:10170000000E296E000E2A6E7AEC83F00DEF00F0C9
:10171000186E1750D8B48FEF8BF091EF8BF0A0EFCD
:101720008BF0C09C18501F0B200916EC8CF015C5CF
:1017300011F516C512F517C513F5BFEC8AF0C08C6C
:101740001200C09C610E16EC8CF017C511F518C57F
:1017500012F520EE02F01550D9261650DA22DF508D
:10176000136E3BEC8BF0C08C400E116E070EF2EC4A
:101770008CF01200C4EF8BF0150E116EC60EE82E21
:10178000FED7112EFCD700D00F06D8A010060F28C8
:1017900006E11028D8A4CFEF8BF0D1EF8BF0BCEF8F
:1017A0008BF01200186E1750D8B4D9EF8BF0DBEF26
:1017B0008BF0E9EF8BF0C09C18501F0B16EC8CF0EF
:1017C00015C511F516C512F517C513F53BEC8BF0D1
:1017D000C08C1200000ED8EC85F020EE01F0105005
:1017E000D9261150DA22730EDF6E20EE02F010506F
:1017F000D9261150DA22200EDF6EC89CC89A12003A
:101800001C0E156E050E166E010E176E040ED2EC30
:101810008BF01C500F0B1C6E1B38F00B1C101C6E39
:101820001CC511F5040EF2EC8CF012000F6E0001D5
:10183000878586510309866F836B010E826F0FC502
:1018400081F0B1A026EF8CF028EF8CF021EF8CF026
:1018500080C010F510501200030E0301266F256B97
:10186000276B0F0E236F226BE00E0F6E1B0E106E98
:10187000010E116E45EC8DF0B196A186030124692D
:1018800012001CC519F51DC51AF50AEC8DF01E6E67
:101890001EAC4DEF8CF04FEF8CF052EF8CF0010E40
:1018A00053EF8CF0000E120034EC8DF0A1EC86F0BA
:1018B00055EC8BF0C4EC89F090EC89F05CEC89F08D
:1018C000FEEC8CF02CEC8CF0E1EC8AF0120013C5ED
:1018D000D9F414C5DAF4DF6AC09A2B0E116E000E2B
:1018E000F2EC8CF0C08A300E116E070EF2EC8CF028
:1018F0001200ECEC88F0456A466A476A3F6A010EBE
:10190000496E820E0F6E1B0E106E010E116E3EECB4
:101910008DF012001DC519F51EC51AF5000E1B6EBF
:1019200025EC89F01DC519F51EC51AF5640E1B6E50
:1019300000EC8CF0120050415F4D494E00005041C8
:101940005F4C4F57000050415F48494748005041A5
:101950005F4D41580000B19602D8BAEF8CF00500F7
:10196000FA6E05019151FD6E9251FE6E9351FF6E1C
:10197000FA50120012002B2D192D314D6270730098
:101980000000324D6270730000003235304B6270DF
:101990007300116E1150040D620EF324D96E050E02
:1019A000F420DA6EDEC40FF5DDC410F51200136EFC
:1019B0001350210DF3C411F5F4C412F5E00E1124F7
:1019C0000F6E060E1220106E1200E5EC8DF0E3ECA7
:1019D0008DF0AA0E0F6E040E106E010E116E45EC06
:1019E0008DF01200126EC09C12501F0B200916ECD5
:1019F0008CF0115016EC8CF0C08C1200A194A192C6
:101A0000A1900001846B040E856F866B896B8C6BD3
:101A1000878512001B0E156E050E166E010E176ED1
:101A2000070ED2EC8BF01B501200040117A31BEF22
:101A30008DF01DEF8DF01FEF8DF020EC8BF012007C
:101A4000126E1250040D9E0EF3240F6EFE0EF42043
:101A5000106E1200126E1250040DAE0EF3240F6EB3
:101A6000FE0EF420106E1200600E0001AD6FAF6B21
:101A7000B36B080EB16FB06BAC6B12000FC594F571
:101A800010C595F511C596F512000FC591F510C555
:101A900092F511C593F512000FC5A6F510C5A7F56F
:101AA00011C5A8F512000FC5A9F510C5AAF511C5F5
:101AB000ABF512000FC5A3F510C5A4F511C5A5F52A
:101AC00012000FC5AFF510C5B0F511C5B1F5120084
:101AD0000FC5B2F510C5B3F511C5B4F512000FC5A9
:101AE000ACF510C5ADF511C5AEF512000FC5B8F5D2
:101AF00010C5B9F511C5BAF512000FC5BBF510C573
:101B0000BCF511C5BDF512000FC5B5F510C5B6F58C
:101B100011C5B7F512000FC5A0F510C5A1F511C587
:101B2000A2F512000FC597F510C598F511C599F5E6
:101B300012000FC59AF510C59BF511C59CF5120052
:101B40000FC59DF510C59EF511C59FF51200C09CEF
:101B5000E20E16EC8CF0C08C120001C58BF4025022
:101B60008C6E120001C589F402508A6E120001C504
:101B70007CF402507D6E120001C57AF402507B6E37
:101B80001200010E486EE0EC8DF01200486ACEECB7
:101B90008DF01200010E0501906F120003011A8FE3
:101BA0001200E7EC8DF01200E9EC8DF01200030159
:101BB000248F12000301249F120003011A9F1200B8
:101BC00003011A9F1200878E1200788E1200698E10
:101BD0001200699E120087841200788412000101AD
:061BE000120012001200C9
:020000040030CA
:080000008FFFF7FF9FFFFFFFD8
:01000900FFF7
:00000001FF
