:040000000DEF00F010
:040008001FEF8AF06C
:06001800FF00C3EF8BF0B6
:10C14400002344A11E44442D3E9928A23E3C379628
:10C154003C983B4633944696335A31905593312359
:10C1640034931936362D318F289332326E8B3291B7
:10C174002C466E8B468D28552288558C281E6E8041
:10C184001420202D6E7E288622376E80328321462D
:10C194006E8146851E501C8150841C236E721E13B2
:10C1A40013376E71327310326E75327615466E77B0
:10C1B400467D1750AD77507A17286E5F236908378C
:10C1C4006E65376A6A3C6E693C6A6A4B6E6E4B6F89
:10C1D4006F5AAD6F5A6F6F3A2301000000E81101E6
:10C1E400000000000000000000000000CA2101005F
:10C1F400000000000000000000000000000000003B
:10C2040000F62101182501242501122501D6230158
:10C2140000000002C000FF0002C000FF0002400056
:10C2240000008600860086008C008E008E008E0042
:10C234008E008E008E008E008E008E008E008E008A
:10C244008C009300A300A300A600B900B900B900B4
:10C25400B900B900B900B900B700B700B700B7001A
:10C26400B700B7008E007800780050003600360022
:10C27400360036003600360036003600360036000A
:10C28400360036004B00860086009B00D700D7009E
:10C29400D700D700D700D700D700D700D700D600E3
:10C2A400D600D600D60096009600940054005400A0
:10C2B40054005600560056005600560056005600CC
:10C2C4005600560056006600680068007B007B003C
:10C2D4007B007B007B007B007B007B007B007B0082
:10C2E4007B007B007B008E008E009100A100A100EA
:10C2F400A100A100A100A100A100A100A100A10032
:10C30400A100A100A700B400B400BC00C700C7008E
:10C31400C700C700C700C700C700C700C700C700E1
:10C32400C700C70096007E007E003E003500360040
:10C334003600360036003600360036003600360049
:10C3440036003E005C005C006C00830083008300C8
:10C3540083008300830083008300830083008300C1
:10C36400830061005E0056003B003B003B003B0045
:10C374003B003B003B003B003D003D003D003D00D9
:10C384004500460048005100510051005100510041
:10C3940051005100530053005300530053008100D7
:10C3A4008E009600C900C900C900C900C900C900AF
:10C3B400C900C700C700C700C700C70096009300A4
:10C3C40081005C005C005C005C005C005C005C0064
:10C3D4005C005C005E005E00690093009300B400A2
:10C3E400C700C700C700C700C700C700C700C70011
:10C3F400C600C600C600AF00A400A10081008100F1
:10C404008100810081008100810081008100810020
:10C4140081008C00B900B900E100F100F100F100E5
:10C42400F100F100F100F100F100F100F100F10080
:10C43400F100F100F200F200F200F200F200F2006A
:10C44400F200F100F100F100F100F100E600E1007A
:10C45400DE00D100D100D100D100D100D100D10043
:10C46400D100D100D100D10096006E005B000D0018
:10C474000D000D000D000D000D000D000D000D0050
:10C484000D000D001900200025003100310031009D
:10C494003100310031003100310031003100310010
:10C4A4006B0076009900BC00BC00BA00BA00BA0068
:10C4B400BA00BA00BA00BA00BA00BF00D900D90065
:10C4C400F200F700F700F700F700F700F700F700B5
:10C4D400F700F700F700E400D200C700AE00AE009A
:10C4E400AE00AC00AC00AC00AC00AC00AC00AC00E6
:10C4F400AC00800080005B005100510053005300E9
:10C5040053005300530053005300530086009E0011
:10C51400C200EA00EA00EA00EA00EA00EA00EA00EF
:10C52400EA00EA00EA00C70093007E003D003D00F7
:10C534003D003D003D003D003D003D003D003D000F
:10C544004B0078008000B400B400B400B400B40020
:10C55400B400B400B400B400B400AB0084008100A3
:10C564005600560056005600560056005600560017
:10C574005600560068009E00AC00E400E400E400AD
:10C58400E400E400E400E400E400E400E400BF00AC
:10C59400870064002B002B002B002B002B002B00AA
:10C5A4002B002B002B002B00480056007400830046
:10C5B400830083008300830083008300830083005F
:10C5C4008300A400A700C700C700C700C700C700B6
:10C5D400C700C700C700C700C700C700C700CE0018
:10C5E400D200DA00DE00DE00DE00DE00DE00DE0067
:10C5F400DE00DE00DE00DE00DE00D700C200B9008F
:10C60400A900A900A900A900A900A900A900A900DE
:10C61400A900A900A900A400890081006B006B0097
:10C624006B006B006B006B006B006B006B006B00AE
:10C634006B006900490041002900290029002900F4
:10C6440029002900290029002900290029003B008C
:10C654009100BA00F900F900F900F900F900F900B5
:10C66400F900F900F900F700F700D900A6007100FD
:10C67400530053005300530053005300530053001E
:10C6840053005300530084009B00E100E100E100EB
:10C69400E100E100E100E100E100E100E100E1008E
:10C6A400DC00C200B400A600A600A600A600A600F6
:10C6B400A600A600A600A600A600A600B600BE001E
:10C6C400D200D200D200D200D200D200D200D200D6
:10C6D400D200D200D200B40086004B003B003B00E5
:10C6E4003B003B003B003B003D003D003D003D0066
:10C6F400380029001D00160016001600160016004A
:10C70400160016001600160016001B0046006000F6
:10C714007600760076007600760076007600760065
:10C7240076007600700040001E000B000B000B002A
:10C734000B000B000B000B000B000B000B00130095
:10C744002E00480051005100510051005100510089
:10C75400510051005100510070009600DC00DC00D3
:10C76400DC00DC00DC00DC00DA00DA00DA00DA00ED
:10C77400DA009E007100400040004000400040008C
:10C78400400040004100410041004E008000B400E0
:10C79400BF00BF00BF00BF00BF00BF00BF00BF009D
:10C7A400BF00BF00930069004300430043004300FF
:10C7B400430043004300430043004300580081000A
:10C7C400BE00BE00BE00BE00BE00BE00BE00BE0075
:10C7D400BE00BE00BC009F00870081008100810074
:10C7E400810081008100810081008100810071004D
:10C7F40063005C005C005C005C005C005C005C004E
:10C804005C005C005C008300A700BE00BE00BE00AC
:10C81400BE00BE00BE00BE00BE00BE00BC00AF0035
:10C82400A100990099009900990099009900990034
:10C83400990099009900B300CA00D400D400D40030
:10C84400D400D400D400D400D400D400D400D70041
:10C85400D900DA00D900D900D900D900D900D9000B
:10C86400D900D900C70084004600460046004600AF
:10C874004600460046004600460046004600450085
:10C88400450045004500450045004500450045007C
:10C894004500450073009E00A100A100A100A10075
:10C8A400A100A100A100A100A100AE00C600D1001A
:10C8B400D100D100D100D100D100D100D100D100EC
:10C8C400C9007C00380038003800380038003800CF
:10C8D40038003800380038003500310030003000AE
:10C8E40030003000300030003000300030003B00B9
:10C8F4005100590059005900590059005900590074
:10C904005900590059005900390010000D000E005B
:10C914000E000E000E000E000E000E000E000E00A3
:10C92400190045005900590059005900590059008F
:10C93400590059005900590059008900C200C20029
:10C94400C200C200C200C200C200C200C200C200D3
:10C95400C200B900A3009E009E009E009E009E009F
:10C964009E009E009E009E009E0091005B0045007C
:10C97400450045004500450045004500450045008B
:10C984004500460056005E005E005E005E005E00EC
:10C99400600060006000600060006300C200F50099
:10C9A400F500F500F500F500F500F500F500F500DB
:10C9B400F500F200D900CC00CC00CC00CC00CC00B7
:10C9C400CC00CC00CC00CC00CC00CC00CE00CE00FF
:10C9D400CE00CE00CE00CE00CE00CE00CE00CE00E3
:10C9E400CE00BE008B00830083008300830083009D
:10C9F40083008300830083008300660040004000BE
:10CA04004000400040004000400040004000400022
:10CA14004900B300D400D400D400D400D400D4001E
:10CA2400D400D400D400D400C900B100B100B100D6
:10CA3400B100B100B100B100B100B100B100AE006D
:10CA44008E008600860086008600860086008600AA
:10CA5400860086008600BC00E600E600E600E600EC
:10CA6400E600E600E600E600E600E600E200DC00A0
:10CA7400DC00DC00DC00DC00DC00DC00DC00DC00D2
:10CA8400DC00C90064005C005C005C005C005C00CD
:10CA94005C005C005C005C006900E100F200F200F4
:10CAA400F200F200F100F100F100F100F100E90000
:10CAB4009100840084008400840084008400840045
:10CAC4008400840079000A000000000000000000D7
:10CAD400000000000000000000001900B900BC00C4
:10CAE400BC00BC00BC00BC00BC00BC00BC00BC0062
:10CAF400A3006E006E006E006E006E006E006E008D
:10CB04006E006E006E0069006600660066006600D6
:10CB140066006600660066006600640040003B0034
:10CB24003D003D003D003D003D003D003D003D0019
:10CB34006E00D700D700D700D700D700D700D700A2
:10CB4400D700D700D700DE00DF00DF00DF00DF0002
:10CB5400DF00DF00DF00DF00DF00A900410041004B
:10CB640041004100410043004300430043004100B1
:10CB74003600360036003600360036003600360001
:10CB8400360036006B00860086008600860086002C
:10CB9400860086008600860089008E008E008E0046
:10CBA4008E008E008E008E008E008E007400210098
:10CBB400210021002100230023002300230023005F
:10CBC40021001D001D001D001D001D001D001D0075
:10CBD4001D001D001D001D00B400CF00CF00CF00BC
:10CBE400CF00CF00CF00CF00CF00CF00CF00C200D6
:10CBF400BC00BC00BC00BC00BC00BC00BC00BC0051
:10CC0400BC00BC00790045004500450045004500D6
:10CC1400450045004500450045002E001B001B0053
:10CC24001B001B001B001B001B001B001B001B0028
:10CC34001D001E001E001E001E001E001E001E0001
:10CC44001E001E001E00B600EF00EF00EF00EF0014
:10CC5400EF00EF00EF00EF00EF00EF00AC00A700E3
:10CC6400A600A600A600A600A600A600A600A60090
:10CC7400B300E600E600E600E600E600E600E600B3
:10CC8400E600E600E60099005C005C005C005C00E5
:10CC94005C005C005C005C005C00590010000A0051
:10CCA4000A000A000A000A000A000A000A000A0030
:10CCB40012001900190019001900190019001900AF
:10CCC4001B001B00260089008F008F008F008F003F
:10CCD4008F008F008F008F008F0043001900190010
:10CCE400190019001900190019001900190016007B
:10CCF4001300130013001300130013001300130098
:10CD04001300150016001600160016001600160073
:10CD140016001600160020006600710071007100F4
:10CD24007100710071007100710070006300600097
:10CD340060006000600060006000600060005C00F3
:10CD440015000300030003000300030003000300B5
:10CD540003001000A900CF00CF00CF00CE00CE000A
:10CD6400CE00CE00CE00CF00DA00DC00DC00DC0018
:10CD7400DC00DC00DC00DC00DC00DF00EC00EC00AC
:10CD8400EC00EC00EC00EC00EC00EC00EC00CE005D
:10CD94008B00890089008900890089008900890045
:10CDA4008900AB00C200C200C200C200C200C200BF
:10CDB400C200C200C700E600EF00EF00EF00EF0082
:10CDC400ED00ED00ED00ED00D10093009100910025
:10CDD400910091009100910091008E005100360065
:10CDE400360036003600360036003600360046007F
:10CDF40069006B006B006B006B006B006B006B00D9
:10CE04007300A700BE00BE00BE00BE00BE00BE0090
:10CE1400BE00BE006C000000000000000000000026
:10CE24000000000000000600160019001900190097
:10CE3400190019001900190028007E00A600A60098
:10CE4400A600A600A600A600A600A600C200D60062
:10CE5400D600D600D600D600D600D600D600D6001E
:10CE64007E000B000B000B000B000B000B000B00F3
:10CE74000B000B003D0081008400840084008400CA
:10CE840084008400840084006B0048004500450051
:10CE9400450045004500450045004500430041006C
:10CEA4004100410041004100410041004100410076
:10CEB4009F00F100F100F100F100F100F100F10038
:10CEC400F100F100F400F500F500F500F500F500BF
:10CED400F500F500F500C40054001B001B001B0006
:10CEE4001B001B001B001B001B004300760081007D
:10CEF4008100810081008100810081007C00540058
:10CF04003100310031003100310031003100310095
:10CF14003100350035003500350035003500350069
:10CF2400350036003E0048004800480048004800EC
:10CF340048004900490068009600AE00AE00AE000B
:10CF4400AE00AE00AE00AE00B300C600D700D700FE
:10CF5400D700D700D700D700D700D70094005300DC
:10CF640041004100410041004100410041004300B3
:10CF7400450046004600460046004600460046007E
:10CF840051006800800080008000800080008000E4
:10CF940080008900AC00D900D900D900D900D7009D
:10CFA400D700D700D700D100CC00CA00CA00CA00FD
:10CFB400CA00CA00CA00C900A30086007C007C0025
:10CFC4007C007C007C007C007C009400A400AB000E
:10CFD400AB00AB00AB00AB00AB00AB00B400BC00DB
:10CFE400BE00BE00BE00BE00BE00BE00C200D70030
:10CFF400EA00F100F100F100EF00EF00EF00E700BC
:10D00400D100B600B300B300B300B300B300B30063
:10D01400990074004000400040004000400040007F
:10D02400400068008900AF00AF00AF00AF00AF0060
:10D03400AF00AF0097008B0080008000800080006C
:10D044008000800083008E009B009C009C009C005C
:10D054009C009C009C00860076005E005E005E00E2
:10D064005E005E005E0060006B007100760076007A
:10D0740076007600760076009100A700D400D400F4
:10D08400D400D400D400D400D200C700C100BC0036
:10D09400BC00BC00BC00BC00BC009E008900600059
:10D0A4006000600060006000600060005B0056008B
:10D0B4004E004D004D004D004D004D004D006300ED
:10D0C4009900CF00E700E700E700E700E700E7008A
:10D0D400D20086004E0025002500250025002500ED
:10D0E4002500310076009F00C700C700C700C700B5
:10D0F400C700C700C400B400AB00A100A100A10098
:10D10400A100A100A100A100A300A400A600A60004
:10D11400A600A600A600A60097007C0064005400A8
:10D124005400540056005600560048003D002900A3
:10D134002500250025002500250025004800540071
:10D1440083008600860086008600860086008600AE
:10D1540084008400840084008400840084007C00B3
:10D164006B005E0050005000500050005000500012
:10D17400660070008C0091009100910091008F0076
:10D184008F008F008F008F008F008F008F008F0023
:10D194008F00A600B900D600E400E400E400E40037
:10D1A400E400E100B700AF008B008B008B008B0024
:10D1B4008B008B008F00930099009B009B009B00C9
:10D1C4009B009B009F00B300B700CA00CA00CA00BE
:10D1D400CA00CA00CA00D900DC00EC00ED00ED0072
:10D1E400ED00ED00ED00C200960068003D003D003A
:10D1F4003D003D003D003E00430043004800480020
:10D2040048004800480048006B006B008E008E0008
:10D214008E008E008E008E005E00530025001600E6
:10D2240016001600160016001E00210028002D000E
:10D234002D002D002D002D0040004D005C006C00E1
:10D244006C006C006C006C00690066006300600098
:10D25400600060006000600066006C00710079008E
:10D2640079007900790079007B007B007B007C00E9
:10D274007C007C007C007C005B003E0028000000F9
:10D2840000000000000000001B002B003D005400C3
:10D2940054005400540054004500400035002D0053
:10D2A4002D002D002D002D003D003D0049004E00B5
:10D2B4004E004E004E0050005600560060006000C4
:10D2C400600060006000600084008F00A600BF0062
:10D2D400BF00BF00BF00BF00BC00B900B900B4006C
:10D2E400B400B400B400B400B1005E005E002000DD
:10D2F4000A000A000A000A000A003300410059002B
:10D304007B007B007B007B007B007E00830083002E
:10D314008B008B008B008B008B009300A700A70071
:10D32400C200C600C600C600C600BA007100710083
:10D3340035001E001E001E001E001E00780078002E
:10D34400AC00D200D200D200D200D200AE00AC00B9
:10D35400970084008400840084008400970099006E
:10D36400A300AE00AE00AE00AE00AE0068006000E8
:10D374003E001200120012001200120019001900DF
:10D384001E00230023002300230023004300430046
:10D39400540064006400640064005E0040004000C7
:10D3A40028001B001B001B001B00180012001200A9
:10D3B4000A0008000800080008003D006800680032
:10D3C400C400C600C600C600C600C200C200C10038
:10D3D400BE00BE00BE00BE00B9008700870070001A
:10D3E40051005300530053005C007000700086002D
:10D3F4008C008C008C008C00610053004D001800E0
:10D4040018001800180019002100210026002B0024
:10D414002B002B002B0040005100510071007600BE
:10D424007600760074004000400030000B000B00D2
:10D434000B000B00460076007600CF00E200E2000D
:10D44400E200D900730073004E00030003000300E0
:10D4540003000600080008000D000D000D000D007B
:10D464001300250025002E003B003B003B003B0041
:10D4740076007C008400BE00BE00BE00BE00A60094
:10D484009400940074006900690069007900A600A2
:10D49400A600BF00E100E100E100DF00B100B1003F
:10D4A400AB00810081008100810070006C006C0081
:10D4B400580056005600560059008F008F00970000
:10D4C400C700C700C700C700B400840084006B0015
:10D4D400410041004100410039003300330029007C
:10D4E40025002500250025005E00610061009E00E6
:10D4F4009E009E009E00A700BA00BA00C400D70098
:10D50400D700D700D700BA00B100B10096008C0054
:10D514008C008C008400640064005E003D003D00CB
:10D524003D003D006E0083008300B300C900C900C4
:10D53400C900BE00960096008C006300630063007F
:10D54400630081008B008B00A700B300B300B3001D
:10D5540096006600660050001800180018001800B5
:10D5640039003900390056005B005B005B007C0029
:10D574008C008C00A700BE00BE00BE00C600D20016
:10D58400D200D700E700E700E700E100B700B700EA
:10D59400B7008B008700870087006E006B006B006C
:10D5A40056004E004E004E007C0091009100B100E8
:10D5B400D200D200D200CC00C600C600C200BA001D
:10D5C400BA00BA0097006300630056000B000B001A
:10D5D4000B0013002500250026003E003E003E00FF
:10D5E40050008E008E008E00DA00DE00DE00DA00CD
:10D5F400CA00CA00CA00B900B700B700B600B1003B
:10D60400B100B100AC00AB00AB00A3008300830009
:10D61400830061005B005B00540041004300430051
:10D624002B002900290036004E004E004E007400E5
:10D63400740074008B00A300A300A700D200D200E2
:10D64400D200B3009C009C0093006800680068004E
:10D654005E005B005B0058005000500050009E00CC
:10D664009E009E00CA00EC00EC00DE00AB00AB00A4
:10D67400AB0079006B006B006C006C006C006C00FC
:10D6840070007000700063004600460046002600EB
:10D694001E001E002B00840084008400C400EA00E5
:10D6A400EA00EA00B300B100B10097007900790004
:10D6B40079004B00450045003300100010001000B5
:10D6C4003E0049004B00590084008400840093000C
:10D6D400970097009B00AB00AB00AB00BA00C10001
:10D6E400C100C200D700D700D700BA00B100B10012
:10D6F400AC008C008C008C008B008B008B008B00AA
:10D704008900890089009700990099009C00A9006C
:10D71400A900A900C700C900C900D200E900E700B8
:10D72400E100AF00AF00AF00940076007600640023
:10D734003D003E003E001B000500050006000A00F7
:10D744000A000A000B000D000D0025002E002E001B
:10D754002E00500050005000940096009600A60041
:10D76400DC00DC00D600C600C600C600BA00AE006D
:10D77400AE00C100CF00CF00CF00E900F100F100FE
:10D78400F200F200F200F200F500F500EF00E10013
:10D79400E100E100D700CC00CC00B900B100B10039
:10D7A400B1009B00960094008C008C008C008B00D0
:10D7B4008400840063004B004B004B0025001300E1
:10D7C40018007100710071008000CF00CF00C60006
:10D7D400BF00BF00BF00B400AF00AF00B100B10094
:10D7E400B100B100B300B300AC00A900A900A900C6
:10D7F400A1009F00A900C600C600C600D100EC002D
:10D80400EC00EA00EA00EA00EA00EA00EA00DA00D2
:10D81400CA00CA00CA00B900AC00A400870087008F
:10D8240087008000630063005800560056005600CD
:10D834004D004B00490046004600460045004100AB
:10D84400410049005400540054005C006800680022
:10D854009700A600A600A600CF00E200D6008E0026
:10D864008E008E0087003800380045004E004E00C0
:10D874005000590066006600A600A900A900A9008E
:10D88400E100ED00E600D900D900D900D200C400BF
:10D89400C400730068006800680025000B001B00CA
:10D8A4003500350035003D005E005E003600310075
:10D8B40031003100120006002900560056005600BF
:10D8C4006B00A700A700A400A400A400A400A30068
:10D8D400A3008F00840084008400780066007B002D
:10D8E400AB00AB00AB00AF00F100F100C900C60013
:10D8F400C600C600AB009C00810073007300730077
:10D9040064004B00590074007400740076009C009D
:10D9140096005000500050005000150003002D00E8
:10D924003500350035004E006400490039003900E7
:10D9340039002E001000400079007900790084003D
:10D94400E400C6007C007C007C007C001D002000FC
:10D9540061006100610061009B00AE00C900C90064
:10D96400C900C900D900E400D200D100D100D1001F
:10D97400C900BF00A900A600A600A6009B008C0059
:10D9840058004D004D004D0035000D002E003600AE
:10D9940036003600450061003E0035003500350094
:10D9A40026000A002E0038003800380046006800BF
:10D9B4004D004800480048003E0028006B007000FD
:10D9C400700070008C00B600B700B900B900B9004F
:10D9D400B900BE00BA00B700B700B700B700B10085
:10D9E400AC008C008C008C008C00780068009B00DC
:10D9F4009F009F009F00B100D900A70093009300EF
:10DA040093008C004D0068007E007E007E007E0046
:10DA1400AB00A10089008900890089006C007100B5
:10DA24009600960096009600B700BF008900890012
:10DA34008900890068004600400040004000400022
:10DA44003D003B008B008B008B008B00A900DE00A7
:10DA5400C700C700C700C700BF00AF00960096000C
:10DA6400960096008F007E008F008F008F008F003D
:10DA740094009F0078007800780078006B005300D1
:10DA84006C006C006C006C007600860079007900F4
:10DA940079007900730064005B005B005B005B004D
:10DAA4005300560061006100610061006E0068006F
:10DAB4005C005C005C005C004B0039003600360002
:10DAC4003600360029001B001B001B001B00190038
:10DAD400120023002300230023002B0033002B001B
:10DAE4002B002B002B00230035003E003E003E009F
:10DAF4003E00590078007800780078007900990099
:10DB0400B300B300B300B300BF00CC00C600C6002E
:10DB1400C600C600BA008B0089008900890089000C
:10DB240063006B006B006B006B0071009B00A9002D
:10DB3400A900A900A900C400AB00AB00AB00AB0076
:10DB4400A70081008C008C008C008C008F00940056
:10DB540084008400840084007E006E0070007000E5
:10DB64007000700070007C008400840084008400D5
:10DB74008C006800560056005600560030007600AF
:10DB84007E007E007E007E00D100DF00DF00DF002B
:10DB9400DF00DF00CE00B700B700B700B700AE006B
:10DBA40069004E005000500050002E0063006C00CD
:10DBB4006C006C006C00B900DF00DF00DF00DF00E8
:10DBC400DF00CE00AF00AF00AF00AF009B008600C7
:10DBD4008B008B008B008B0096008B008B008B00DE
:10DBE4008B008B0063005B005B005B005B005300F9
:10DBF40093009300930093009300A7008900890089
:10DC0400890089007C006E00780078007800780034
:10DC14008F008B008B008B008B00890074007B00CD
:10DC24007B007B007B008B00970097009700970098
:10DC34009700B700BF00BF00BF00BF00C200B40020
:10DC4400B400B400B400B4005400510053005300B5
:10DC54005300410038003800380038003B005800B9
:10DC640058005800580058006B0074007400740089
:10DC740074007400730073007300730073006E000B
:10DC84006C006C006C006C008C009C009C009C0080
:10DC94009C00A100BA00BA00BA00BA00B7005E0046
:10DCA4005B005B005B005C005E007800780078003D
:10DCB40078007800B100AE00AE00AE00AE00930074
:10DCC4005C005C005C005C005C0076007E007E0012
:10DCD4007E007E009400CF00CF00CF00CF00CF00A5
:10DCE400DE00E400E400E200E200C2007E007E0008
:10DCF4007E007E007E0066005400540054005400F0
:10DD04005B00760076007600760078008E008B004B
:10DD14008B008B008B00870096009600960096007F
:10DD2400910069006900690069006900740071006C
:10DD34007100710071006600690069006900690082
:10DD4400640040003E003E003E003E00760071004C
:10DD54007100710071009700D100D100D100D10091
:10DD6400CE00E600E700E700E700E200CA00C900D1
:10DD7400C900C700C700CF00C400C400C400C40069
:10DD84007B007100710071007100A40069006900DA
:10DD9400690069006C00BC00D100D100D100CA0048
:10DDA400B700BC00BC00BC00BA00A1008E008E000D
:10DDB4008E008E009B0091009100910091009400D0
:10DDC400A300A300A300A3009B009900990099005D
:10DDD400990087007600740074007400790068006C
:10DDE40063006300630059005B005C005C005C003E
:10DDF40073007B0076007600760078009400A30020
:10DE0400A300A300A3005800590059005900590069
:10DE1400940061006100610061003B0058006C00E7
:10DE24006C006C006B003D001B001B001B002100FC
:10DE340071006E006E006E006E007900C900C900AA
:10DE4400C900C90081006C006C006C006C00A1006A
:10DE54007C00640064006400480059007E007E0079
:10DE64007E009400A30081008100810076006B0095
:10DE74009700970097009E00B300930093009300CF
:10DE84009400A900C700C700C700BF006300740066
:10DE9400740074007B00DA0078007400740073006E
:10DEA400200081008600860086008400390030004E
:10DEB4003000330071007000700070006B002500AA
:10DEC4006000660066006C0091004D00460046004C
:10DED400500074009E009F009F00A100A400D10088
:10DEE400D100D100D200D400D700D700D700D10090
:10DEF400CA00CF00CF00CF00970071006600660013
:10DF04006600B400A7007000700070006B009E00F3
:10DF1400CE00CE00C70089008600840084008F00F4
:10DF2400A90071006600660059004D00710071007F
:10DF34007100590049003500350035007100810039
:10DF44006C006C006C0079009F00D900D900D900E6
:10DF5400C600C200CF00CF00CF00BF00AF009C00BE
:10DF64009C009C007C0069005B005B005B008C00F3
:10DF740087006C006C006C0070008B00AC00AC007F
:10DF8400AC00970099009B009B0096007100640010
:10DF94005C005C0063007C00600053005300600080
:10DFA40076008F009600960071004E00700073009A
:10DFB40073009700A30060006000600043004B0002
:10DFC40073007300710051004500300030004800B8
:10DFD4007E0069005B005B003D0021006000700072
:10DFE40070007C0080004600460048007B008000F2
:10DFF4008C008C007C005B0073008E008E00A700F8
:10E00400B900940087008700490043006B006B004F
:10E014006C006C0058002600260059008700890017
:10E024008B008B004100380091009900A400CA00C5
:10E03400B6007800780086008F00AF00C100C100F0
:10E044006900690081008300A600DA00BC00830037
:10E0540083007E007C00BC00D400D700E400E20012
:10E06400DE00DE0091006C0076007C007C00E200A3
:10E07400ED0080007C0070001900300089008900E8
:10E084009C00BA0093005800580076008600A60051
:10E09400B700B700AC00AB00D600DA00CE00A30096
:10E0A4009F009600960086007B00610043004300B9
:10E0B4009900A60091008B00800058005E00BA0011
:10E0C400BA00BC00BE00A7008B008B009F00A1001B
:10E0D400A400A60097007B007C0091009100AB0097
:10E0E400B4009F00890083005C005C007B007E001C
:10E0F400A400C400B9009700970083008300B30014
:10E10400C900B900A400A300910091006900640053
:10E114005100410061009600960069006900730097
:10E1240074009900C900BA00A600A600AF00AF00B1
:10E1340081007B006B0058006800800080004E0066
:10E144004900700070008100970074005100510074
:10E1540078007C00B900B9009600730086008F0037
:10E164009400D100C20091009100A300AE0084008D
:10E174007E0071003E003E00400040001800180080
:10E184007E007E00800081007C007C007E00EA002E
:10E19400E700DE00DE00DA00D900AB009300910056
:10E1A400840086008B008B00640045004E005600FE
:10E1B40056005B00600081008100890093005C00D0
:10E1C4003E003E0063006E00A700A70080005300DD
:10E1D40058005B005B009F009100610061006600D5
:10E1E40069007400780074003B00500071007100F5
:10E1F40079007E004900490051007E0071006800EA
:10E2040068003E003D006B006B0063005400580042
:10E21400580058008E009B00A400A400A6009F0094
:10E224005400540059006800B300C700C7008300BD
:10E234006800580058008700AE006E006E00690048
:10E2440050009C00AC00AC00710043002900290080
:10E254005B0087008C008C008000530096009600C1
:10E2640096009B009E009F009F00CA00E100DE0014
:10E27400DE00DF00E100DF00DF00DE00D900AB00DC
:10E28400AB00AB00A7008C008700870068006C001F
:10E294007B007B006C0068007900790081009300AA
:10E2A4008000800080009E00B300B400B4009B0096
:10E2B40068004800480053007B00C900C700BC0048
:10E2C4007800740074007400CC00AE0093009300D6
:10E2D40091009E00B700B700AB006800360038001C
:10E2E400380059009600A100A10083007800810045
:10E2F40081009700C100BC00BC00BC00CE00A70098
:10E30400A700A700A10080007900790064005400F0
:10E31400560056004B002B002500250025002B003D
:10E324002E002E002E002900730073007300740069
:10E334004800450045006E00A900AF00AF009F00F3
:10E3440061005100510054005E005300530053001B
:10E3540048007C007C007C00590029002900290029
:10E364007300C200C200C2009600380038003800B2
:10E374005B00C100C100C100A10020001B001B0004
:10E384003000A700AF00AF00990069006E006E0076
:10E394007B007C006B006B006E00A700B100B10035
:10E3A400AB006100610061006300B400BE00BE0008
:10E3B400BE00AB009B009B009B00D200DE00DE0091
:10E3C400DE00B400930093009300AB00D900D900A1
:10E3D400D900C600AB00AB00AB00BE0087008100D3
:10E3E40081008000CA00DA00DA00D100490036005A
:10E3F400360036008F008B008B008B005E006600B9
:10E404006600660045002E002E002E00600081008C
:10E414008100810050002500250025005E00970042
:10E424009700970073005000500050008100B7001F
:10E43400B700B700AC009E009E009E0094008100CF
:10E4440081008100830083008300830086008B00A9
:10E454008B008B0076006400640064006C007E0016
:10E464007E007E0080007900790079005B00460020
:10E474004600460045004B004B004B0091009900BC
:10E484009900990066005E005E006300C900D20036
:10E49400D200CC00A300A100A10087007C007C0076
:10E4A4007C00830078007800780051001B001B007A
:10E4B4001B0066008C008C008C005900400040005A
:10E4C40040006900890089008900660050005000FE
:10E4D40050003B003100310031006E0079007900BA
:10E4E4007900640061006100610087009E009E0065
:10E4F4009E009600930093008B005C005900590025
:10E5040054004B004B004B005B004900490049009C
:10E5140049003B003B003B00430061006100610097
:10E5240069006E006E006E005300510051005100EE
:10E5340059005C005C0064006900610061006100D6
:10E544006400640064005B00760076007600780066
:10E55400790079007B00A6009C009C00960089004D
:10E564008900890068006B00780078009C0097009F
:10E57400970097005B002100210030007600940092
:10E5840094009C008400730073005E008F00970069
:10E5940096006400710071009400CC00BE00BE00BF
:10E5A40097005E004D004D00280080008400840028
:10E5B400D900AF00AF00AB008100640064005000DC
:10E5C400590087008700A900B600AE00AE00AB007A
:10E5D4007000680068008E00CC00CC00C20094007B
:10E5E40091009100A600D700E900E900C9008F005E
:10E5F4007E007E004900730078007B007C0051009F
:10E604005100540041001E001E00490063006600D2
:10E61400660040004800480043004500760076004C
:10E624008000730060006000890081007E0081002A
:10E634008F009E009E006900540073007300B400B4
:10E64400C400C900B600800026002600230038005C
:10E65400660066007B00480030002E002D00280074
:10E66400280026002E0039003E00530050005000C0
:10E67400630071007000700089009700A300860099
:10E6840054007100760083008C00A100A700BE0036
:10E6940086006E006B0069007800780084009600A4
:10E6A400A300A700BA00B400B40097007E008B005A
:10E6B4008B0076007C0089009300B30089007B0006
:10E6C4006E0061004B004B006E0084009B009B00B9
:10E6D4009C00890084006B00640084008300660051
:10E6E4006600660081009C007B00760083007C004D
:10E6F40066005C00460069007C008C009400A30066
:10E70400A700C900B900A9009B009100A600A900B8
:10E71400B600C200DC00C100A40093008C007900A4
:10E72400790084009100A3007E00690093009400A6
:10E73400810087009100A100AE005B0053007E00C1
:10E744009300AF00B700C100E900EC0093008E0015
:10E754008E00A400BF0097009600BF00B300A30082
:10E76400A300A100C700C6009E009E009F008F006A
:10E774007C00680069008E009F00AB00AB00A7001E
:10E784006E00690054006000690079008400BF00D5
:10E79400BE0083005C002D003600410045004600A9
:10E7A4007E007E007B0058002500460049004E0094
:10E7B4003D00210020001B003E0041006000590084
:10E7C40049003B001D0060006100810093009E0031
:10E7D4009400800070007000AB009F0093009B00C9
:10E7E400B100DE00DE00CE009B00890079007B00D2
:10E7F400A700A900DC00B600B1008B0066005C0035
:10E8040066009E00C400C400A40066004B004600DD
:10E814003800380038005B0083008900660050002F
:10E82400660066005C002D002D0048008F009F00EC
:10E83400AC009F00640064003300400040006800A6
:10E84400AE00BA00A90051004B004B00540029004F
:10E854002900410087009F009E0093008B008B00DD
:10E86400610043003D0056009900BE00BE00B600A2
:10E87400660064005600640079008000BA00CE008F
:10E88400CE009B007600740081008E007100710040
:10E894008B00BF00BF00BA00BF00C400BF007800F7
:10E8A400490049007000790079008000AF00C10080
:10E8B400C10083008E008E008C00800080008F00D9
:10E8C4008C00790079009400A100A10097007000E9
:10E8D40070005E0066007300730091009E009E004D
:10E8E40079004000400056009E009F00A100A9004E
:10E8F400A100A1007C007C007C008E00AB00AB007A
:10E90400A6009B009C009C007E00640064008700BD
:10E91400AE00AE00A600780078006C0051005300F1
:10E9240053009C00A900A9007B00630063007300EE
:10E93400830083008900B100B600B6009C008B0000
:10E944008B008700800080008400C100C200C200E8
:10E954009300890089008400800080008F00B30048
:10E96400B300B10091008F008F00940097009700CE
:10E9740087006B006B006900680068006800A400F1
:10E98400A900A90059003B003B0041004600460095
:10E994005B008F008F008C004B004B004B00480045
:10E9A4004800480078008E008E0076005C005C0011
:10E9B4005600490049004B00810081008100790024
:10E9C4007300730087008700870069005E005E00A3
:10E9D4005600590059007C00C600C600BF008400E0
:10E9E40081007E0051004B004D00A400BE00BE001B
:10E9F400AE00A300A1007C00600060006C009100E8
:10EA040091008E008400840089007E007B007B00DE
:10EA14008000830083008B008C008C008F009F009B
:10EA24009F009300860086008900A300A400A6002E
:10EA3400B600B400B4009400890089008E009600EA
:10EA440096009E00AF00AF008F006E006E00730052
:10EA54007600760083009C009C009C007B006B0089
:10EA6400680059005C005C006B007C007C0087003F
:10EA7400870087006C005600560061006300630045
:10EA84005B006400640083007B00780060005C002D
:10EA940060005E00560054006C009E00AC00A900AB
:10EAA4008F0081008300810081007B0087009E002D
:10EAB4009B00930091009C00AE00AE00A6008E0067
:10EAC4008600830073006E006E0070008300830074
:10EAD400AC0097009700780066006600610058005B
:10EAE40059007400A400A900960074006E006C0024
:10EAF4006800660078009900A4008E0069005E003A
:10EB040064006B006B0078009400A3009F008B00EE
:10EB140070007600810089007B00710083008B0007
:10EB240094008E008B0089009100960096007E0070
:10EB34007C007C008B008C008C00860078006600D2
:10EB44007000800094008F0087007E0081007C00AC
:10EB5400710058006B0083009F009F009C008E0092
:10EB64008E008B00840076007B00930081007C0083
:10EB74007E0099009E009E00A4009C0091007100FC
:10EB84006300580079008E009C0094009600990060
:10EB94007E00660059005B00700080008E008900D2
:10EBA40086009100810074007C007E0080007B0060
:10EBB40083008900810089008E0097009C009C00DE
:10EBC40087008400860091008C008B0087008F00F2
:10EBD4008F008B0079007000690074008600940037
:10EBE400910089008400800073006C00630063005E
:10EBF40064007E0083008300780070006B00600076
:10EC0400760076007300680069006B00660063009C
:10EC14006C007C008B00840078006E007E00840011
:10EC240080006E006B00870080007E0068006B002F
:10EC3400710081007C0076006C006E006B00700037
:10EC44007B007E007E007C00760071007000730003
:10EC5400780078008B008C008C0089008C008B007D
:10EC640086008600860086007B007B007E00810093
:10EC7400830080007B007B008000810079007E009F
:10EC840081008400830083007B007B007B007E0086
:10EC94007400760084008B008B008000780079007B
:10ECA4007C007E007600800081008900860084005C
:10ECB40079007C007C007E007B0080008900890054
:10ECC4008700780076007B00800080007C007B0059
:10ECD4007B007B007B0079006E006E007000790081
:10ECE40079007B0080008000810081008100790030
:10ECF40076007800790079007C008B008B008B0013
:10ED0400890089007E007800780078007B007C0010
:10ED14007E007C007C007B007B0078007C007C0013
:10ED24008100810081007E00800080007B007900EA
:10ED34007C007C007C007C008000800081008100DD
:10ED440081007C007C007C007B007B007C008100D7
:10ED540081007E007C007C007C007C007C008100C3
:10ED6400810081008100810080007C007C008000A3
:10ED7400810080007E007E007E007E007E00800098
:10ED8400810081008300830081007B007C007C0083
:10ED94007E007E008300830083008000800080006A
:10EDA400800080008100810081008000800080005C
:10EDB4007E007E007E007E007E0080008000800059
:10EDC4007E007E007E007E007E007E007E007E004F
:10EDD4007E007E007E007E007E007E007E007E003F
:10EDE4007E007E007E007E008F00B000CE00E90031
:10EDF400FE00FE00FE00FE00FE00FE00FE00EF002E
:10EE0400D500B70097007600560036001A000300BC
:10EE14000000000000000000000000000F002900B6
:10EE2400470067008800A900C700E300FA00FE005D
:10EE3400FE00FE00FE00FE00FE00ED00D300B50063
:10EE44009500740054003500190002000000000011
:10EE540000000000000000001700320051007300A1
:10EE64009300B300D100EB00FE00FE00FE00FE00A4
:10EE7400FE00FE00F600DE00C100A2008100610079
:10EE8400410024000B00000000000000000000000E
:10EE9400000014002F004D006E008F00AF00CD0065
:10EEA400E700FD00FE00FE00FE00FE00FE00F20092
:10EEB400DA00BD009D007D005C003D0020000900DB
:10EEC4000000000000000000000007001E003A00DF
:10EED4005A007B009B00BB00D700F000FE00FE0040
:10EEE400FE00FE00FE00F900E300C800A90089004E
:10EEF400680048002B001100000000000000000022
:10EF0400000005001B003700560077009700B7008B
:10EF1400D400ED00FE00FE00FE00FE00FE00F60040
:10EF2400E000C500A60085006400440027000F002F
:10EF3400000000000000000000000D00250041005A
:10EF440061008200A300C200DD00F400FE00FE00A8
:10EF5400FE00FE00FD00E900D000B2009200710046
:10EF640050003200180004000000000000000000FF
:10EF74000A0021003D005C007D009D00BD00D90019
:10EF8400F000FE00FE00FE00FE00FB00E700CE00E5
:10EF9400B00090006F004F00310017000400000023
:10EFA40000000000000010002800450065008600F5
:10EFB400A600C500DF00F400FE00FE00FE00FE0017
:10EFC400F100DB00BF00A00080005F0040002400CF
:10EFD4000D0000000000000000000B0021003D00B7
:10EFE4005C007D009D00BC00D800EE00FE00FE0029
:10EFF400FE00FE00F200DC00C100A20081006100FE
:10F00400410026000F0000000000000000000F0077
:10F014002500410061008100A200C100DB00F10075
:10F02400FE00FE00FE00FB00EA00D300B6009600DE
:10F034007600550037001E000A00000000000000A2
:10F0440008001B003500530073009300B300D00088
:10F05400E700F800FE00FE00FD00EE00D900BE004F
:10F064009F007F005D003F0024000F0001000000AE
:10F07400000008001B003300510072009200B2002F
:10F08400CE00E600F700FE00FE00FA00EB00D5001B
:10F09400B9009A007A0059003B0021000D000100DC
:10F0A400000002000E0023003D005C007D009C0077
:10F0B400BB00D600EB00F900FE00FD00F200E0000A
:10F0C400C700A9008900690049002D001700070046
:10F0D400000001000B001C00350052007300930077
:10F0E400B200CE00E500F500FC00FC00F200E100F7
:10F0F400CA00AD008D006D004D0031001A000A00F9
:10F10400020003000D001F00370054007500950035
:10F11400B400D000E500F400FB00F900EE00DB00D1
:10F12400C200A5008400640045002B0016000800FE
:10F134000400080014002900430062008200A200B9
:10F14400C000D900EC00F600F900F200E300CD00A5
:10F15400B10091007200520035001E000E0006003E
:10F164000800120024003D005B007B009B00B900F6
:10F17400D300E700F300F700F100E300CE00B20093
:10F1840093007300540037002000100008000A00A8
:10F194001400270040005E007F009E00BC00D500E4
:10F1A400E800F200F400ED00DE00C700AA008B00C6
:10F1B4006B004C0031001C000E000A000F001C0004
:10F1C40031004D006C008C00AB00C700DD00EC008A
:10F1D400F200F000E400D000B60098007900590075
:10F1E4003C00240014000C000E0019002C00450003
:10F1F40064008300A300BF00D700E800F000EF0024
:10F20400E500D300BA009C007D005D003F002700AC
:10F2140017000F0010001A002D004600650084003E
:10F22400A300C000D700E700EE00EC00E100CE0030
:10F23400B4009600770057003B002500160010002C
:10F2440014002000350050006F008E00AD00C8008F
:10F25400DC00E900ED00E700D800C200A60087004A
:10F2640068004A0030001E00140013001B002D002B
:10F27400450063008200A100BE00D500E400EB005D
:10F28400E800DC00C800AD008E006F0051003600BD
:10F294002200160014001B002B00430060008000B5
:10F2A4009E00BB00D200E200E900E600DA00C600DE
:10F2B400AC008D006E0050003600230018001600CC
:10F2C4001F003000480066008400A300BF00D40083
:10F2D400E200E700E200D400BE00A2008300650063
:10F2E400480030001F0018001A0026003A0055009C
:10F2F40074009200B000C900DB00E400E400DA000E
:10F30400C700AE009000720053003A0026001B00B4
:10F314001A00230034004D006B008900A700C100CF
:10F32400D500E100E300DB00CA00B30095007700DC
:10F3340059003E002A001E001C00230034004C002B
:10F3440069008700A500C000D400DF00E100D900F7
:10F35400C800B0009300750057003D0029001F004D
:10F364001E0027003900520070008D00AB00C4005D
:10F37400D600DF00DE00D400C100A70089006B00C6
:10F384004E00360026001F0022002E0044005F00BD
:10F394007D009B00B600CC00DA00DE00D800C90076
:10F3A400B200960078005B0040002D00220022008D
:10F3B4002B003D00560074009100AE00C500D5003E
:10F3C400DC00D900CC00B7009C007F00610046003F
:10F3D4003100250023002A003B00540071008E00F8
:10F3E400AB00C200D300DA00D700CB00B6009B000C
:10F3F4007E00610046003200260025002D003F00FB
:10F40400580074009200AD00C400D300D900D400A9
:10F41400C600B000940077005A0041002F00270076
:10F4240028003300470062007F009C00B600CA0039
:10F43400D500D600CE00BC00A40087006A004F00AF
:10F4440039002B0028002E003E00560072008F0069
:10F45400AB00C100D000D500D000C200AC009000C9
:10F46400730057004000300029002D003B0050007D
:10F474006C008800A500BC00CC00D300D000C30001
:10F48400AE00930077005B00430032002B002E0097
:10F494003B0051006B008800A400BB00CB00D200ED
:10F4A400CE00C100AC00910075005900420032004A
:10F4B4002C0031003F00550071008D00A800BE00F3
:10F4C400CC00D000CB00BC00A50089006D00520028
:10F4D4003E0031002E00360047005F007B0097009D
:10F4E400B000C300CD00CE00C400B10098007C0081
:10F4F40060004800370030003300400054006F00C3
:10F504008B00A600BB00C900CD00C700B700A00057
:10F514008500690050003D00330032003C0050007B
:10F52400690084009F00B600C600CC00C800BA0081
:10F53400A40089006E0054004000350033003C00F4
:10F544004F00670082009D00B400C400CA00C600DA
:10F55400B800A20088006D00540040003600350059
:10F564003F0052006B008600A000B600C400C90032
:10F57400C300B3009D008200680050003E003600C6
:10F5840039004500590073008E00A700BA00C50079
:10F59400C600BD00AB00930078005E0049003B004C
:10F5A40037003E004E00650080009A00B100C000A4
:10F5B400C600C100B3009E008300690052004100F0
:10F5C40039003B0048005D0077009100A900BB00B2
:10F5D400C400C300B700A4008A00710058004500AD
:10F5E4003B003B004500590072008C00A400B800A9
:10F5F400C200C300B900A6008E0074005B0047007F
:10F604003C003C004600580071008B00A400B70089
:10F61400C100C100B700A5008C0072005A00470069
:10F624003D003D0048005B0074008E00A600B80059
:10F63400C100BF00B400A00087006D005600450063
:10F644003D0040004D0062007C009500AB00BB0013
:10F65400C000BC00AD0097007E0064004F00420073
:10F664003E00450056006D0086009F00B200BE00BB
:10F67400BE00B500A3008A007100590048003F0095
:10F6840042004E0063007C009500AB00B900BE0050
:10F69400B900A90093007A0061004E0042004100C5
:10F6A4004A005D0075008E00A500B500BD00BA00DB
:10F6B400AD009800800066005100440041004900FC
:10F6C4005A0072008A00A200B300BC00BA00AD0068
:10F6D4009900800068005300450042004A005B0026
:10F6E40072008B00A200B300BB00B800AB0097000F
:10F6F4007E0066005200450044004D005F00760025
:10F704008E00A500B400BA00B500A70091007900EE
:10F7140061004F0045004600510065007E009500E1
:10F72400AA00B600B900B1009F00880070005A001A
:10F734004B0045004A005900700087009F00B0004C
:10F74400B800B500A90094007D0065005200470090
:10F754004800520065007D009400A900B500B70080
:10F76400AE009C0085006E0059004B0047004E001F
:10F774005F0075008D00A300B100B600B000A100C9
:10F784008B0074005D004E0048004D005C00710069
:10F7940089009F00AF00B500B100A3008D00760082
:10F7A4006000500049004D005B00700088009E001E
:10F7B400AE00B400B000A2008D00760060005000DE
:10F7C4004A004F005D00720089009E00AE00B30045
:10F7D400AE00A0008A0074005E0050004B0051008F
:10F7E400610076008D00A100AF00B200AB009B0069
:10F7F40085006E005B004E004C00550067007D00E4
:10F804009300A600B000B000A60093007D0067003E
:10F8140056004D0050005C00700086009C00AB0058
:10F82400B000AC009D00880072005E0051004E00E4
:10F83400560066007C009200A400AE00AE00A40056
:10F8440091007C00660056004F0052006000740076
:10F854008A009E00AB00AE00A700970081006C00F8
:10F864005A00510051005C006F0084009900A80008
:10F87400AE00A9009A00860071005E00520051009B
:10F884005B006C0081009600A600AD00A9009C00FE
:10F89400880073006000540052005B006C0080001C
:10F8A4009500A500AC00A8009B00870072006000D2
:10F8B400540053005C006E0082009600A500AB006B
:10F8C400A6009800840070005E00540055005F009C
:10F8D400710086009900A600AA00A300940080008D
:10F8E4006C005C0054005700640077008B009D009E
:10F8F400A800A8009F008D007A00660059005500FA
:10F904005C006B007F009200A200A800A500980094
:10F91400850071006000570058006300740088007F
:10F924009A00A500A7009E008E007B0068005A0084
:10F9340057005D006C0080009300A100A700A200A6
:10F94400950081006F005F0058005B0067007A003B
:10F954008D009D00A500A400990087007400630039
:10F9640059005A006400750088009900A300A4009F
:10F974009B008A00780066005B005A0063007300F5
:10F9840085009700A200A4009C008C007A00680007
:10F994005D005A006200720084009600A100A3007A
:10F9A4009B008C007A0068005D005B0063007300BC
:10F9B40085009600A100A2009A008A0078006700E2
:10F9C4005D005D006600750087009700A100A1003E
:10F9D40097008700750066005D005E0069007A008C
:10F9E4008B009A00A1009E009300820071006300C6
:10F9F4005D0061006E007F0090009C00A0009B00F1
:10FA04008D007C006C0061005E006600740085005F
:10FA140095009E009E0095008500750066005F00BD
:10FA240061006D007D008D009A009F009A008D009A
:10FA34007D006D006200600067007500860095001F
:10FA44009D009C00930083007300660060006400C6
:10FA5400700080008F009A009D0096008900790054
:10FA64006A00620063006C007B008B0097009C00BE
:10FA740098008C007D006E00640063006A007800CA
:10FA8400880095009B0099008E008000700066003D
:10FA9400630069007700850093009A0099008F0045
:10FAA400800072006700640069007600850092009F
:10FAB400990098008F0080007200670064006A005B
:10FAC400770085009200990097008E0080007200F4
:10FAD400680065006C00780086009300980096002A
:10FAE4008C007E007000670066006E007B0088005A
:10FAF40094009800940089007B006E006700680001
:10FB040071007F008B0095009700910084007700BE
:10FB14006C0067006B00750082008F0096009500F2
:10FB24008C00800073006A0068006F007B0087000F
:10FB340092009600910087007A006F0069006B00C4
:10FB4400740080008C00940094008D008000740088
:10FB54006C006A006F007B008700910094009000A5
:10FB640086007A006F006A006D00760082008D00C6
:10FB7400930092008A007F0073006C006C00730095
:10FB84007E008900910092008C00810076006E0056
:10FB94006C0071007B0086008F0092008E00840050
:10FBA400790070006C007000790084008D00910071
:10FBB4008F0086007B0072006D006F007800820069
:10FBC4008C0091008F0087007D0073006E006F0031
:10FBD400770081008B0090008E0087007D00740008
:10FBE4006F007000770081008A008F008E0086000D
:10FBF4007D0074006F007100780081008A008F001E
:10FC04008D0085007C007400700072007900820011
:10FC14008B008E008B0084007B00730070007300E7
:10FC24007B0084008B008D008A00820079007300C1
:10FC3400710075007E0085008C008C0088008000B7
:10FC44007800720072007800800087008C008B00BE
:10FC540085007D007600720074007B0082008900BC
:10FC64008B00890082007A007400730077007E00A4
:10FC740085008A008A0086007F0078007400750081
:10FC84007A00810087008A00880082007B00760069
:10FC9400740078007E0084008900890085007F005C
:10FCA4007800750076007B0081008700890086005B
:10FCB40080007B00760076007A0080008500880052
:10FCC400870082007D007800760078007E00830043
:10FCD4008700870084007F007900770078007D002A
:10FCE400810086008700840080007B007800780013
:10FCF4007C00800085008600850080007C007900FF
:10FD040078007B00800084008600840081007D00F0
:10FD1400790079007B0080008300850084008100E5
:10FD24007D007A0079007B007F00820084008400DB
:10FD340081007E007B007A007C007F0082008400CA
:10FD4400830080007E007B007B007C0080008200BA
:10FD54008300820080007E007B007B007D008000A9
:10FD640082008300820080007E007C007C007E0094
:10FD7400800081008200810080007E007C007D0084
:10FD84007E0080008100810080007F007E007D0075
:10FD94007D007F0080008100810080007F007E0064
:10FDA4007D007E00800080008000800080007F0055
:10FDB4007E007E007F0080008000800080007F0045
:10FDC4007F007F007F007F00800080008000800033
:10FDD4007F007F007F007F00800080008000800023
:10FDE4001744A12944441F3E9938A23E2C37964516
:10FDF400983B3D33945596334C3190619331133491
:10FE0400932036361C318F329332282C8B42912C1E
:10FE140037288B4F8D284A28885F8C280E20801A1B
:10FE240020201F227E3486222B2180438321381EEA
:10FE34008152851E481C815E841C0F0F722313138C
:10FE44001E10713873102B15754676153B177756AF
:10FE54007B174C1777627A1715095F2C6908276A94
:10FE6400653F6A6A346A694D6A6A426F6E586F6F99
:10FE7400506F6F656F6F44697361626C65640000F5
:10FE8400382062697473000000003136206269749E
:10FE940073000000232D2F263C1C1F354915184BD9
:10FEA400462A2746152D2F2A241C1F3E3815185183
:10FEB400352A27505354415455530909203D2030C5
:10FEC40078253032782052585F44523D25782054AA
:10FED400585F44533D2578204D41585F52543D2589
:10FEE400782052585F505F4E4F3D25782054585F1C
:10FEF40046554C4C3D25780D0A003D3D3D3D3D3D6C
:10FF04003D3D3D3D3D3D3D3D3D3D204E5246204322
:10FF14006F6E66696775726174696F6E203D3D3DF1
:10FF24003D3D3D3D3D3D3D3D3D3D3D3D3D0A005258
:10FF3400657472616E736D697409203D20256420B7
:10FF440075730A00435243204C656E677468092038
:10FF54003D2025730A00446174612052617465096F
:10FF6400203D2025730A00504120506F77657209A7
:10FF7400203D2025730A0044594E50442F464541E4
:10FF8400545552450052585F414444525F50302DFD
:10FF9400310052585F414444525F50322D35005273
:10FFA400585F50575F50302D3600454E5F525841D0
:10FFB4004444520054585F41444452090052465F3D
:10FFC400534554555000434F4E464947090020308D
:10FFD400782530327800454E5F4141090052465F32
:10FFE40043480900257309203D00534F554E4400F2
:0BFFF4003452454356002030780000D6
:020000040001F9
:100000000501C451D8B407EF80F009EF80F0CEEFBE
:1000100082F07AEC8BF00009D8B411EF80F013EF86
:1000200080F015EF80F0CEEF82F0000E146E0F0E10
:10003000136E89EC92F084EF82F0000E146E040EC1
:10004000136E89EC92F021EE70F1070EDE6AE8067D
:10005000FDE2000E68EC91F013C570F514C571F562
:10006000010E68EC91F013C572F514C573F5050126
:10007000C851C9EC91F0020E1326000E142213C5CC
:10008000F6F414C5F7F4000EF86E0800F55076EC9F
:1000900091F013C574F514C575F5030E68EC91F075
:1000A00013C576F514C577F5700E136E050E146E34
:1000B000FFEC8DF06CEF80F0C951D8B462EF80F0A6
:1000C00064EF80F068EF80F0040ECB6FCAEF82F02F
:1000D0000D0ECB6FCAEF82F00501CA51226E236A62
:1000E0002350000AD8B477EF80F064EF80F02250FC
:1000F000000AD8B464EF80F0050AD8B45CEF80F051
:1001000064EF80F0C851C9EC91F013C56CF514C5CB
:100110006DF56CC518F56DC519F5BBEC8CF00501D6
:10012000C951D8B496EF80F098EF80F09CEF80F042
:100130000B0ECB6FCAEF82F0030ECB6FCAEF82F0CB
:1001400083EC92F00501C951D8B4A9EF80F0ABEF70
:1001500080F064EF80F0090E0501CB6FCAEF82F0EA
:10016000C851BFEC91F013C56EF514C56FF56EC59F
:1001700018F56FC519F5BBEC8CF0C8EF80F0050ED3
:100180000501CB6FCAEF82F0020ECB6FCAEF82F08F
:100190000501CA51226E236A2350000AD8B4D3EF56
:1001A00080F0CAEF82F02250010AD8B4C4EF80F088
:1001B000020AD8B4BFEF80F00F0AD8B4BFEF80F0C6
:1001C000CAEF82F021EE78F1070EDE6AE806FDE262
:1001D0002B0E76EC91F013C578F514C579F5010E68
:1001E00068EC91F013C57AF514C57BF5020E68EC46
:1001F00091F013C57CF514C57DF52D0E76EC91F0CC
:1002000013C57EF514C57FF5780E136E050E146EBA
:10021000FFEC8DF01EEF81F0C951D8B412EF81F0E0
:1002200014EF81F016EF81F068EF80F0060ECB6FCF
:10023000CAEF82F0010ECB6FCAEF82F00501CA51FE
:10024000226E236A2350000AD8B429EF81F01AEFF6
:1002500081F02250040AD8B40CEF81F01AEF81F03B
:10026000000E146E050E136E89EC92F021EE80F1F3
:10027000070EDE6AE806FDE2000E68EC91F013C599
:1002800080F514C581F5010E68EC91F013C582F577
:1002900014C583F5C6C513F50501C751CEEC8EF024
:1002A000020E1326000E142213C5F6F414C5F7F43B
:1002B000000EF86E0800F55076EC91F013C584F549
:1002C00014C585F5030E68EC91F013C586F514C5C9
:1002D00087F5800E136E050E146EFFEC8DF0ABEFFC
:1002E00080F0000E146E070E136E89EC92F021EE72
:1002F00088F1070EDE6AE806FDE2000E68EC91F078
:1003000013C588F514C589F5C6C513F5C5C514F51B
:100310000501C75159EC89F076EC91F013C58AF5C7
:1003200014C58BF5020E68EC91F013C58CF514C55D
:100330008DF5030E68EC91F013C58EF514C58FF59D
:10034000880E136E050E146EFFEC8DF00A0E05017B
:10035000CB6FCAEF82F0000E146E070E136E89EC9D
:1003600092F021EE90F1070EDE6AE806FDE2000E43
:1003700068EC91F013C590F514C591F50501C851CD
:10038000C9EC91F0010E1326000E142213C5F6F4E9
:1003900014C5F7F4000EF86E0800F55076EC91F0F5
:1003A00013C592F514C593F5020E68EC91F013C5D0
:1003B00094F514C595F5030E68EC91F013C596F508
:1003C00014C597F5900E136E050E146EFFEC8DF0AC
:1003D000BFEF80F0C6C513F5C5C514F5640E156EE4
:1003E000050E166EC751EAEC86F0640E186E050E07
:1003F000196EBBEC8CF009EF82F0070ECB6FCAEFE1
:1004000082F0C46BCB6BCAEF82F0080ECB6FCAEFE1
:1004100082F00501CA51226E236A2350000AD8B423
:1004200014EF82F0CAEF82F02250030AD8B405EF2D
:1004300082F0050AD8B4FDEF81F00A0AD8B401EFC2
:1004400082F0CAEF82F0C6C513F5C5C514F5680E73
:10045000156E050E166EC7517DEC87F0680E186E8E
:10046000050E196EBBEC8CF00501C951D8B43BEFF9
:1004700082F03DEF82F098EF80F09CEF80F086EC08
:1004800092F064EC92F00C0E0501CB6FCAEF82F093
:10049000FE51D8A44EEF82F050EF82F05CEF82F074
:1004A000CEEF82F0C951D8B458EF82F05AEF82F003
:1004B000ABEF80F064EF80F0CA51226E236A2350C4
:1004C000000AD8B466EF82F0CAEF82F02250050A23
:1004D000D8B4CAEF82F00E0AD8B452EF82F0CAEF55
:1004E00082F0FAC560F5FBC561F5FCC562F5FDC596
:1004F00063F5600E186E050E196EBBEC8CF00501ED
:10050000CB6BC46BCAEF82F00501CC51226E236A1B
:100510002350000AD8B48FEF82F0CAEF82F0225045
:10052000000AD8B4CAEF82F0010AD8B41DEF80F0F7
:10053000030AD8B482EF80F0010AD8B4A0EF80F0AB
:10054000070AD8B4B0EF80F0010AD8B4E2EF80F027
:10055000030AD8B430EF81F0010AD8B471EF81F00A
:100560000F0AD8B4ABEF81F0010AD8B4EAEF81F0FA
:10057000030AD8B423EF82F0010AD8B43FEF82F027
:10058000070AD8B448EF82F0010AD8B471EF82F0BC
:10059000CAEF82F0CCC5CAF5CBC5CCF51200000E6F
:1005A000266E000E276E000E1C6E000E1D6E000ED5
:1005B000206E000E216E37503810D8A4E2EF82F082
:1005C000E4EF82F0EAEF82F0000E136E000E146E7C
:1005D00009EF84F037C524F538C525F570EF83F0B1
:1005E00024C5D9F425C5DAF41350DE1807E11450F8
:1005F000DE18D8A4FEEF82F000EF83F02DEF83F039
:1006000020502110D8B407EF83F009EF83F01BEFDF
:1006100083F020EE02F02450D9262550DA2210EE85
:1006200002F02050E1262150E222DEC4E6F4DDC4CF
:10063000E5F425EF83F020EE02F02450D926255072
:10064000DA22DEC437F5DDC438F5020E2424136E39
:10065000000E2520146E09EF84F024C5D9F425C5B9
:10066000DAF4DE50135CDE501458D8B03AEF83F061
:100670003CEF83F062EF83F026502710D8B443EFAD
:1006800083F045EF83F05AEF83F026C5D9F427C5F0
:10069000DAF424C5E1F425C5E2F4DE50E65CDE5070
:1006A000E658D8A056EF83F058EF83F05AEF83F066
:1006B00062EF83F024C526F525C527F520C51CF576
:1006C00021C51DF524C520F525C521F520EE02F034
:1006D0002450D9262550DA22DEC424F5DDC425F5C0
:1006E00024502510D8A477EF83F079EF83F0F0EF52
:1006F00082F026502710D8B480EF83F082EF83F089
:10070000E4EF82F020EE02F02650D9262750DA22BC
:10071000DEC422F5DDC423F526C5D9F427C5DAF4F5
:10072000DEC416F5DDC417F51350165E1450175AC3
:10073000175009E1050E165CD8A0A1EF83F0A3EFD6
:1007400083F0E7EF83F026C5D9F427C5DAF4DEC4D9
:1007500016F5DDC417F51350165E1450175AFE0E29
:1007600016241A6EFF0E17201B6E26C5D9F427C556
:10077000DAF413C5DEF414C5DDF426C5D9F427C5B3
:10078000DAF4DEC416F5DDC417F516502624186E0B
:1007900017502720196E020E18241E6E000E192005
:1007A0001F6E1EC5D9F41FC5DAF41AC5DEF41BC5C9
:1007B000DDF420EE02F01E50D9261F50DA2222C5A9
:1007C000DEF423C5DDF41EC522F51FC523F5265032
:1007D000371807E127503818D8A4F1EF83F0F3EF6A
:1007E00083F0F9EF83F022C537F523C538F503EF21
:1007F00084F020EE02F01C50D9261D50DA2222C5CA
:10080000DEF423C5DDF4020E2624136E000E27202D
:10081000146E1200000E0C6E000E0B6E980E036E1E
:10082000050E046E020E0326000E0422D8900B342F
:10083000D96E0C34DA6ED890D936DA360350D92610
:100840000450DA22980E076E050E086ED8900B340D
:10085000E16E0C34E26ED890E136E2360750E126C4
:100860000850E222DE50E65CDE50E658D8B03BEF9E
:1008700084F03DEF84F052EF84F0980E036E050E85
:10088000046ED8900B34D96E0C34DA6ED890D93609
:10089000DA360350D9260450DA22DE2A000EDD2291
:1008A00094EF84F0980E036E050E046ED8900B340E
:1008B000D96E0C34DA6ED890D936DA360350D92690
:1008C0000450DA22980E076E050E086E020E0726F7
:1008D000000E0822D8900B34E16E0C34E26ED890F2
:1008E000E136E2360750E1260850E222DE50E65CAF
:1008F000DE50E658D8B07FEF84F081EF84F094EFBB
:1009000084F0980E036E050E046ED8900B34D96EE9
:100910000C34DA6ED890D936DA360350D926045022
:10092000DA22DE06000EDD5A0B500C10D8A49BEF25
:1009300084F09DEF84F0B5EF84F0980E036E050E01
:10094000046ED8900B34D96E0C34DA6ED890D93648
:10095000DA360350D9260450DA22DEC401F5DDC4AC
:1009600002F578EC92F01AEF85F00B040C10D8A485
:10097000BCEF84F0BEEF84F0D6EF84F0980E036EE7
:10098000050E046ED8900B34D96E0C34DA6ED89004
:10099000D936DA360350D9260450DA22DEC401F5FE
:1009A000DDC402F573EC92F01AEF85F0020E0B181D
:1009B0000C10D8A4DEEF84F0E0EF84F0F8EF84F0C0
:1009C000980E036E050E046ED8900B34D96E0C345D
:1009D000DA6ED890D936DA360350D9260450DA22A6
:1009E000DEC401F5DDC402F56EEC92F01AEF85F07D
:1009F000030E0B180C10D8A400EF85F002EF85F061
:100A00001AEF85F0980E036E050E046ED8900B3425
:100A1000D96E0C34DA6ED890D936DA360350D9262E
:100A20000450DA22DEC401F5DDC402F569EC92F06F
:100A30001AEF85F00B4A0C2A0CBE28EF85F00C50FB
:100A400009E1040E0B5CD8A028EF85F02AEF85F0B1
:100A50000EEF84F0B0EC92F0AEEC92F01200770E54
:100A6000146E060E156EB9EC90F0770E206E060E21
:100A7000216E700E226E200E236E08EC8CF0770E25
:100A80001D6E060E1E6EF40E1F6EFF0E206E2DECF8
:100A90008BF01DC568F61EC569F65DEF85F0770E13
:100AA0001D6E060E1E6EF40E1F6EFF0E206E2DECD8
:100AB0008BF01DC568F61EC569F6060168516911FF
:100AC000D8A465EF85F067EF85F04FEF85F0770EDE
:100AD0001D6E060E1E6EF40E1F6EFF0E206ED7ECFE
:100AE0008AF01DC568F61EC569F685EF85F0770E9C
:100AF0001D6E060E1E6EF40E1F6EFF0E206ED7ECDE
:100B00008AF01DC568F61EC569F6060168516911AF
:100B1000D8A48DEF85F08FEF85F077EF85F0770E15
:100B2000216E060E226E47EC91F0700E156E070EC8
:100B300091EC91F084EC91F08CEC92F023EC91F03C
:100B4000040E156E000E166E000E176E0D0E186E4A
:100B5000030EA7EC8EF02BEC8EF000EC80F04950E9
:100B6000D8B4B5EF85F0B7EF85F030EF86F0770EAB
:100B7000206E060E216E10EC91F00009D8B4C3EF80
:100B800085F0C5EF85F02FEF86F0770E196E060E13
:100B90001A6E480E1B6E060E1C6E59EC90F0480E35
:100BA000136E060E146EEE0E156EFF0E166E000E10
:100BB000186E080E176E8BEC88F013501410D8A422
:100BC000E4EF85F0E6EF85F019EF86F0060150516D
:100BD000D8B4EDEF85F0EFEF85F003EF86F020EE6F
:100BE00002F04350D9264450DA22FC0EDE6E070E86
:100BF000DD6E43C5D9F444C5DAF4EC0EDE6EED0EBD
:100C0000DD6E15EF86F020EE02F04350D9264450F9
:100C1000DA22E30EDE6E150EDD6E43C5D9F444C54F
:100C2000DAF4260EDE6EC20EDD6E8FEC92F02FEF40
:100C300086F0480E1E6E060E1F6E6A0E206E060EA1
:100C4000216E10EC88F073C615F574C616F575C6DE
:100C500017F576C618F506017251A7EC8EF0496AB1
:100C6000000E146E010E136E72EC90F0ADEF85F075
:100C7000120028502910D8A440EF86F042EF86F0E9
:100C800044EF86F0284A292A295007E1030E285C00
:100C9000D8B04DEF86F04FEF86F055EF86F0000E9E
:100CA000296E030E286E6EEF86F0281C2B6E291C11
:100CB0002C6E2C5007E1020E2B5CD8B062EF86F050
:100CC00064EF86F06EEF86F0000E406E0C0E3F6E05
:100CD000000E286E000E296EE9EF86F028C513F588
:100CE00029C514F5CFEC82F013C531F514C532F5E2
:100CF00031503210D8A47FEF86F081EF86F0E5EF17
:100D000086F03D503B5C2B6E3E503C582C6E28507C
:100D10002B5C29502C58D8B090EF86F092EF86F0DB
:100D2000C3EF86F0020E28242D6E000E29202E6EB1
:100D30002D0E136E050E146E80EC8AF013C533F57C
:100D400014C534F533503410D8A4A9EF86F0ABEFB6
:100D500086F0ADEF86F068EF86F03B50331809E17E
:100D60003C503418D8B4B7EF86F0B9EF86F0BDEF39
:100D700086F033C53DF534C53EF52D5033243B6E2A
:100D80002E5034203C6E3DC531F53EC532F531C59F
:100D90002FF532C530F52FC5D9F430C5DAF428C5A2
:100DA000DEF429C5DDF4020E2F26000E30222FC5F9
:100DB00031F530C532F5020E28242B6E000E2920A5
:100DC0002C6E2B503D262C503E2231C528F532C5C5
:100DD00029F512001F6E000E216E000E206E1350BA
:100DE000060DF3C417F5F4C418F51F501E0D450E7B
:100DF000F324196EC10EF4201A6E175019241B6EBD
:100E000018501A201C6E20501B2621501C221BC576
:100E1000F6F41CC5F7F4000EF86E20501524D96EB8
:100E200021501620DA6E0800F5C4DFF4204A212A8A
:100E300021BE24EF87F0215009E1040E205CD8A0E8
:100E400024EF87F026EF87F0EFEF86F01450D8A458
:100E50002CEF87F02EEF87F052EF87F01350060D3E
:100E6000F3C417F5F4C418F51F501E0D450EF324F6
:100E7000196EC10EF4201A6E175019241B6E1850EB
:100E80001A201C6E040E1B26000E1C221BC5F6F435
:100E90001CC5F7F4000EF86E0800F5501D6E1E6AB2
:100EA00074EF87F01350060DF3C417F5F4C418F56A
:100EB0001F501E0D450EF324196EC10EF4201A6E3C
:100EC000175019241B6E18501A201C6E050E1B2675
:100ED000000E1C221BC5F6F41CC5F7F4000EF86EBC
:100EE0000800F5501D6E1E6A20EE01F01550D9263F
:100EF0001650DA221DC5DFF412001F6E000E216E9F
:100F0000000E206E1350060DF3C417F5F4C418F547
:100F10001F501E0DE40EF324196EFD0EF4201A6E00
:100F2000175019241B6E18501A201C6E20501B26B7
:100F300021501C221BC5F6F41CC5F7F4000EF86EF8
:100F400020501524D96E21501620DA6E0800F5C401
:100F5000DFF4204A212A21BEB7EF87F0215009E1B2
:100F6000040E205CD8A0B7EF87F0B9EF87F082EFCE
:100F700087F01450D8A4BFEF87F0C1EF87F0E5EFFA
:100F800087F01350060DF3C417F5F4C418F51F507D
:100F90001E0DE40EF324196EFD0EF4201A6E175088
:100FA00019241B6E18501A201C6E040E1B26000EEE
:100FB0001C221BC5F6F41CC5F7F4000EF86E0800E1
:100FC000F5501D6E1E6A07EF88F01350060DF3C42E
:100FD00017F5F4C418F51F501E0DE40EF324196E16
:100FE000FD0EF4201A6E175019241B6E18501A208B
:100FF0001C6E050E1B26000E1C221BC5F6F41CC51C
:10100000F7F4000EF86E0800F5501D6E1E6A20EE13
:1010100001F01550D9261650DA221DC5DFF4120052
:101020001E501F10D8B417EF88F019EF88F08AEF20
:1010300088F020502110D8A420EF88F022EF88F00B
:1010400024EF88F08AEF88F020C513F521C514F548
:101050001EC515F51FC516F5000E186E080E176E85
:101060007FEC8EF020EE08F01E50D9261F50DA22B9
:1010700010EE08F02050E1262150E222DFC4E7F410
:1010800020EE09F01E50D9261F50DA2210EE09F08A
:101090002050E1262150E222DFC4E7F420EE0AF0DE
:1010A0001E50D9261F50DA2210EE0AF02050E126F9
:1010B0002150E222DFC4E7F420EE0BF02050D926C5
:1010C0002150DA2210EE0BF01E50E1261F50E222D2
:1010D000E750D8A46EEF88F071EF88F0010E72EF40
:1010E00088F0000EDF6E20EE0CF02050D926215043
:1010F000DA2210EE0CF01E50E1261F50E222E750DB
:10110000D8A485EF88F088EF88F0010E89EF88F089
:10111000000EDF6E12001706D8A01806172806E189
:101120001828D8A496EF88F098EF88F0A5EF88F0FB
:10113000000E146E000E136EF3EF88F0134A142A9B
:10114000154A162A1706D8A0180613C5D9F414C5CF
:10115000DAF4DF50D8B4AFEF88F0B1EF88F0E0EF09
:1011600088F015C5F6F416C5F7F4000EF86E080001
:10117000F5500009D8B4BFEF88F0C1EF88F0E0EF78
:1011800088F017501810D8B4C8EF88F0CAEF88F06C
:10119000E0EF88F013C5D9F414C5DAF4DF50196E06
:1011A00015C5F6F416C5F7F4000EF86E0800F550F4
:1011B0001918D8B4DEEF88F0E0EF88F09EEF88F0E1
:1011C00013C5D9F414C5DAF4DF50196E15C5F6F459
:1011D00016C5F7F4000EF86E0800F550195C136E92
:1011E000146AD8A014061200136E000184BFFBEF2E
:1011F00088F0FDEF88F058EF89F01350050D170EB9
:10120000F324F66EC20EF420F76EF86A000EF82290
:101210000800F5C484F01350050D010EF326000EEE
:10122000F422170EF324F66EC20EF420F76EF86A5D
:10123000000EF8220800F5C485F01350050D020ECB
:10124000F326000EF422170EF324F66EC20EF420DD
:10125000F76EF86A000EF8220800F550FC0B866F56
:101260001350050D030EF326000EF422170EF3247F
:10127000F66EC20EF420F76EF86A000EF82208002F
:10128000F5C489F01350050D040EF326000EF42268
:10129000170EF324F66EC20EF420F76EF86A000EF5
:1012A000F8220800F5C48CF0C896848F58EF89F0B6
:1012B00012001D6E050E1D6060EF89F062EF89F06F
:1012C000BBEF89F0050E136068EF89F06AEF89F0D3
:1012D000BBEF89F01450D8A470EF89F072EF89F059
:1012E00096EF89F01350060DF3C415F5F4C416F506
:1012F0001D501E0DE40EF324176EFD0EF420186E23
:1013000015501724196E165018201A6E040E19263F
:10131000000E1A2219C5F6F41AC5F7F4000EF86E7D
:101320000800F5501B6E1C6AB8EF89F01350060DCB
:10133000F3C415F5F4C416F51D501E0DE40EF32488
:10134000176EFD0EF420186E15501724196E1650E6
:1013500018201A6E050E1926000E1A2219C5F6F469
:101360001AC5F7F4000EF86E0800F5501B6E1C6AE3
:101370001B50BCEF89F0000E1200BE6ABF6AC06A43
:10138000C16AC26AC36A0401026B0A6B126B1A6BF0
:10139000226B2A6BFB0EC66EF00EC76E8E0EC86EE9
:1013A000C9680F0ECA6ECB6800690869810E106F9C
:1013B0001869070E206F2869016B096B116B196B97
:1013C000216B296B03690B6913691B69070E236F76
:1013D0002B6904690C6914691C690F0E246F2C6950
:1013E0000201896B886B876B866B120E6B6F320EF6
:1013F000156F1C0E0C6F1D0E0B6F1A0E0A6F1B0E55
:10140000096F180E116F130E6A6F310E146F0401FD
:10141000056B066B076B0D6B0E6B0F6B156B020E7E
:10142000166F176B256B266B276B6A0E136E250ED6
:10143000146E010E156E31EC92F09E8E1200FAC4FD
:101440000DF5FBC40EF5F6C40FF5F7C410F5F8C49E
:1014500011F5F5C412F59EAE30EF8AF032EF8AF046
:101460003DEF8AF0AEAE37EF8AF039EF8AF03DEF0C
:101470008AF0B4EC91F073EF8AF0A1AE42EF8AF0FB
:1014800044EF8AF04FEF8AF0B1AE49EF8AF04BEFAC
:101490008AF04FEF8AF09DEC8FF073EF8AF0A1A6EF
:1014A00054EF8AF056EF8AF061EF8AF0B1A65BEF55
:1014B0008AF05DEF8AF061EF8AF058EC91F073EFFB
:1014C0008AF0A1A866EF8AF068EF8AF073EF8AF0DD
:1014D000B1A86DEF8AF06FEF8AF073EF8AF07DECC0
:1014E0008FF073EF8AF012C5F5F411C5F8F410C54A
:1014F000F7F40FC5F6F40EC5FBF40DC5FAF41100B0
:1015000013C5D9F414C5DAF4DEC418F5DDC419F531
:1015100039503A10D8A48FEF8AF091EF8AF095EF06
:101520008AF0000E396E250E3A6E195007E1050E4D
:10153000185CD8B09EEF8AF0A0EF8AF0A4EF8AF092
:10154000000E196E050E186E1850395C1A6E19507F
:101550003A581B6E7D0E166E060E176E16501A5CEC
:1015600017501B58D8A0B7EF8AF0B9EF8AF0C4EF34
:101570008AF039501A5C3A501B58D8A0C2EF8AF052
:10158000C4EF8AF0CEEF8AF0000E406E0C0E3F6E74
:10159000000E136E000E146ED6EF8AF01AC539F5E0
:1015A0001BC53AF539C513F53AC514F51200000EFE
:1015B0002A6E000E296E1FC519F520C51AF5050EF5
:1015C0001B6E0A0E40EC90F01FC519F520C51AF5E8
:1015D000050E1B6E100E40EC90F0240E196E050ED9
:1015E0001A6E050E1B6E0A0E8AEC90F0000E2C6E21
:1015F000000E2B6E240E2B24D96E050E2C20DA6ED5
:101600002B501F24226E2C502020236E22C5F6F46E
:1016100023C5F7F4000EF86EDE500900F518D8B4B3
:1016200014EF8BF016EF8BF018EF8BF029682A6817
:101630002B4A2C2A2CBE26EF8BF02C5009E1050EEC
:101640002B5CD8A026EF8BF028EF8BF0FAEF8AF016
:1016500029C51DF52AC51EF51200000E2A6E000EC2
:10166000296E1FC519F520C51AF5050E1B6E0B0E48
:1016700040EC90F0240E196E050E1A6E050E1B6ECE
:101680000B0E8AEC90F0000E2C6E000E2B6E240ECA
:101690002B24D96E050E2C20DA6E2B501F24226EBF
:1016A0002C502020236E22C5F6F423C5F7F4000E3B
:1016B000F86EDE500900F518D8B461EF8BF063EFD7
:1016C0008BF065EF8BF029682A682B4A2C2A2CBEF8
:1016D00073EF8BF02C5009E1050E2B5CD8A073EF53
:1016E0008BF075EF8BF047EF8BF029C51DF52AC500
:1016F0001EF51200000E1C6E000E1B6E980E136E6F
:10170000050E146E020E1326000E1422D8901B3400
:10171000D96E1C34DA6ED890D936DA361350D92601
:101720001450DA22980E176E050E186ED8901B34DE
:10173000E16E1C34E26ED890E136E2361750E126B5
:101740001850E222DE50E61809E1DE50E618D8B45F
:10175000ACEF8BF0AEEF8BF0B1EF8BF0010EC2EF80
:101760008BF01B4A1C2A1CBEBFEF8BF01C5009E1FA
:10177000040E1B5CD8A0BFEF8BF0C1EF8BF07EEFA7
:101780008BF0000E1200780EF66E1F0EF76E010E33
:10179000F86E01EE00F210EE38F00900F5C4EEF438
:1017A000E550E150FAE1420EF66E250EF76E010E9D
:1017B000F86E01EEFAF110EE05F00900F5C4EEF452
:1017C000E550E150FAE16C0EF66E250EF76E010E53
:1017D000F86E0900F5C44DF501EE38F2300EEE6AF0
:1017E000E806FDE101EE98F1350EEE6AE806FDE14E
:1017F00001EE37F1130EEE6AE806FDE10401080E72
:101800005D6F000E5E6F000E5F6F000127EF90F0BE
:1018100020EE01F02050D9262150DA2222C5DFF433
:1018200020EE02F02050D9262150DA2223C5DFF421
:1018300020C51DF521C51EF5A9EC91F022C515F5B1
:10184000050E91EC91F020EE02F02050D9262150A7
:10185000DA22DF50156E110E91EC91F020EE02F0BD
:101860002050D9262150DA22DF50156E120E91EC4D
:1018700091F020C517F521C518F535EC91F020C57C
:1018800015F521C516F54DEC92F0120041C501F594
:1018900042C502F5D8900136023643C5D9F444C595
:1018A000DAF4DEC403F5DDC404F501500324056E4B
:1018B00002500420066E05C5F6F406C5F7F4000EC6
:1018C000F86E0800F5C47DF020EE02F04350D926F2
:1018D0004450DA224150036E4250046E414A422A7B
:1018E000DE50035CDE500458D8A079EF8CF07BEF1B
:1018F0008CF081EF8CF098EC92F0000E426E000EAE
:10190000416E1200A4EF8CF09C0E146E400E136E0C
:101910005FEC92F0B8EF8CF0EA0E146E600E136E6E
:101920005FEC92F0B8EF8CF0270E146E100E136E71
:101930005FEC92F0B8EF8CF0000E146E640E136E34
:101940005FEC92F0B8EF8CF00501C851000AD8B4F2
:1019500084EF8CF0010AD8B48CEF8CF0030AD8B471
:1019600094EF8CF0010AD8B49CEF8CF0B8EF8CF0B7
:10197000A8EC92F0120018501910D8B4C2EF8CF0F5
:10198000C4EF8CF0F3EF8CF01C6A1C5018241A6E14
:10199000000E19201B6E1AC5F6F41BC5F7F4000ED5
:1019A000F86E250EF76403D00800F55005D0F6C494
:1019B000E9F4F7C4EAF4EF5076EC91F01C50040D12
:1019C0009A0EF324D96E050EF420DA6E13C5DEF4F8
:1019D00014C5DDF41C2A030E1C64F1EF8CF0F3EF48
:1019E0008CF0C5EF8CF012002B0E76EC91F013C545
:1019F00098F514C599F52B0E76EC91F013C59AF570
:101A000014C59BF52D0E76EC91F013C59CF514C50D
:101A10009DF52D0E76EC91F013C59EF514C59FF53E
:101A20001C0E76EC91F013C5A0F514C5A1F51C0EA3
:101A300076EC91F013C5A2F514C5A3F52D0E76EC46
:101A400091F013C5A4F514C5A5F52D0E76EC91F013
:101A500013C5A6F514C5A7F51200020E1F6433EFD7
:101A60008DF035EF8DF037EF8DF063EF8DF0200EB8
:101A7000196E050E1A6E010E1B6E060E8AEC90F0A2
:101A8000020E1F18D8A447EF8DF049EF8DF056EFE6
:101A90008DF020502009206E2050F70B206E20C5BD
:101AA00015F5060E91EC91F063EF8DF02050D70BF9
:101AB000206E1F38E842F80B2010206E20C515F567
:101AC000060E91EC91F012007E6A020E7F6E806A23
:101AD0008168F90E826E130E836E846A856A866A47
:101AE000886A896A7D0E8A6E8B6A7D0E8C6EB59CC3
:101AF000B59E85908592A59EA59C000E136E000E46
:101B0000146E000E156EF9EC91F0000E136E000EBF
:101B1000146E000E156EF2EC91F0000E136E000EB6
:101B2000146E000E156E00EC92F0800E876E12009F
:101B30006F6A020E706E716A7268F90E736E130E20
:101B4000746E756A766A776A796A7A6A7D0E7B6ED8
:101B50007C6A7D0E7D6EB39CB39E76907692A39E3A
:101B6000A39C000E136E000E146E000E156E0EEC8C
:101B700092F0000E136E000E146E000E156E07EC40
:101B800092F0000E136E000E146E000E156E15EC22
:101B900092F0800E786E1200606A020E616E626AC8
:101BA0007F0E636E646A130E656E666A676A686AA2
:101BB0006A6A2C0E6B6E6C6A6D6A6E6AB29CB29E1B
:101BC00067906792A29EA29C000E136E000E146E88
:101BD000000E156E23EC92F0000E136E000E146EC4
:101BE000000E156E1CEC92F0000E136E000E146EBB
:101BF000000E156E2AEC92F0800E696E12001350E2
