:040000000DEF00F010
:040008003CEF84F055
:06001800FF002CEF85F053
:10FE5000003611010000004604010000000000000F
:10FE6000000000000000DA0F0100000000000000A8
:10FE700000000000000000000000000610019412C5
:10FE8000018E12010000008E110100000002C0006E
:10FE9000FF0002C000FF00024000000044697361DF
:10FEA000626C6564000038206269747300000000B1
:10FEB0003136206269747300000053544154555325
:10FEC0000909203D203078253032782052585F448F
:10FED000523D25782054585F44533D2578204D41AC
:10FEE000585F52543D25782052585F505F4E4F3D29
:10FEF00025782054585F46554C4C3D25780D0A0016
:10FF00003D3D3D3D3D3D3D3D3D3D3D3D3D3D3D3D21
:10FF1000204E524620436F6E666967757261746940
:10FF20006F6E203D3D3D3D3D3D3D3D3D3D3D3D3DBB
:10FF30003D3D3D0A0052657472616E736D697409CE
:10FF4000203D2025642075730A00435243204C65F0
:10FF50006E67746809203D2025730A00446174614E
:10FF6000205261746509203D2025730A005041200C
:10FF7000506F77657209203D2025730A0044594E61
:10FF800050442F464541545552450052585F414414
:10FF900044525F50302D310052585F414444525F0B
:10FFA00050322D350052585F50575F50302D36007B
:10FFB000454E5F5258414444520054585F414444B6
:10FFC00052090052465F534554555000434F4E4628
:10FFD000494709002030782530327800454E5F418E
:10FFE00041090052465F43480900257309203D003E
:10FFF00032524543560050494E47002030780000A9
:020000040001F9
:10000000000E0C6E000E0B6E3F0E036E050E046E9E
:10001000020E0326000E0422D8900B34D96E0C3445
:10002000DA6ED890D936DA360350D9260450DA225F
:100030003F0E076E050E086ED8900B34E16E0C343F
:10004000E26ED890E136E2360750E1260850E2220F
:10005000DE50E65CDE50E658D8B031EF80F033EF8A
:1000600080F048EF80F03F0E036E050E046ED890CE
:100070000B34D96E0C34DA6ED890D936DA36035098
:10008000D9260450DA22DE2A000EDD228AEF80F023
:100090003F0E036E050E046ED8900B34D96E0C34EF
:1000A000DA6ED890D936DA360350D9260450DA22DF
:1000B0003F0E076E050E086E020E0726000E082280
:1000C000D8900B34E16E0C34E26ED890E136E23613
:1000D0000750E1260850E222DE50E65CDE50E6588A
:1000E000D8B075EF80F077EF80F08AEF80F03F0EA8
:1000F000036E050E046ED8900B34D96E0C34DA6E94
:10010000D890D936DA360350D9260450DA22DE06E2
:10011000000EDD5A0B500C10D8A491EF80F093EF35
:1001200080F0ABEF80F03F0E036E050E046ED890AA
:100130000B34D96E0C34DA6ED890D936DA360350D7
:10014000D9260450DA22DEC401F5DDC402F53EEC06
:1001500089F010EF81F00B040C10D8A4B2EF80F0FE
:10016000B4EF80F0CCEF80F03F0E036E050E046E0E
:10017000D8900B34D96E0C34DA6ED890D936DA3682
:100180000350D9260450DA22DEC401F5DDC402F59D
:1001900039EC89F010EF81F0020E0B180C10D8A486
:1001A000D4EF80F0D6EF80F0EEEF80F03F0E036EDC
:1001B000050E046ED8900B34D96E0C34DA6ED890DC
:1001C000D936DA360350D9260450DA22DEC401F5D6
:1001D000DDC402F534EC89F010EF81F0030E0B184A
:1001E0000C10D8A4F6EF80F0F8EF80F010EF81F05B
:1001F0003F0E036E050E046ED8900B34D96E0C348E
:10020000DA6ED890D936DA360350D9260450DA227D
:10021000DEC401F5DDC402F52FEC89F010EF81F0AA
:100220000B4A0C2A0CBE1EEF81F00C5009E1040EA3
:100230000B5CD8A01EEF81F020EF81F004EF80F07E
:1002400058EC89F056EC89F01200270E106E060E5D
:10025000116EC1EC87F0270E1C6E060E1D6E700E1F
:100260001E6E200E1F6E7BEC84F0270E196E060E9C
:100270001A6EF00E1B6EFF0E1C6E9EEC83F019C5FD
:1002800025F61AC526F653EF81F0270E196E060ED5
:100290001A6EF00E1B6EFF0E1C6E9EEC83F019C5DD
:1002A00025F61AC526F6060125512611D8A45BEFBE
:1002B00081F05DEF81F045EF81F0270E196E060E9B
:1002C0001A6EF00E1B6EFF0E1C6E46EC83F019C505
:1002D00025F61AC526F67BEF81F0270E196E060E5D
:1002E0001A6EF00E1B6EFF0E1C6E46EC83F019C5E5
:1002F00025F61AC526F6060125512611D8A483EF46
:1003000081F085EF81F06DEF81F0270E1D6E060EF6
:100310001E6E61EC88F0700E116E070E8FEC88F087
:1003200005019D51D8B497EF81F099EF81F0F1EF7D
:1003300081F0270E1C6E060E1D6E18EC88F0000969
:10034000D8B4A5EF81F0A7EF81F0F1EF81F0270E8F
:10035000156E060E166E9E0E176E050E186E78EC54
:1003600087F00501BD6B9E0E0F6E050E106EF60E2A
:10037000116EFF0E126EB9EC84F00F501010D8A45D
:10038000C4EF81F0C6EF81F0E1EF81F021EE80F162
:1003900011EE20F2040EDBC4E3F4E806FCE2270EC3
:1003A0001C6E060E1D6E200E1E6E060E1F6EEDECF0
:1003B00083F0E1EF81F0000E106E010E0F6E91ECF4
:1003C00087F0270E1C6E060E1D6E52EC86F000099B
:1003D000D8A4EDEF81F0EFEF81F0DBEF81F00501C4
:1003E0009D6B21EE60F111EE00F21F0EDBC4E3F411
:1003F000E806FCE2270E1C6E060E1D6E000E1E6E39
:10040000060E1F6EEDEC83F0270E1C6E060E1D6EA1
:10041000030E1F6EE80E1E6EE9EC82F0110E050150
:10042000D96F3C0ED86FCB0EE82EFED7D82FFCD755
:10043000D92FFAD7000E106E010E0F6E91EC87F0D7
:1004400090EF81F012000F6E000184BF2AEF82F05E
:100450002CEF82F087EF82F00F50050D8D0EF32404
:10046000F66EFE0EF420F76EF86A000EF822080011
:10047000F5C484F00F50050D010EF326000EF42292
:100480008D0EF324F66EFE0EF420F76EF86A000E61
:10049000F8220800F5C485F00F50050D020EF32672
:1004A000000EF4228D0EF324F66EFE0EF420F76E8D
:1004B000F86A000EF8220800F550FC0B866F0F500A
:1004C000050D030EF326000EF4228D0EF324F66EB6
:1004D000FE0EF420F76EF86A000EF8220800F5C44C
:1004E00089F00F50050D040EF326000EF4228D0E38
:1004F000F324F66EFE0EF420F76EF86A000EF82272
:100500000800F5C48CF0C896848F87EF82F0120043
:10051000BE6ABF6AC06AC16AC26AC36A0401026B6A
:100520000A6B126B1A6B226B2A6BC668F00EC76ED1
:100530008E0EC86EC9680F0ECA6ECB680069086956
:10054000810E106F1869070E206F2869016B096B07
:10055000116B196B216B296B03690B6913691B699B
:10056000070E236F2B6904690C6914691C690F0E4F
:10057000246F2C690201896B886B876B866B120E66
:100580006B6F320E156F1C0E0C6F1D0E0B6F1A0E5B
:100590000A6F1B0E096F180E116F130E6A6F310E62
:1005A000146F0401056B066B076B0D6B0E6B0F6B05
:1005B000156B020E166F176B256B266B276BB80E2B
:1005C0000F6E120E106E010E116E0DEC89F09E8EE4
:1005D00012001CC5D9F41DC5DAF4DF50D8B4F3EF0E
:1005E00082F0F5EF82F045EF83F0000E0501D16F48
:1005F000000ED26F000ED36F000ED46F2DEF83F07C
:100600001CC519F51DC51AF5A7EC88F00501D56FB5
:10061000D5AB0DEF83F00FEF83F017EF83F01CC520
:1006200013F51DC514F53EEC88F045EF83F0D5A910
:100630001CEF83F01EEF83F020EF83F00FEF83F0C9
:10064000000E106E010E0F6E91EC87F0010E050189
:10065000D127000ED223D323D4231EC5CDF51FC529
:10066000CEF5000ECEBFFF0ECF6FD06FCD51D15D56
:10067000CE51D259CF51D359D051D459D8A043EFEC
:1006800083F045EF83F000EF83F01200000E0501C8
:10069000D36F000ED26F1BC515F51CC516F5050EE0
:1006A000176E0A0E5FEC87F01BC515F51CC516F515
:1006B000050E176E100E5FEC87F0CD0E156E050E51
:1006C000166E050E176E0A0EA9EC87F0000E0501D6
:1006D000D56F000ED46FCD0ED425D96E050ED52161
:1006E000DA6ED4511B241E6ED5511C201F6E1EC500
:1006F000F6F41FC5F7F4000EF86EDE500900F51889
:10070000D8B485EF83F087EF83F089EF83F0D26967
:10071000D369D44BD52BD5BF97EF83F0D55109E1E1
:10072000050ED45DD8A097EF83F099EF83F06BEFBF
:1007300083F0D2C519F5D3C51AF51200000E0501D4
:10074000D36F000ED26F1BC515F51CC516F5050E2F
:10075000176E0B0E5FEC87F0CD0E156E050E166E44
:10076000050E176E0B0EA9EC87F0000E0501D56F74
:10077000000ED46FCD0ED425D96E050ED521DA6EBC
:10078000D4511B241E6ED5511C201F6E1EC5F6F4BD
:100790001FC5F7F4000EF86EDE500900F518D8B446
:1007A000D4EF83F0D6EF83F0D8EF83F0D269D3692A
:1007B000D44BD52BD5BFE6EF83F0D55109E1050E1B
:1007C000D45DD8A0E6EF83F0E8EF83F0BAEF83F0D2
:1007D000D2C519F5D3C51AF512001CC519F51DC5EA
:1007E0001AF5A7EC88F00FEF84F01CC519F51DC5AC
:1007F0001AF5A7EC88F00501CD6FCDC520F5300EB8
:100800002016D8B406EF84F008EF84F00FEF84F0E0
:100810001CC5D9F41DC5DAF4DF6A1BEF84F01CC5D2
:10082000D9F41DC5DAF4DF50D8A419EF84F01BEF1A
:1008300084F0F5EF83F0C09A1CC513F51DC514F5BF
:1008400050EC88F0C09CE10EEDEC87F0C08CC09CB1
:10085000A00EEDEC87F01EC511F51FC512F520EEB8
:1008600002F01C50D9261D50DA22DF50136EFEEC28
:1008700085F0C08CC08A1200FAC40DF5FBC40EF5D9
:100880009EAE45EF84F047EF84F052EF84F0AEAEB9
:100890004CEF84F04EEF84F052EF84F0B2EC88F02D
:1008A00076EF84F0A1AE57EF84F059EF84F064EF57
:1008B00084F0B1AE5EEF84F060EF84F064EF84F01A
:1008C0009BEC86F076EF84F0A1A669EF84F06BEFE5
:1008D00084F076EF84F0B1A670EF84F072EF84F0CC
:1008E00076EF84F02BEC87F076EF84F00EC5FBF406
:1008F0000DC5FAF4110020EE01F01C50D9261D5050
:10090000DA221EC5DFF420EE02F01C50D9261D505D
:10091000DA221FC5DFF41CC519F51DC51AF5A7ECB1
:1009200088F01EC511F5050E8FEC88F020EE02F060
:100930001C50D9261D50DA22DF50116E110E8FEC9B
:1009400088F020EE02F01C50D9261D50DA22DF502C
:10095000116E120E8FEC88F01CC513F51DC514F531
:100960003EEC88F01CC511F51DC512F529EC89F087
:100970001200BFEF84F00F4A102A114A122A0FC545
:10098000D9F410C5DAF4DF50136E11C5F6F412C5B0
:10099000F7F4000EF86E0800F5501318D8A4D3EF42
:1009A00084F0D5EF84F0E1EF84F00FC5D9F410C5E1
:1009B000DAF4DF50D8A4DFEF84F0E1EF84F0BBEF8E
:1009C00084F00FC5D9F410C5DAF4DF50136E11C5E9
:1009D000F6F412C5F7F4000EF86E0800F550135C3B
:1009E0000F6E106AD8A010061200020E1B64FBEFF7
:1009F00084F0FDEF84F0FFEF84F02BEF85F01C0E08
:100A0000156E050E166E010E176E060EA9EC87F018
:100A1000020E1B18D8A40FEF85F011EF85F01EEF22
:100A200085F01C5020091C6E1C50F70B1C6E1CC559
:100A300011F5060E8FEC88F02BEF85F01C50D70BCC
:100A40001C6E1B38E842F80B1C101C6E1CC511F5FF
:100A5000060E8FEC88F01200E40EF66E100EF76EA4
:100A6000010EF86E01EE2AF210EE20F00900F5C436
:100A7000EEF4E550E150FAE1740EF66E0D0EF76EED
:100A8000010EF86E01EE60F110EE3DF00900F5C4C4
:100A9000EEF4E550E150FAE101EE9DF1210EEE6A2F
:100AA000E806FDE101EE3FF1130EEE6AE806FDE116
:100AB0000401080E5D6F000E5E6F000E5F6F000197
:100AC000D9EF86F07E6A020E7F6E806A8168F90E29
:100AD000826E130E836E846A856A866A886A896A62
:100AE0007D0E8A6E8B6A7D0E8C6EB59CB59E859050
:100AF0008592A59EA59C000E0F6E000E106E000E36
:100B0000116ED5EC88F0000E0F6E000E106E000E08
:100B1000116ECEEC88F0000E0F6E000E106E000EFF
:100B2000116EDCEC88F0800E876E12006F6A020E88
:100B3000706E716A7268F90E736E130E746E756A58
:100B4000766A776A796A7A6A7D0E7B6E7C6A7D0E38
:100B50007D6EB39CB39E76907692A39EA39C000E6E
:100B60000F6E000E106E000E116EEAEC88F0000E93
:100B70000F6E000E106E000E116EE3EC88F0000E8A
:100B80000F6E000E106E000E116EF1EC88F0800EEC
:100B9000786E1200606A020E616E626A6368F90E16
:100BA000646E130E656E666A676A686A6A6A6B6A63
:100BB0007D0E6C6E6D6A7D0E6E6EB29CB29E6790FD
:100BC0006792A29EA29C000E0F6E000E106E000E89
:100BD000116EFFEC88F0000E0F6E000E106E000E0E
:100BE000116EF8EC88F0000E0F6E000E106E000E05
:100BF000116E06EC89F0800E696E1200C09C146ABA
:100C00001EEF86F011C5F6F412C5F7F4000EF86E6B
:100C1000250EF76403D00800F55005D0F6C4E9F4BA
:100C2000F7C4EAF4EF50EDEC87F0114A122A000EF7
:100C3000106E0A0E0F6E29EC86F0142A1350145C05
:100C4000D8A025EF86F027EF86F002EF86F0C08C63
:100C5000120033EF86F0AA0EE82EFED700D0200E49
:100C60000F5E000E105A105007E1200E0F5CD8B036
:100C70003CEF86F03EEF86F02BEF86F044EF86F0F7
:100C8000050EE82EFED700000F06D8A010060F288C
:100C900006E11028D8A44FEF86F051EF86F040EF20
:100CA00086F012001CC5D9F41DC5DAF4DF50D8B4A3
:100CB0005CEF86F05EEF86F076EF86F01CC519F5E6
:100CC0001DC51AF5A7EC88F01F6E1FC51EF5300E66
:100CD0001E16D8B46EEF86F070EF86F079EF86F0CE
:100CE0001CC513F51DC514F53EEC88F0000E7AEF17
:100CF00086F0010E1200D69AAF90D680000E0F6ECD
:100D0000000E106E000E116E22EC89F0B490D682A7
:100D1000000E0F6E000E106E000E116E1BEC89F0AF
:100D2000B890D684000E0F6E000E106E000E116E7D
:100D300014EC89F0120050500301196F4FC518F3DD
:100D40000501C151C211C311D8B4A9EF86F0ABEFB0
:100D500086F0B8EF86F002D8B8EF86F00500FA6E9C
:100D6000C151FD6EC251FE6EC351FF6EFA501200AA
:100D7000B19E120050494E470000000000000000E4
:100D80000000000000000000000000000000000063
:100D90000000000050494E4700314D627073000062
:100DA00000324D6270730000003235304B62707358
:010DB0000042
:100DB2002BEC88F0D68E4AEC89F0860E0F6E120E5E
:100DC200106E010E116E0DEC89F04DEC89F047ECBE
:100DD20089F082EC88F054EC89F0000E0501D66FA0
:100DE200000ED76F25EC81F00DEF00F0C09C146A65
:100DF20006EF87F0FF0EEDEC87F011C5D9F412C5AE
:100E0200DAF4DF6E114A122A142A1350145CD8A0A5
:100E12000DEF87F00FEF87F0FBEF86F0C08C12002A
:100E2200850E0301196FEE0E186F7B0E1B6F1951A1
:100E32000F6E18514F6E0FC550F5B60E0501C16FFA
:100E4200120EC26F010EC36FB19EA18E900E0301EE
:100E52001A6F1200B1960501BE51BF11C011D8B46C
:100E620035EF87F037EF87F044EF87F002D844EF91
:100E720087F00500FA6EBE51FD6EBF51FE6EC05185
:100E8200FF6EFA5012001200215022102310D8B423
:100E92004DEF87F04FEF87F05CEF87F002D85CEF01
:100EA20087F00500FA6E2150FD6E2250FE6E23502F
:100EB200FF6EFA501200040117931200186E1750B9
:100EC200D8B466EF87F068EF87F077EF87F0C09CC1
:100ED20018501F0B2009EDEC87F015C511F516C54A
:100EE20012F517C513F5FEEC85F0C08C1200C09CFC
:100EF200610EEDEC87F017C511F518C512F520EE5D
:100F020002F01550D9261650DA22DF50136EF7EC94
:100F120086F0C08C400E116E070E8FEC88F0120026
:100F22009BEF87F0150E116EC60EE82EFED7112E1E
:100F3200FCD700D00F06D8A010060F2806E1102813
:100F4200D8A4A6EF87F0A8EF87F093EF87F01200FE
:100F5200186E1750D8B4B0EF87F0B2EF87F0C0EF39
:100F620087F0C09C18501F0BEDEC87F015C511F5EA
:100F720016C512F517C513F5F7EC86F0C08C1200F2
:100F8200000E23EC82F020EE01F01050D926115011
:100F9200DA22730EDF6E20EE02F01050D9261150C5
:100FA200DA22200EDF6EC89CC89A12001C0E156E43
:100FB200050E166E010E176E040EA9EC87F01C507A
:100FC2000F0B1C6E1B38F00B1C101C6E1CC511F590
:100FD200040E8FEC88F012000F6E00018785865197
:100FE2000309866F836B010E826F0FC581F0B1A07A
:100FF200FDEF87F0FFEF87F0F8EF87F080C010F584
:1010020010501200030E0301266F256B276B0F0E83
:10101200236F226BB40E0F6E120E106E010E116E44
:10102200C7EC88F0B196A1860301246912001CC5A1
:1010320019F51DC51AF5A7EC88F01E6E1EAC24EF3B
:1010420088F026EF88F029EF88F0010E2AEF88F069
:10105200000E1200BDEC88F088EC82F011EC87F0F3
:10106200CAEC85F096EC85F062EC85F09BEC88F09A
:1010720003EC88F07BEC86F0120013C5D9F414C59A
:10108200DAF4DF6AC09A2B0E116E000E8FEC88F034
:10109200C08A300E116E070E8FEC88F0120013C555
:1010A200D9F414C5DAF4010EDF6E2A0E116E000EA9
:1010B2008FEC88F0300E116E070E8FEC88F0120064
:1010C2001DC519F51EC51AF5000E1B6EF5EC84F050
:1010D2001DC519F51EC51AF5640E1B6ED7EC87F0F7
:1010E200120050415F4D494E000050415F4C4F5736
:1010F200000050415F484947480050415F4D415808
:10110200000052EC89F050EC89F0000E0F6E000ED8
:10111200106E010E116EC7EC88F01200126EC09CA8
:1011220012501F0B2009EDEC87F01150EDEC87F007
:10113200C08C1200A194A192A1900001846B040EB4
:10114200856F866B896B8C6B878512001B0E156E03
:10115200050E166E010E176E070EA9EC87F01B50D6
:101162001200040117A3B8EF88F0BAEF88F0BCEFC1
:1011720088F045EC87F01200600E0001AD6FAF6B96
:10118200B36B080EB16FB06BAC6B12000FC5BEF53E
:1011920010C5BFF511C5C0F512000FC527F510C562
:1011A20028F511C529F512000FC52AF510C52BF532
:1011B20011C52CF512000FC524F510C525F511C572
:1011C20026F512000FC530F510C531F511C532F5FF
:1011D20012000FC533F510C534F511C535F51200EF
:1011E2000FC52DF510C52EF511C52FF512000FC52F
:1011F20039F510C53AF511C53BF512000FC53CF59E
:1012020010C53DF511C53EF512000FC536F510C5E6
:1012120037F511C538F512000FC521F510C522F5B5
:1012220011C523F512000FC5C4F510C5C5F511C5CA
:10123200C6F512000FC5C7F510C5C8F511C5C9F529
:1012420012000FC5CAF510C5CBF511C5CCF51200B9
:10125200C09CE20EEDEC87F0C08C120001C58BF44D
:1012620002508C6E120001C589F402508A6E12007F
:1012720001C57CF402507D6E120001C57AF4025061
:101282007B6E1200010E05019D6F12000301249F67
:1012920012000301248F120003011A9F1200788E9C
:1012A2001200698E1200699E1200878412007884EF
:0812B2001200120012001200EC
:020000040030CA
:080000008FFFF7FF9FFFFFFFD8
:01000900FFF7
:00000001FF
